{
  "contractName": "DiagnosticContract",
  "abi": [
    {
      "inputs": [
        {
          "internalType": "address",
          "name": "_ehrSystem",
          "type": "address"
        }
      ],
      "stateMutability": "nonpayable",
      "type": "constructor"
    },
    {
      "anonymous": false,
      "inputs": [
        {
          "indexed": true,
          "internalType": "address",
          "name": "wallet",
          "type": "address"
        }
      ],
      "name": "DiagnosticCenterProfileUpdated",
      "type": "event"
    },
    {
      "anonymous": false,
      "inputs": [
        {
          "indexed": true,
          "internalType": "address",
          "name": "wallet",
          "type": "address"
        },
        {
          "indexed": false,
          "internalType": "string",
          "name": "hNumber",
          "type": "string"
        },
        {
          "indexed": false,
          "internalType": "string",
          "name": "name",
          "type": "string"
        }
      ],
      "name": "DiagnosticCenterRegistered",
      "type": "event"
    },
    {
      "anonymous": false,
      "inputs": [
        {
          "indexed": true,
          "internalType": "address",
          "name": "center",
          "type": "address"
        },
        {
          "indexed": false,
          "internalType": "uint256",
          "name": "reportId",
          "type": "uint256"
        },
        {
          "indexed": true,
          "internalType": "address",
          "name": "patient",
          "type": "address"
        },
        {
          "indexed": true,
          "internalType": "address",
          "name": "doctor",
          "type": "address"
        },
        {
          "indexed": false,
          "internalType": "string",
          "name": "testType",
          "type": "string"
        }
      ],
      "name": "DiagnosticReportCreated",
      "type": "event"
    },
    {
      "anonymous": false,
      "inputs": [
        {
          "indexed": true,
          "internalType": "address",
          "name": "center",
          "type": "address"
        },
        {
          "indexed": false,
          "internalType": "uint256",
          "name": "reportId",
          "type": "uint256"
        },
        {
          "indexed": false,
          "internalType": "string",
          "name": "ipfsHash",
          "type": "string"
        }
      ],
      "name": "ReportFileUploaded",
      "type": "event"
    },
    {
      "inputs": [
        {
          "internalType": "address",
          "name": "",
          "type": "address"
        }
      ],
      "name": "centers",
      "outputs": [
        {
          "internalType": "address",
          "name": "wallet",
          "type": "address"
        },
        {
          "internalType": "string",
          "name": "hNumber",
          "type": "string"
        },
        {
          "internalType": "string",
          "name": "name",
          "type": "string"
        },
        {
          "internalType": "string",
          "name": "location",
          "type": "string"
        },
        {
          "internalType": "string",
          "name": "contactNumber",
          "type": "string"
        },
        {
          "internalType": "string",
          "name": "email",
          "type": "string"
        },
        {
          "internalType": "string",
          "name": "licenseNumber",
          "type": "string"
        },
        {
          "internalType": "string",
          "name": "establishedDate",
          "type": "string"
        },
        {
          "internalType": "string",
          "name": "passwordHash",
          "type": "string"
        },
        {
          "internalType": "bool",
          "name": "exists",
          "type": "bool"
        }
      ],
      "stateMutability": "view",
      "type": "function",
      "constant": true
    },
    {
      "inputs": [],
      "name": "ehrSystem",
      "outputs": [
        {
          "internalType": "address",
          "name": "",
          "type": "address"
        }
      ],
      "stateMutability": "view",
      "type": "function",
      "constant": true
    },
    {
      "inputs": [
        {
          "internalType": "string",
          "name": "",
          "type": "string"
        }
      ],
      "name": "hNumberToAddress",
      "outputs": [
        {
          "internalType": "address",
          "name": "",
          "type": "address"
        }
      ],
      "stateMutability": "view",
      "type": "function",
      "constant": true
    },
    {
      "inputs": [],
      "name": "nextReportId",
      "outputs": [
        {
          "internalType": "uint256",
          "name": "",
          "type": "uint256"
        }
      ],
      "stateMutability": "view",
      "type": "function",
      "constant": true
    },
    {
      "inputs": [],
      "name": "patientContract",
      "outputs": [
        {
          "internalType": "address",
          "name": "",
          "type": "address"
        }
      ],
      "stateMutability": "view",
      "type": "function",
      "constant": true
    },
    {
      "inputs": [
        {
          "internalType": "address",
          "name": "",
          "type": "address"
        },
        {
          "internalType": "uint256",
          "name": "",
          "type": "uint256"
        }
      ],
      "name": "reportFilesByCenter",
      "outputs": [
        {
          "internalType": "string",
          "name": "ipfsHash",
          "type": "string"
        },
        {
          "internalType": "uint256",
          "name": "reportId",
          "type": "uint256"
        },
        {
          "internalType": "address",
          "name": "patient",
          "type": "address"
        },
        {
          "internalType": "address",
          "name": "doctor",
          "type": "address"
        },
        {
          "internalType": "address",
          "name": "diagnosticCenter",
          "type": "address"
        },
        {
          "internalType": "bool",
          "name": "patientAccess",
          "type": "bool"
        },
        {
          "internalType": "bool",
          "name": "doctorAccess",
          "type": "bool"
        }
      ],
      "stateMutability": "view",
      "type": "function",
      "constant": true
    },
    {
      "inputs": [
        {
          "internalType": "uint256",
          "name": "",
          "type": "uint256"
        }
      ],
      "name": "reportFilesById",
      "outputs": [
        {
          "internalType": "string",
          "name": "ipfsHash",
          "type": "string"
        },
        {
          "internalType": "uint256",
          "name": "reportId",
          "type": "uint256"
        },
        {
          "internalType": "address",
          "name": "patient",
          "type": "address"
        },
        {
          "internalType": "address",
          "name": "doctor",
          "type": "address"
        },
        {
          "internalType": "address",
          "name": "diagnosticCenter",
          "type": "address"
        },
        {
          "internalType": "bool",
          "name": "patientAccess",
          "type": "bool"
        },
        {
          "internalType": "bool",
          "name": "doctorAccess",
          "type": "bool"
        }
      ],
      "stateMutability": "view",
      "type": "function",
      "constant": true
    },
    {
      "inputs": [
        {
          "internalType": "address",
          "name": "",
          "type": "address"
        },
        {
          "internalType": "uint256",
          "name": "",
          "type": "uint256"
        }
      ],
      "name": "reportsByCenter",
      "outputs": [
        {
          "internalType": "uint256",
          "name": "reportId",
          "type": "uint256"
        },
        {
          "internalType": "address",
          "name": "patient",
          "type": "address"
        },
        {
          "internalType": "address",
          "name": "doctor",
          "type": "address"
        },
        {
          "internalType": "string",
          "name": "testType",
          "type": "string"
        },
        {
          "internalType": "string",
          "name": "ipfsHash",
          "type": "string"
        },
        {
          "internalType": "uint256",
          "name": "timestamp",
          "type": "uint256"
        }
      ],
      "stateMutability": "view",
      "type": "function",
      "constant": true
    },
    {
      "inputs": [
        {
          "internalType": "string",
          "name": "_hNumber",
          "type": "string"
        },
        {
          "internalType": "string",
          "name": "_name",
          "type": "string"
        },
        {
          "internalType": "string",
          "name": "_location",
          "type": "string"
        },
        {
          "internalType": "string",
          "name": "_contactNumber",
          "type": "string"
        },
        {
          "internalType": "string",
          "name": "_email",
          "type": "string"
        },
        {
          "internalType": "string",
          "name": "_licenseNumber",
          "type": "string"
        },
        {
          "internalType": "string",
          "name": "_establishedDate",
          "type": "string"
        },
        {
          "internalType": "string[]",
          "name": "_servicesOffered",
          "type": "string[]"
        },
        {
          "internalType": "string",
          "name": "_passwordHash",
          "type": "string"
        }
      ],
      "name": "registerDiagnosticCenter",
      "outputs": [],
      "stateMutability": "nonpayable",
      "type": "function"
    },
    {
      "inputs": [
        {
          "internalType": "address",
          "name": "_patient",
          "type": "address"
        },
        {
          "internalType": "address",
          "name": "_doctor",
          "type": "address"
        },
        {
          "internalType": "string",
          "name": "_testType",
          "type": "string"
        },
        {
          "internalType": "string",
          "name": "_ipfsHash",
          "type": "string"
        }
      ],
      "name": "createDiagnosticReport",
      "outputs": [],
      "stateMutability": "nonpayable",
      "type": "function"
    },
    {
      "inputs": [
        {
          "internalType": "string",
          "name": "_name",
          "type": "string"
        },
        {
          "internalType": "string",
          "name": "_location",
          "type": "string"
        },
        {
          "internalType": "string",
          "name": "_contactNumber",
          "type": "string"
        },
        {
          "internalType": "string",
          "name": "_email",
          "type": "string"
        },
        {
          "internalType": "string",
          "name": "_licenseNumber",
          "type": "string"
        },
        {
          "internalType": "string",
          "name": "_establishedDate",
          "type": "string"
        },
        {
          "internalType": "string[]",
          "name": "_servicesOffered",
          "type": "string[]"
        }
      ],
      "name": "updateProfile",
      "outputs": [],
      "stateMutability": "nonpayable",
      "type": "function"
    },
    {
      "inputs": [
        {
          "internalType": "address",
          "name": "_center",
          "type": "address"
        }
      ],
      "name": "getReportsByCenter",
      "outputs": [
        {
          "components": [
            {
              "internalType": "uint256",
              "name": "reportId",
              "type": "uint256"
            },
            {
              "internalType": "address",
              "name": "patient",
              "type": "address"
            },
            {
              "internalType": "address",
              "name": "doctor",
              "type": "address"
            },
            {
              "internalType": "string",
              "name": "testType",
              "type": "string"
            },
            {
              "internalType": "string",
              "name": "ipfsHash",
              "type": "string"
            },
            {
              "internalType": "uint256",
              "name": "timestamp",
              "type": "uint256"
            }
          ],
          "internalType": "struct DiagnosticContract.DiagnosticReport[]",
          "name": "",
          "type": "tuple[]"
        }
      ],
      "stateMutability": "view",
      "type": "function",
      "constant": true
    },
    {
      "inputs": [
        {
          "internalType": "uint256",
          "name": "_reportId",
          "type": "uint256"
        }
      ],
      "name": "getReportFile",
      "outputs": [
        {
          "components": [
            {
              "internalType": "string",
              "name": "ipfsHash",
              "type": "string"
            },
            {
              "internalType": "uint256",
              "name": "reportId",
              "type": "uint256"
            },
            {
              "internalType": "address",
              "name": "patient",
              "type": "address"
            },
            {
              "internalType": "address",
              "name": "doctor",
              "type": "address"
            },
            {
              "internalType": "address",
              "name": "diagnosticCenter",
              "type": "address"
            },
            {
              "internalType": "bool",
              "name": "patientAccess",
              "type": "bool"
            },
            {
              "internalType": "bool",
              "name": "doctorAccess",
              "type": "bool"
            }
          ],
          "internalType": "struct DiagnosticContract.ReportFile",
          "name": "",
          "type": "tuple"
        }
      ],
      "stateMutability": "view",
      "type": "function",
      "constant": true
    },
    {
      "inputs": [
        {
          "internalType": "uint256",
          "name": "_reportId",
          "type": "uint256"
        },
        {
          "internalType": "address",
          "name": "_user",
          "type": "address"
        }
      ],
      "name": "canAccessReport",
      "outputs": [
        {
          "internalType": "bool",
          "name": "",
          "type": "bool"
        }
      ],
      "stateMutability": "view",
      "type": "function",
      "constant": true
    },
    {
      "inputs": [
        {
          "internalType": "address",
          "name": "_center",
          "type": "address"
        }
      ],
      "name": "getServicesOffered",
      "outputs": [
        {
          "internalType": "string[]",
          "name": "",
          "type": "string[]"
        }
      ],
      "stateMutability": "view",
      "type": "function",
      "constant": true
    },
    {
      "inputs": [
        {
          "internalType": "address",
          "name": "user",
          "type": "address"
        }
      ],
      "name": "getReportsForUser",
      "outputs": [
        {
          "components": [
            {
              "internalType": "uint256",
              "name": "reportId",
              "type": "uint256"
            },
            {
              "internalType": "address",
              "name": "patient",
              "type": "address"
            },
            {
              "internalType": "address",
              "name": "doctor",
              "type": "address"
            },
            {
              "internalType": "string",
              "name": "testType",
              "type": "string"
            },
            {
              "internalType": "string",
              "name": "ipfsHash",
              "type": "string"
            },
            {
              "internalType": "uint256",
              "name": "timestamp",
              "type": "uint256"
            }
          ],
          "internalType": "struct DiagnosticContract.DiagnosticReport[]",
          "name": "",
          "type": "tuple[]"
        }
      ],
      "stateMutability": "view",
      "type": "function",
      "constant": true
    },
    {
      "inputs": [
        {
          "internalType": "address",
          "name": "_center",
          "type": "address"
        }
      ],
      "name": "getDiagnosticCenterName",
      "outputs": [
        {
          "internalType": "string",
          "name": "",
          "type": "string"
        }
      ],
      "stateMutability": "view",
      "type": "function",
      "constant": true
    },
    {
      "inputs": [
        {
          "internalType": "uint256",
          "name": "_reportId",
          "type": "uint256"
        }
      ],
      "name": "getDiagnosticCenterFromReport",
      "outputs": [
        {
          "internalType": "address",
          "name": "",
          "type": "address"
        }
      ],
      "stateMutability": "view",
      "type": "function",
      "constant": true
    },
    {
      "inputs": [
        {
          "internalType": "address",
          "name": "_patientContract",
          "type": "address"
        }
      ],
      "name": "setPatientContract",
      "outputs": [],
      "stateMutability": "nonpayable",
      "type": "function"
    }
  ],
  "bytecode": "0x60806040523461002f57610019610014610116565b61020f565b610021610034565b61397b610229823961397b90f35b61003a565b60405190565b600080fd5b601f801991011690565b7f4e487b7100000000000000000000000000000000000000000000000000000000600052604160045260246000fd5b906100829061003f565b810190811067ffffffffffffffff82111761009c57604052565b610049565b906100b46100ad610034565b9283610078565b565b600080fd5b600160a060020a031690565b6100d0906100bb565b90565b6100dc816100c7565b036100e357565b600080fd5b905051906100f5826100d3565b565b906020828203126101115761010e916000016100e8565b90565b6100b6565b610134613ba480380380610129816100a1565b9283398101906100f7565b90565b60010290565b9061014a60001991610137565b9181191691161790565b90565b90565b90565b61017161016c61017692610154565b61015a565b610157565b90565b90565b9061019161018c6101989261015d565b610179565b825461013d565b9055565b906101ae600160a060020a0391610137565b9181191691161790565b6101cc6101c76101d1926100bb565b61015a565b6100bb565b90565b6101dd906101b8565b90565b6101e9906101d4565b90565b90565b906102046101ff61020b926101e0565b6101ec565b825461019c565b9055565b6102269061021f6001600561017c565b60066101ef565b56fe60806040526004361015610013575b61178a565b61001e60003561014d565b80630c91594b1461014857806318bf8029146101435780631e1348da1461013e57806321e6cc40146101395780632231538e1461013457806322ef11491461012f5780632d3b48001461012a5780634a722589146101255780635480f98914610120578063554a14ac1461011b5780636e79bbf61461011657806392f1bbb514610111578063b83bef151461010c578063bd1067e614610107578063da4f416114610102578063dc279f00146100fd578063e245b27f146100f8578063e279a7ae146100f35763f6e8e18f0361000e57611755565b611710565b6116d4565b611607565b6115d2565b6114c6565b61145b565b61140b565b6112bc565b611216565b61105f565b610f7b565b610d7a565b610b26565b6109cc565b6108c9565b610873565b610447565b610398565b7c0100000000000000000000000000000000000000000000000000000000900490565b60405190565b600080fd5b600080fd5b600080fd5b73ffffffffffffffffffffffffffffffffffffffff1690565b6101a790610185565b90565b6101b38161019e565b036101ba57565b600080fd5b905035906101cc826101aa565b565b906020828203126101e8576101e5916000016101bf565b90565b61017b565b5190565b60209181520190565b60200190565b90565b61020c90610200565b9052565b6102199061019e565b9052565b5190565b60209181520190565b60005b83811061023e575050906000910152565b80602091830151818501520161022d565b601f801991011690565b6102786102816020936102869361026f8161021d565b93848093610221565b9586910161022a565b61024f565b0190565b906103019060a0806102f66102e460c085016102ae60008901516000880190610203565b6102c060208901516020880190610210565b6102d260408901516040880190610210565b60608801518682036060880152610259565b60808701518582036080870152610259565b940151910190610203565b90565b9061030e9161028a565b90565b60200190565b9061032b610324836101ed565b80926101f1565b908161033c602083028401946101fa565b926000915b83831061035057505050505090565b9091929394602061037261036c83856001950387528951610304565b97610311565b9301930191939290610341565b6103959160208201916000818403910152610317565b90565b346103c8576103c46103b36103ae3660046101ce565b611c7e565b6103bb610170565b9182918261037f565b0390f35b610176565b6103d681610200565b036103dd57565b600080fd5b905035906103ef826103cd565b565b919060408382031261041a578061040e61041792600086016103e2565b936020016101bf565b90565b61017b565b151590565b61042d9061041f565b9052565b919061044590600060208501940190610424565b565b346104785761047461046361045d3660046103f1565b9061227b565b61046b610170565b91829182610431565b0390f35b610176565b91906040838203126104a6578061049a6104a392600086016101bf565b936020016103e2565b90565b61017b565b90565b6104c26104bd6104c792610185565b6104ab565b610185565b90565b6104d3906104ae565b90565b6104df906104ca565b90565b906104ec906104d6565b600052602052604060002090565b7f4e487b7100000000000000000000000000000000000000000000000000000000600052603260045260246000fd5b5490565b600052602060002090565b61054181610529565b82101561055c5761055360069161052d565b91020190600090565b6104fa565b6001900490565b90565b61057761057c91610561565b610568565b90565b610589905461056b565b90565b73ffffffffffffffffffffffffffffffffffffffff1690565b6105b16105b691610561565b61058c565b90565b6105c390546105a5565b90565b7f4e487b7100000000000000000000000000000000000000000000000000000000600052602260045260246000fd5b9060016002830492168015610615575b602083101461061057565b6105c6565b91607f1691610605565b600052602060002090565b906000929180549061064561063e836105f5565b8094610221565b9160018116908160001461069e5750600114610661575b505050565b61066e919293945061061f565b916000925b818410610686575050019038808061065c565b60018160209295939554848601520191019290610673565b92949550505060ff191682521515602002019038808061065c565b906106c39161062a565b90565b7f4e487b7100000000000000000000000000000000000000000000000000000000600052604160045260246000fd5b906106ff9061024f565b810190811067ffffffffffffffff82111761071957604052565b6106c6565b9061073e6107379261072e610170565b938480926106b9565b03836106f5565b565b61074b9060026104e2565b9061075582610529565b8110156107b65761076591610538565b50906107736000830161057f565b91610780600182016105b9565b9161078d600283016105b9565b9161079a6003820161071e565b916107b360056107ac6004850161071e565b930161057f565b90565b600080fd5b6107c490610200565b9052565b6107d19061019e565b9052565b60209181520190565b6107fd61080660209361080b936107f48161021d565b938480936107d5565b9586910161022a565b61024f565b0190565b969593610871959161085b9161084e60a0966108446108699760208e61083d60c082019860008301906107bb565b01906107c8565b60408c01906107c8565b89820360608b01526107de565b9087820360808901526107de565b9401906107bb565b565b346108ab576108a761088f61088936600461047d565b90610740565b9261089e969496929192610170565b9687968761080f565b0390f35b610176565b6108c691602082019160008184039101526107de565b90565b346108f9576108f56108e46108df3660046101ce565b612330565b6108ec610170565b918291826108b0565b0390f35b610176565b9060208282031261091857610915916000016103e2565b90565b61017b565b6109269061041f565b9052565b906109b09060c08061094b60e0840160008701518582036000870152610259565b9461095e60208201516020860190610203565b61097060408201516040860190610210565b61098260608201516060860190610210565b61099460808201516080860190610210565b6109a660a082015160a086019061091d565b015191019061091d565b90565b6109c9916020820191600081840391015261092a565b90565b346109fc576109f86109e76109e23660046108fe565b6123c4565b6109ef610170565b918291826109b3565b0390f35b610176565b600080fd5b600080fd5b90610a1e610a17610170565b92836106f5565b565b67ffffffffffffffff8111610a3e57610a3a60209161024f565b0190565b6106c6565b90826000939282370152565b90929192610a64610a5f82610a20565b610a0b565b93818552602085019082840111610a8057610a7e92610a43565b565b610a06565b9080601f83011215610aa357816020610aa093359101610a4f565b90565b610a01565b90608082820312610b1b57610ac081600084016101bf565b92610ace82602085016101bf565b92604081013567ffffffffffffffff8111610b165783610aef918301610a85565b92606082013567ffffffffffffffff8111610b1157610b0e9201610a85565b90565b610180565b610180565b61017b565b60000190565b34610b5857610b42610b39366004610aa8565b92919091612d2d565b610b4a610170565b80610b5481610b20565b0390f35b610176565b67ffffffffffffffff8111610b755760208091020190565b6106c6565b600080fd5b929190610b93610b8e82610b5d565b610a0b565b9381855260208086019202810191838311610bea5781905b838210610bb9575050505050565b813567ffffffffffffffff8111610be557602091610bda8784938701610a85565b815201910190610bab565b610a01565b610b7a565b9080601f83011215610c0d57816020610c0a93359101610b7f565b90565b610a01565b9161012083830312610d7557600083013567ffffffffffffffff8111610d705782610c3e918501610a85565b92602081013567ffffffffffffffff8111610d6b5783610c5f918301610a85565b92604082013567ffffffffffffffff8111610d665781610c80918401610a85565b92606083013567ffffffffffffffff8111610d615782610ca1918501610a85565b92608081013567ffffffffffffffff8111610d5c5783610cc2918301610a85565b9260a082013567ffffffffffffffff8111610d575781610ce3918401610a85565b9260c083013567ffffffffffffffff8111610d525782610d04918501610a85565b9260e081013567ffffffffffffffff8111610d4d5783610d25918301610bef565b9261010082013567ffffffffffffffff8111610d4857610d459201610a85565b90565b610180565b610180565b610180565b610180565b610180565b610180565b610180565b610180565b610180565b61017b565b34610db257610d9c610d8d366004610c12565b97969096959195949294613334565b610da4610170565b80610dae81610b20565b0390f35b610176565b90610dc1906104d6565b600052602052604060002090565b5490565b600052602060002090565b610de781610dcf565b821015610e0257610df9600591610dd3565b91020190600090565b6104fa565b74010000000000000000000000000000000000000000900490565b60ff1690565b610e34610e3991610e07565b610e22565b90565b610e469054610e28565b90565b7501000000000000000000000000000000000000000000900490565b610e71610e7691610e49565b610e22565b90565b610e839054610e65565b90565b610e91906003610db7565b90610e9b82610dcf565b811015610f0757610eab91610dde565b50610eb86000820161071e565b91610ec56001830161057f565b91610ed2600282016105b9565b91610edf600383016105b9565b91610eec600482016105b9565b91610f046004610efd818501610e3c565b9301610e79565b90565b600080fd5b92610f7292989795610f5e60c096610f54610f6894610f4a610f3f610f799d9860e08c01908c60008184039101526107de565b9e60208b01906107bb565b60408901906107c8565b60608701906107c8565b60808501906107c8565b60a0830190610424565b0190610424565b565b34610fb357610faf610f97610f9136600461047d565b90610e86565b93610fa6979597939193610170565b97889788610f0c565b0390f35b610176565b5190565b60209181520190565b60200190565b90610fd591610259565b90565b60200190565b90610ff2610feb83610fb8565b8092610fbc565b908161100360208302840194610fc5565b926000915b83831061101757505050505090565b9091929394602061103961103383856001950387528951610fcb565b97610fd8565b9301930191939290611008565b61105c9160208201916000818403910152610fde565b90565b3461108f5761108b61107a6110753660046101ce565b6136c4565b611082610170565b91829182611046565b0390f35b610176565b9061109e906104d6565b600052602052604060002090565b6110b86110bd91610561565b610e22565b90565b6110ca90546110ac565b90565b6110d8906000611094565b906110e5600083016105b9565b916110f26001820161071e565b916110ff6002830161071e565b9161110c6003820161071e565b916111196004830161071e565b916111266005820161071e565b916111336006830161071e565b916111406007820161071e565b91611159600a6111526009850161071e565b93016110c0565b90565b9a99979261120c966111d28d6112149c986111c46111fd996111b66111e1976101209f996111a8906111ef9c61119b6101408a019260008b01906107c8565b88820360208a01526107de565b9086820360408801526107de565b9084820360608601526107de565b9160808184039101526107de565b908d60a08184039101526107de565b908b820360c08d01526107de565b9089820360e08b01526107de565b908782036101008901526107de565b940190610424565b565b346112535761124f61123161122c3660046101ce565b6110cd565b966112469a989a969196959295949394610170565b9a8b9a8b61115c565b0390f35b610176565b600091031261126357565b61017b565b60020a900490565b6112809060086112859302611268565b610568565b90565b906112939154611270565b90565b6112a36005600090611288565b90565b91906112ba906000602085019401906107bb565b565b346112ec576112cc366004611258565b6112e86112d7611296565b6112df610170565b918291826112a6565b0390f35b610176565b9060e08282031261140657600082013567ffffffffffffffff8111611401578161131c918401610a85565b92602083013567ffffffffffffffff81116113fc578261133d918501610a85565b92604081013567ffffffffffffffff81116113f7578361135e918301610a85565b92606082013567ffffffffffffffff81116113f2578161137f918401610a85565b92608083013567ffffffffffffffff81116113ed57826113a0918501610a85565b9260a081013567ffffffffffffffff81116113e857836113c1918301610a85565b9260c082013567ffffffffffffffff81116113e3576113e09201610bef565b90565b610180565b610180565b610180565b610180565b610180565b610180565b610180565b61017b565b346114405761142a61141e3660046112f1565b959490949391936137cc565b611432610170565b8061143c81610b20565b0390f35b610176565b9190611459906000602085019401906107c8565b565b3461148b576114876114766114713660046108fe565b6137e2565b61147e610170565b91829182611445565b0390f35b610176565b6114a09060086114a59302611268565b61058c565b90565b906114b39154611490565b90565b6114c360066000906114a8565b90565b346114f6576114d6366004611258565b6114f26114e16114b6565b6114e9610170565b91829182611445565b0390f35b610176565b9060208282031261152c57600082013567ffffffffffffffff8111611527576115249201610a85565b90565b610180565b61017b565b905090565b61155b611552926020926115498161021d565b94858093611531565b9384910161022a565b0190565b90565b61156e61157391610200565b61155f565b9052565b61158761158e9160209493611536565b8092611562565b0190565b6115a661159d610170565b92839283611577565b03902090565b6115b591611592565b90565b6115cf906115ca6001916000926115ac565b6114a8565b90565b34611602576115fe6115ed6115e83660046114fb565b6115b8565b6115f5610170565b91829182611445565b0390f35b610176565b346116355761161f61161a3660046101ce565b613803565b611627610170565b8061163181610b20565b0390f35b610176565b61164e61164961165392610200565b6104ab565b610200565b90565b906116609061163a565b600052602052604060002090565b611679906004611656565b6116856000820161071e565b916116926001830161057f565b9161169f600282016105b9565b916116ac600383016105b9565b916116b9600482016105b9565b916116d160046116ca818501610e3c565b9301610e79565b90565b3461170b576117076116ef6116ea3660046108fe565b61166e565b936116fe979597939193610170565b97889788610f0c565b0390f35b610176565b346117405761173c61172b6117263660046101ce565b61390a565b611733610170565b9182918261037f565b0390f35b610176565b61175260076000906114a8565b90565b3461178557611765366004611258565b611781611770611745565b611778610170565b91829182611445565b0390f35b610176565b600080fd5b606090565b90565b6117ab6117a66117b092611794565b6104ab565b610200565b90565b60016117bf9101610200565b90565b90565b6117d96117d46117de926117c2565b6104ab565b610200565b90565b7f4e487b7100000000000000000000000000000000000000000000000000000000600052601160045260246000fd5b61181f61182591939293610200565b92610200565b820391821161183057565b6117e1565b61184461184a91939293610200565b92610200565b820180921161185557565b6117e1565b52565b9061186790610200565b9052565b906118759061019e565b9052565b906118839061041f565b9052565b61189160e0610a0b565b90565b9061194361193a60046118a5611887565b946118be6118b56000830161071e565b6000880161185a565b6118d66118cd6001830161057f565b6020880161185d565b6118ee6118e5600283016105b9565b6040880161186b565b6119066118fd600383016105b9565b6060880161186b565b61191d6119148383016105b9565b6080880161186b565b61193461192b838301610e3c565b60a08801611879565b01610e79565b60c08401611879565b565b61194e90611894565b90565b61195b905161019e565b90565b611968905161041f565b90565b61197f61197a61198492611794565b6104ab565b610185565b90565b6119909061196b565b90565b61199c906104ae565b90565b6119a890611993565b90565b6119b4906104ca565b90565b600080fd5b7c01000000000000000000000000000000000000000000000000000000000290565b6119e78161041f565b036119ee57565b600080fd5b90505190611a00826119de565b565b90602082820312611a1c57611a19916000016119f3565b90565b61017b565b916020611a43929493611a3c604082019660008301906107c8565b01906107c8565b565b611a4d610170565b3d6000823e3d90fd5b611a5f90610200565b6000198114611a6e5760010190565b6117e1565b67ffffffffffffffff8111611a8b5760208091020190565b6106c6565b90611aa2611a9d83611a73565b610a0b565b918252565b611ab160c0610a0b565b90565b600090565b600090565b606090565b611acb611aa7565b906020808080808087611adc611ab4565b815201611ae7611ab9565b815201611af2611ab9565b815201611afd611abe565b815201611b08611abe565b815201611b13611ab4565b81525050565b611b21611ac3565b90565b60005b828110611b3357505050565b602090611b3e611b19565b8184015201611b27565b90611b6d611b5583611a90565b92602080611b638693611a73565b9201910390611b24565b565b90565b5490565b600052602060002090565b611b8a81611b72565b821015611ba557611b9c600691611b76565b91020190600090565b6104fa565b611bb49051610200565b90565b90611bc1826101ed565b811015611bd2576020809102010190565b6104fa565b90611c70611c676005611be8611aa7565b94611c01611bf86000830161057f565b6000880161185d565b611c19611c10600183016105b9565b6020880161186b565b611c31611c28600283016105b9565b6040880161186b565b611c49611c406003830161071e565b6060880161185a565b611c61611c586004830161071e565b6080880161185a565b0161057f565b60a0840161185d565b565b611c7b90611bd7565b90565b90611c8761178f565b50611c926000611797565b611c9c6000611797565b5b80611ccc611cc6611cc1611cb1600561057f565b611cbb60016117c5565b90611810565b610200565b91610200565b1015611e9e57611cf9611cf46004611cee84611ce860016117c5565b90611835565b90611656565b611945565b611d0560408201611951565b611d17611d118761019e565b9161019e565b1480611e8c575b600014611d3f575090611d33611d3a91611a56565b915b6117b3565b611c9d565b611d4b60608201611951565b611d5d611d578761019e565b9161019e565b1480611e7a575b611d73575b50611d3a90611d35565b611d7d60076105b9565b611d98611d92611d8d6000611987565b61019e565b9161019e565b03611da3575b611d69565b6020611dbf611dba611db560076105b9565b61199f565b6119ab565b611dd060406351ce176c9401611951565b90611ded8894611df8611de1610170565b968795869485946119bc565b845260048401611a21565b03915afa8091600092611e4a575b5015600014611e275750611d3a906001611e22575b5b90611d9e565b611e1b565b611e35575b611d3a90611e1c565b90611e42611d3a91611a56565b919050611e2c565b611e6c91925060203d8111611e73575b611e6481836106f5565b810190611a02565b9038611e06565b503d611e5a565b50611e8760c0820161195e565b611d64565b50611e9960a0820161195e565b611d1e565b50611eab90929192611b48565b611eb56000611797565b90611ec06000611797565b925b83611ef1611eeb611ee6611ed6600561057f565b611ee060016117c5565b90611810565b610200565b91610200565b101561226f57611f1e611f196004611f1387611f0d60016117c5565b90611835565b90611656565b611945565b94611f2b60408701611951565b611f3d611f378461019e565b9161019e565b148061225d575b60001461203757611f6a611f656002611f5f60808a01611951565b906104e2565b611b6f565b91611f756000611797565b5b80611f91611f8b611f8687611b72565b610200565b91610200565b101561202957611fae6000611fa7868490611b81565b500161057f565b611fcb611fc5611fc060208c01611baa565b610200565b91610200565b14611fde57611fd9906117b3565b611f76565b61201a929695919750611ff76120139161202295611b81565b50856120038492611c72565b61200d8383611bb7565b52611bb7565b5150611a56565b925b5b6117b3565b9293611ec2565b50955093612022915061201c565b93909461204660608201611951565b6120586120528861019e565b9161019e565b148061224b575b61206e575b506120229061201d565b61207860076105b9565b61209361208d6120886000611987565b61019e565b9161019e565b0361209e575b612064565b6120b86120b36120ae60076105b9565b61199f565b6119ab565b60206351ce176c916120cc60408501611951565b906120e98a946120f46120dd610170565b968795869485946119bc565b845260048401611a21565b03915afa809160009261221b575b501560001461212457505061202290600161211f575b5b90612099565b612118565b612133575b5061202290612119565b949093612155612150600261214a60808a01611951565b906104e2565b611b6f565b916121606000611797565b5b8061217c61217661217187611b72565b610200565b91610200565b101561220d576121996000612192868490611b81565b500161057f565b6121b66121b06121ab60208c01611baa565b610200565b91610200565b146121c9576121c4906117b3565b612161565b6122059296959197506121e26121fe9161202295611b81565b50856121ee8492611c72565b6121f88383611bb7565b52611bb7565b5150611a56565b925b90612129565b509550936120229150612207565b61223d91925060203d8111612244575b61223581836106f5565b810190611a02565b9038612102565b503d61222b565b5061225860c0820161195e565b61205f565b5061226a60a0870161195e565b611f44565b5091505090565b600090565b6122926122979161228a612276565b506004611656565b611945565b6122a360408201611951565b6122b56122af8461019e565b9161019e565b148061230d575b9182156122c9575b505090565b9091506122ea6122e46122de60608501611951565b9261019e565b9161019e565b1490816122fa575b5038806122c4565b612307915060c00161195e565b386122f2565b5061231a60a0820161195e565b6122bc565b606090565b61232d9061071e565b90565b600261234961234f9261234161231f565b506000611094565b01612324565b90565b600090565b61235f611887565b90602080808080808088612371611abe565b81520161237c611ab4565b815201612387611ab9565b815201612392611ab9565b81520161239d611ab9565b8152016123a8612352565b8152016123b3612352565b81525050565b6123c1612357565b90565b6123db6123e0916123d36123b9565b506004611656565b611945565b90565b60207f6572000000000000000000000000000000000000000000000000000000000000917f4e6f742061207265676973746572656420646961676e6f737469632063656e7460008201520152565b61243e60226040926107d5565b612447816123e3565b0190565b6124619060208101906000818303910152612431565b90565b1561246b57565b612473610170565b7f08c379a0000000000000000000000000000000000000000000000000000000008152806124a36004820161244b565b0390fd5b906124d29392916124cd6124c8600a6124c260003390611094565b016110c0565b612464565b612ac1565b565b60010290565b906124e7600019916124d4565b9181191691161790565b90565b906125096125046125109261163a565b6124f1565b82546124da565b9055565b61251e60c0610a0b565b90565b7f4e487b7100000000000000000000000000000000000000000000000000000000600052600060045260246000fd5b9061256f73ffffffffffffffffffffffffffffffffffffffff916124d4565b9181191691161790565b90565b9061259161258c612598926104d6565b612579565b8254612550565b9055565b5190565b601f602091010490565b60020a0290565b919060086125cd9102916125c7600019846125aa565b926125aa565b9181191691161790565b91906125ed6125e86125f59361163a565b6124f1565b9083546125b1565b9055565b600090565b6126109161260a6125f9565b916125d7565b565b5b81811061261e575050565b8061262c60006001936125fe565b01612613565b9190601f8111612642575b505050565b61264e6126739361061f565b90602061265a846125a0565b8301931061267b575b61266c906125a0565b0190612612565b38808061263d565b915061266c81929050612663565b9061269a9060001990600802611268565b191690565b816126a991612689565b906002021790565b906126bb8161021d565b9067ffffffffffffffff821161277d576126df826126d985546105f5565b85612632565b602090601f83116001146127145791809161270393600092612708575b505061269f565b90555b565b909150015138806126fc565b601f198316916127238561061f565b9260005b8181106127655750916002939185600196941061274b575b50505002019055612706565b61275b910151601f841690612689565b905538808061273f565b91936020600181928787015181550195019201612727565b6106c6565b9061278c916126b1565b565b9061281f60a06005612825946127b3600082016127ad60008801611baa565b906124f4565b6127cc600182016127c660208801611951565b9061257c565b6127e5600282016127df60408801611951565b9061257c565b6127fe600382016127f86060880161259c565b90612782565b612817600482016128116080880161259c565b90612782565b019201611baa565b906124f4565b565b9190612838576128369161278e565b565b612521565b908154916801000000000000000083101561286d578261286591600161286b95018155611b81565b90612827565b565b6106c6565b90565b61287f60e0610a0b565b90565b600052602060002090565b5490565b61289a8161288d565b8210156128b5576128ac600591612882565b91020190600090565b6104fa565b740100000000000000000000000000000000000000000290565b906128f474ff0000000000000000000000000000000000000000916128ba565b9181191691161790565b6129079061041f565b90565b90565b9061292261291d612929926128fe565b61290a565b82546128d4565b9055565b75010000000000000000000000000000000000000000000290565b9061296975ff0000000000000000000000000000000000000000009161292d565b9181191691161790565b9061298861298361298f926128fe565b61290a565b8254612948565b9055565b90612a3b60c06004612a41946129b8600082016129b26000880161259c565b90612782565b6129d1600182016129cb60208801611baa565b906124f4565b6129ea600282016129e460408801611951565b9061257c565b612a03600382016129fd60608801611951565b9061257c565b612a1b828201612a1560808801611951565b9061257c565b612a33828201612a2d60a0880161195e565b9061290d565b01920161195e565b90612973565b565b9190612a5457612a5291612993565b565b612521565b9081549168010000000000000000831015612a895782612a81916001612a8795018155612891565b90612a43565b565b6106c6565b90612a9891612993565b565b91612abe92612ab1604082019360008301906107bb565b60208184039101526107de565b90565b9091612acd600561057f565b612ad681611a56565b612ae19060056124f4565b92600233612aee916104e2565b612af790611b6f565b8484838589914293612b07612514565b956000870190612b169161185d565b6020860190612b249161186b565b6040850190612b329161186b565b6060840190612b409161185a565b6080830190612b4e9161185a565b60a0820190612b5c9161185d565b612b659161283d565b600333612b7191610db7565b612b7a90612872565b858585843390600192600194612b8e612875565b966000880190612b9d9161185a565b6020870190612bab9161185d565b6040860190612bb99161186b565b6060850190612bc79161186b565b6080840190612bd59161186b565b60a0830190612be391611879565b60c0820190612bf191611879565b612bfa91612a59565b848484833390600192600194612c0e612875565b966000880190612c1d9161185a565b6020870190612c2b9161185d565b6040860190612c399161186b565b6060850190612c479161186b565b6080840190612c559161186b565b60a0830190612c6391611879565b60c0820190612c7191611879565b600485612c7d91611656565b90612c8791612a8e565b3384939192937fa538b4ce4bf315df192ff0f5b3c6a8a44b0fac24c2dd9d7f9836e31900a112bf91612cb8906104d6565b92612cc2906104d6565b93612ccc906104d6565b94612cd5610170565b918291612ce29183612a9a565b0390a433907f56dca679496f0d2867aedb6177e6515119e2da601a877638e669d0e2d8dd14cd91612d12906104d6565b92612d1b610170565b918291612d289183612a9a565b0390a2565b90612d399392916124a7565b565b60007f416c726561647920726567697374657265640000000000000000000000000000910152565b612d7060126020926107d5565b612d7981612d3b565b0190565b612d939060208101906000818303910152612d63565b90565b15612d9d57565b612da5610170565b7f08c379a000000000000000000000000000000000000000000000000000000000815280612dd560048201612d7d565b0390fd5b612de2906104ae565b90565b612dee90612dd9565b90565b612dfa906104ca565b90565b60007f48204e756d62657220616c726561647920757365640000000000000000000000910152565b612e3260156020926107d5565b612e3b81612dfd565b0190565b612e559060208101906000818303910152612e25565b90565b15612e5f57565b612e67610170565b7f08c379a000000000000000000000000000000000000000000000000000000000815280612e9760048201612e3f565b0390fd5b612ea6610160610a0b565b90565b52565b5190565b5490565b600190818003010490565b600052602060002090565b90612ede9060001990602003600802611268565b8154169055565b90600091612efd612ef58261061f565b92835461269f565b905555565b91929060208210600014612f5c57601f8411600114612f2c57612f2692935061269f565b90555b5b565b5090612f52612f57936001612f49612f438561061f565b926125a0565b82019101612612565b612ee5565b612f29565b50612f938293612f6d60019461061f565b612f8c612f79856125a0565b820192601f861680612f9e575b506125a0565b0190612612565b600202179055612f2a565b612faa90888603612eca565b38612f86565b929091680100000000000000008211613012576020116000146130035760208110600014612fe757612fe19161269f565b90555b5b565b60019160ff1916612ff78461061f565b55600202019055612fe4565b60019150600202019055612fe5565b6106c6565b908154613023816105f5565b9081831161304c575b81831061303a575b50505050565b61304393612f02565b38808080613034565b61305883838387612fb0565b61302c565b600061306891613017565b565b9060000361307d5761307b9061305d565b565b612521565b5b81811061308e575050565b8061309c600060019361306a565b01613083565b90918281106130b1575b505050565b6130cf6130c96130c36130da95612eb4565b92612eb4565b92612ebf565b918201910190613082565b3880806130ac565b9068010000000000000000811161310b578161310061310993612eb0565b908281556130a2565b565b6106c6565b61313561312f61311f84610fb8565b9361312a85856130e2565b610fc5565b91612ebf565b6000915b8383106131465750505050565b600160208261315e613158849561259c565b86612782565b01920192019190613139565b9061317491613110565b565b9061318260ff916124d4565b9181191691161790565b906131a161319c6131a8926128fe565b61290a565b8254613176565b9055565b906132bd610140600a6132c3946131d2600082016131cc60008801611951565b9061257c565b6131eb600182016131e56020880161259c565b90612782565b613204600282016131fe6040880161259c565b90612782565b61321d600382016132176060880161259c565b90612782565b613236600482016132306080880161259c565b90612782565b61324f6005820161324960a0880161259c565b90612782565b6132686006820161326260c0880161259c565b90612782565b6132816007820161327b60e0880161259c565b90612782565b61329b600882016132956101008801612eac565b9061316a565b6132b5600982016132af610120880161259c565b90612782565b01920161195e565b9061318c565b565b906132cf916131ac565b565b60009103126132dc57565b61017b565b929160206132fe61330693604087019087820360008901526107de565b9401906107c8565b565b909161332361333193604084019084820360008601526107de565b9160208184039101526107de565b90565b969193959097929461336461335f613359600a61335360003390611094565b016110c0565b1561041f565b612d96565b6133ad602061338361337e61337960066105b9565b612de5565b612df1565b6348a6fc00906133a28c92613396610170565b958694859384936119bc565b8352600483016108b0565b03915afa9081156136485760009161361a575b50156133cb9061041f565b6133d490612e58565b339688968a96909192939495966001986133ec612e9b565b9a60008c01906133fb9161186b565b60208b01906134099161185a565b60408a01906134179161185a565b60608901906134259161185a565b60808801906134339161185a565b60a08701906134419161185a565b60c086019061344f9161185a565b60e085019061345d9161185a565b61010084019061346c91612ea9565b61012083019061347b9161185a565b61014082019061348a91611879565b60003361349691611094565b906134a0916132c5565b6134aa60066105b9565b6134b390612de5565b6134bc90612df1565b639eb89250823392803b15613615576134e9600080946134f46134dd610170565b978896879586946119bc565b8452600484016132e1565b03925af18015613610576135e3575b5061351e61351961351460066105b9565b612de5565b612df1565b632923965133823b156135de576135559261354a6000809461353e610170565b968795869485936119bc565b835260048301611445565b03925af180156135d9576135ac575b503390916135927f6049150b22f09affb62bad87344c4c9487e01763c8b3e3c35ff7f90b3a3f5c75926104d6565b926135a761359e610170565b92839283613308565b0390a2565b6135cc9060003d81116135d2575b6135c481836106f5565b8101906132d1565b38613564565b503d6135ba565b611a45565b6119b7565b6136039060003d8111613609575b6135fb81836106f5565b8101906132d1565b38613503565b503d6135f1565b611a45565b6119b7565b61363b915060203d8111613641575b61363381836106f5565b810190611a02565b386133c0565b503d613629565b611a45565b606090565b9061366461365f83610b5d565b610a0b565b918252565b9061367382612eb0565b61367c81613652565b9261368a6020850191612ebf565b6000915b83831061369b5750505050565b6001602081926136aa85612324565b81520192019201919061368e565b6136c190613669565b90565b60086136dd6136e3926136d561364d565b506000611094565b016136b8565b90565b9061371496959493929161370f61370a600a61370460003390611094565b016110c0565b612464565b613719565b565b90565b60089461377061378998956137676137829661375e60029b976137556137799861374d61374860003390611094565b613716565b9e8f01612782565b60038d01612782565b60048b01612782565b60058901612782565b60068701612782565b60078501612782565b910161316a565b336137b47f02ac43895e58db27afa776f0ea376d940bdb069e036227c5f5477b13d24f9d7e916104d6565b906137bd610170565b806137c781610b20565b0390a2565b906137db9695949392916136e6565b565b600090565b60046137fa613800926137f36137dd565b5082611656565b016105b9565b90565b61380e90600761257c565b565b60007f4e6f7420617574686f72697a6564000000000000000000000000000000000000910152565b613845600e6020926107d5565b61384e81613810565b0190565b6138689060208101906000818303910152613838565b90565b1561387257565b61387a610170565b7f08c379a0000000000000000000000000000000000000000000000000000000008152806138aa60048201613852565b0390fd5b906138b882610529565b6138c181611a90565b926138cf602085019161052d565b6000915b8383106138e05750505050565b600660206001926138f085611c72565b8152019201920191906138d3565b613907906138ae565b90565b61393d6139429161391961178f565b506139363361393061392a8461019e565b9161019e565b1461386b565b60026104e2565b6138fe565b9056fea2646970667358221220da9dc4fb224a2a3f59dcf1b5d6db77da84f76b4a18914bd58bf914ffa7651fdf64736f6c634300081a0033",
  "immutableReferences": {},
  "source": "// SPDX-License-Identifier: MIT\npragma solidity ^0.8.26;\n\ninterface IEHRSystemForDiagnostic {\n    function addDiagnostic(address _diagnostic) external;\n    function isHNumberUsed(string memory _hNumber) external view returns (bool);\n    function registerHNumber(string memory _hNumber, address _center) external;\n}\n\ninterface IPatientContractForDiagnostic {\n    function isDoctorPermitted(address _patient, address _doctor) external view returns (bool);\n}\n\ncontract DiagnosticContract {\n    struct DiagnosticCenter {\n        address wallet;\n        string hNumber;\n        string name;\n        string location;\n        string contactNumber;\n        string email;\n        string licenseNumber;\n        string establishedDate;\n        string[] servicesOffered;\n        string passwordHash;\n        bool exists;\n    }\n\n    struct DiagnosticReport {\n        uint256 reportId;\n        address patient;\n        address doctor;\n        string testType;\n        string ipfsHash;\n        uint256 timestamp;\n    }\n\n    struct ReportFile {\n        string ipfsHash;\n        uint256 reportId;\n        address patient;\n        address doctor;\n        address diagnosticCenter;\n        bool patientAccess;\n        bool doctorAccess;\n    }\n\n    mapping(address => DiagnosticCenter) public centers;\n    mapping(string => address) public hNumberToAddress;\n    mapping(address => DiagnosticReport[]) public reportsByCenter;\n    mapping(address => ReportFile[]) public reportFilesByCenter;\n    mapping(uint256 => ReportFile) public reportFilesById;\n    uint256 public nextReportId = 1;\n\n    event DiagnosticCenterRegistered(address indexed wallet, string hNumber, string name);\n    event DiagnosticReportCreated(address indexed center, uint256 reportId, address indexed patient, address indexed doctor, string testType);\n    event ReportFileUploaded(address indexed center, uint256 reportId, string ipfsHash);\n    event DiagnosticCenterProfileUpdated(address indexed wallet);\n\n    address public ehrSystem;\n    address public patientContract;\n\n    constructor(address _ehrSystem) {\n        ehrSystem = _ehrSystem;\n    }\n\n    modifier onlyCenter() {\n        require(centers[msg.sender].exists, \"Not a registered diagnostic center\");\n        _;\n    }\n\n    function registerDiagnosticCenter(\n        string memory _hNumber,\n        string memory _name,\n        string memory _location,\n        string memory _contactNumber,\n        string memory _email,\n        string memory _licenseNumber,\n        string memory _establishedDate,\n        string[] memory _servicesOffered,\n        string memory _passwordHash\n    ) public {\n        require(!centers[msg.sender].exists, \"Already registered\");\n        require(!IEHRSystemForDiagnostic(ehrSystem).isHNumberUsed(_hNumber), \"H Number already used\");\n        centers[msg.sender] = DiagnosticCenter({\n            wallet: msg.sender,\n            hNumber: _hNumber,\n            name: _name,\n            location: _location,\n            contactNumber: _contactNumber,\n            email: _email,\n            licenseNumber: _licenseNumber,\n            establishedDate: _establishedDate,\n            servicesOffered: _servicesOffered,\n            passwordHash: _passwordHash,\n            exists: true\n        });\n        IEHRSystemForDiagnostic(ehrSystem).registerHNumber(_hNumber, msg.sender);\n        // Automatically register with EHRSystem\n        IEHRSystemForDiagnostic(ehrSystem).addDiagnostic(msg.sender);\n        emit DiagnosticCenterRegistered(msg.sender, _hNumber, _name);\n    }\n\n    function createDiagnosticReport(\n        address _patient,\n        address _doctor,\n        string memory _testType,\n        string memory _ipfsHash\n    ) public onlyCenter {\n        uint256 reportId = nextReportId++;\n        reportsByCenter[msg.sender].push(DiagnosticReport({\n            reportId: reportId,\n            patient: _patient,\n            doctor: _doctor,\n            testType: _testType,\n            ipfsHash: _ipfsHash,\n            timestamp: block.timestamp\n        }));\n        reportFilesByCenter[msg.sender].push(ReportFile({\n            ipfsHash: _ipfsHash,\n            reportId: reportId,\n            patient: _patient,\n            doctor: _doctor,\n            diagnosticCenter: msg.sender,\n            patientAccess: true,\n            doctorAccess: true\n        }));\n        reportFilesById[reportId] = ReportFile({\n            ipfsHash: _ipfsHash,\n            reportId: reportId,\n            patient: _patient,\n            doctor: _doctor,\n            diagnosticCenter: msg.sender,\n            patientAccess: true,\n            doctorAccess: true\n        });\n        emit DiagnosticReportCreated(msg.sender, reportId, _patient, _doctor, _testType);\n        emit ReportFileUploaded(msg.sender, reportId, _ipfsHash);\n    }\n\n    function updateProfile(\n        string memory _name,\n        string memory _location,\n        string memory _contactNumber,\n        string memory _email,\n        string memory _licenseNumber,\n        string memory _establishedDate,\n        string[] memory _servicesOffered\n    ) public onlyCenter {\n        DiagnosticCenter storage c = centers[msg.sender];\n        c.name = _name;\n        c.location = _location;\n        c.contactNumber = _contactNumber;\n        c.email = _email;\n        c.licenseNumber = _licenseNumber;\n        c.establishedDate = _establishedDate;\n        c.servicesOffered = _servicesOffered;\n        emit DiagnosticCenterProfileUpdated(msg.sender);\n    }\n\n    function getReportsByCenter(address _center) public view returns (DiagnosticReport[] memory) {\n        require(msg.sender == _center, \"Not authorized\");\n        return reportsByCenter[_center];\n    }\n\n    function getReportFile(uint256 _reportId) public view returns (ReportFile memory) {\n        return reportFilesById[_reportId];\n    }\n\n    function canAccessReport(uint256 _reportId, address _user) public view returns (bool) {\n        ReportFile memory rf = reportFilesById[_reportId];\n        return (rf.patient == _user && rf.patientAccess) || (rf.doctor == _user && rf.doctorAccess);\n    }\n\n    function getServicesOffered(address _center) public view returns (string[] memory) {\n        return centers[_center].servicesOffered;\n    }\n\n    function getReportsForUser(address user) public view returns (DiagnosticReport[] memory) {\n        // Count how many reports are relevant\n        uint256 count = 0;\n        for (uint256 i = 0; i < nextReportId - 1; i++) {\n            ReportFile memory rf = reportFilesById[i+1];\n            if (rf.patient == user && rf.patientAccess) {\n                // Patient can always see their own reports\n                count++;\n            } else if (rf.doctor == user && rf.doctorAccess) {\n                // Doctor can only see reports if they have permission from the patient\n                if (patientContract != address(0)) {\n                    try IPatientContractForDiagnostic(patientContract).isDoctorPermitted(rf.patient, user) returns (bool hasPermission) {\n                        if (hasPermission) {\n                            count++;\n                        }\n                    } catch {\n                        // If permission check fails, don't count this report\n                    }\n                }\n            }\n        }\n        DiagnosticReport[] memory result = new DiagnosticReport[](count);\n        uint256 idx = 0;\n        for (uint256 i = 0; i < nextReportId - 1; i++) {\n            ReportFile memory rf = reportFilesById[i+1];\n            if (rf.patient == user && rf.patientAccess) {\n                // Patient can always see their own reports\n                // Find the report in the correct diagnostic center's reports\n                DiagnosticReport[] storage centerReports = reportsByCenter[rf.diagnosticCenter];\n                for (uint256 j = 0; j < centerReports.length; j++) {\n                    if (centerReports[j].reportId == rf.reportId) {\n                        result[idx] = centerReports[j];\n                        idx++;\n                        break;\n                    }\n                }\n            } else if (rf.doctor == user && rf.doctorAccess) {\n                // Doctor can only see reports if they have permission from the patient\n                if (patientContract != address(0)) {\n                    try IPatientContractForDiagnostic(patientContract).isDoctorPermitted(rf.patient, user) returns (bool hasPermission) {\n                        if (hasPermission) {\n                            // Find the report in the correct diagnostic center's reports\n                            DiagnosticReport[] storage centerReports = reportsByCenter[rf.diagnosticCenter];\n                            for (uint256 j = 0; j < centerReports.length; j++) {\n                                if (centerReports[j].reportId == rf.reportId) {\n                                    result[idx] = centerReports[j];\n                                    idx++;\n                                    break;\n                                }\n                            }\n                        }\n                    } catch {\n                        // If permission check fails, skip this report\n                    }\n                }\n            }\n        }\n        return result;\n    }\n\n    function getDiagnosticCenterName(address _center) public view returns (string memory) {\n        return centers[_center].name;\n    }\n\n    function getDiagnosticCenterFromReport(uint256 _reportId) public view returns (address) {\n        return reportFilesById[_reportId].diagnosticCenter;\n    }\n\n    function setPatientContract(address _patientContract) public {\n        patientContract = _patientContract;\n    }\n} ",
  "sourcePath": "D:\\Charusat University\\Material\\SEM-7\\Minor Project\\HealthEase\\contracts\\DiagnosticContract.sol",
  "compiler": {
    "name": "solc",
    "version": "0.8.26+commit.8a97fa7a.Emscripten.clang"
  },
  "schemaVersion": "3.4.16",
  "updatedAt": "2025-07-11T08:58:10.728Z",
  "networkType": "ethereum",
  "devdoc": {
    "kind": "dev",
    "methods": {},
    "version": 1
  },
  "userdoc": {
    "kind": "user",
    "methods": {},
    "version": 1
  }
}