{
  "contractName": "DoctorContract",
  "abi": [
    {
      "inputs": [
        {
          "internalType": "address",
          "name": "_ehrSystem",
          "type": "address"
        }
      ],
      "stateMutability": "nonpayable",
      "type": "constructor"
    },
    {
      "anonymous": false,
      "inputs": [
        {
          "indexed": true,
          "internalType": "address",
          "name": "doctor",
          "type": "address"
        },
        {
          "indexed": true,
          "internalType": "address",
          "name": "patient",
          "type": "address"
        },
        {
          "indexed": false,
          "internalType": "string",
          "name": "diagnosis",
          "type": "string"
        }
      ],
      "name": "ConsultancyReportCreated",
      "type": "event"
    },
    {
      "anonymous": false,
      "inputs": [
        {
          "indexed": true,
          "internalType": "address",
          "name": "wallet",
          "type": "address"
        }
      ],
      "name": "DoctorProfileSet",
      "type": "event"
    },
    {
      "anonymous": false,
      "inputs": [
        {
          "indexed": true,
          "internalType": "address",
          "name": "wallet",
          "type": "address"
        }
      ],
      "name": "DoctorProfileUpdated",
      "type": "event"
    },
    {
      "anonymous": false,
      "inputs": [
        {
          "indexed": true,
          "internalType": "address",
          "name": "wallet",
          "type": "address"
        },
        {
          "indexed": false,
          "internalType": "string",
          "name": "hNumber",
          "type": "string"
        },
        {
          "indexed": false,
          "internalType": "string",
          "name": "name",
          "type": "string"
        }
      ],
      "name": "DoctorRegistered",
      "type": "event"
    },
    {
      "anonymous": false,
      "inputs": [
        {
          "indexed": true,
          "internalType": "address",
          "name": "doctor",
          "type": "address"
        },
        {
          "indexed": true,
          "internalType": "address",
          "name": "patient",
          "type": "address"
        }
      ],
      "name": "PatientAccessGranted",
      "type": "event"
    },
    {
      "anonymous": false,
      "inputs": [
        {
          "indexed": true,
          "internalType": "address",
          "name": "doctor",
          "type": "address"
        },
        {
          "indexed": true,
          "internalType": "address",
          "name": "patient",
          "type": "address"
        }
      ],
      "name": "PatientAccessRevoked",
      "type": "event"
    },
    {
      "inputs": [
        {
          "internalType": "address",
          "name": "",
          "type": "address"
        },
        {
          "internalType": "uint256",
          "name": "",
          "type": "uint256"
        }
      ],
      "name": "consultancyReports",
      "outputs": [
        {
          "internalType": "address",
          "name": "patient",
          "type": "address"
        },
        {
          "internalType": "string",
          "name": "diagnosis",
          "type": "string"
        },
        {
          "internalType": "string",
          "name": "prescription",
          "type": "string"
        },
        {
          "internalType": "uint256",
          "name": "timestamp",
          "type": "uint256"
        }
      ],
      "stateMutability": "view",
      "type": "function",
      "constant": true
    },
    {
      "inputs": [
        {
          "internalType": "address",
          "name": "",
          "type": "address"
        }
      ],
      "name": "doctors",
      "outputs": [
        {
          "internalType": "address",
          "name": "wallet",
          "type": "address"
        },
        {
          "internalType": "string",
          "name": "hNumber",
          "type": "string"
        },
        {
          "internalType": "string",
          "name": "name",
          "type": "string"
        },
        {
          "internalType": "string",
          "name": "hospital",
          "type": "string"
        },
        {
          "internalType": "string",
          "name": "specialization",
          "type": "string"
        },
        {
          "internalType": "string",
          "name": "department",
          "type": "string"
        },
        {
          "internalType": "string",
          "name": "designation",
          "type": "string"
        },
        {
          "internalType": "uint256",
          "name": "experience",
          "type": "uint256"
        },
        {
          "internalType": "string",
          "name": "dateOfBirth",
          "type": "string"
        },
        {
          "internalType": "string",
          "name": "gender",
          "type": "string"
        },
        {
          "internalType": "string",
          "name": "email",
          "type": "string"
        },
        {
          "internalType": "string",
          "name": "passwordHash",
          "type": "string"
        },
        {
          "internalType": "bool",
          "name": "exists",
          "type": "bool"
        }
      ],
      "stateMutability": "view",
      "type": "function",
      "constant": true
    },
    {
      "inputs": [],
      "name": "ehrSystem",
      "outputs": [
        {
          "internalType": "address",
          "name": "",
          "type": "address"
        }
      ],
      "stateMutability": "view",
      "type": "function",
      "constant": true
    },
    {
      "inputs": [
        {
          "internalType": "string",
          "name": "",
          "type": "string"
        }
      ],
      "name": "hNumberToAddress",
      "outputs": [
        {
          "internalType": "address",
          "name": "",
          "type": "address"
        }
      ],
      "stateMutability": "view",
      "type": "function",
      "constant": true
    },
    {
      "inputs": [
        {
          "internalType": "address",
          "name": "",
          "type": "address"
        },
        {
          "internalType": "address",
          "name": "",
          "type": "address"
        }
      ],
      "name": "hasAccess",
      "outputs": [
        {
          "internalType": "bool",
          "name": "",
          "type": "bool"
        }
      ],
      "stateMutability": "view",
      "type": "function",
      "constant": true
    },
    {
      "inputs": [
        {
          "internalType": "address",
          "name": "",
          "type": "address"
        },
        {
          "internalType": "uint256",
          "name": "",
          "type": "uint256"
        }
      ],
      "name": "patientAccessList",
      "outputs": [
        {
          "internalType": "address",
          "name": "patient",
          "type": "address"
        },
        {
          "internalType": "uint256",
          "name": "grantedAt",
          "type": "uint256"
        },
        {
          "internalType": "bool",
          "name": "active",
          "type": "bool"
        }
      ],
      "stateMutability": "view",
      "type": "function",
      "constant": true
    },
    {
      "inputs": [],
      "name": "patientContract",
      "outputs": [
        {
          "internalType": "address",
          "name": "",
          "type": "address"
        }
      ],
      "stateMutability": "view",
      "type": "function",
      "constant": true
    },
    {
      "inputs": [
        {
          "internalType": "string",
          "name": "_hNumber",
          "type": "string"
        },
        {
          "internalType": "string",
          "name": "_name",
          "type": "string"
        },
        {
          "internalType": "string",
          "name": "_hospital",
          "type": "string"
        },
        {
          "internalType": "string",
          "name": "_specialization",
          "type": "string"
        },
        {
          "internalType": "string",
          "name": "_department",
          "type": "string"
        },
        {
          "internalType": "string",
          "name": "_designation",
          "type": "string"
        },
        {
          "internalType": "uint256",
          "name": "_experience",
          "type": "uint256"
        },
        {
          "internalType": "string",
          "name": "_dateOfBirth",
          "type": "string"
        },
        {
          "internalType": "string",
          "name": "_gender",
          "type": "string"
        },
        {
          "internalType": "string",
          "name": "_email",
          "type": "string"
        },
        {
          "internalType": "string",
          "name": "_passwordHash",
          "type": "string"
        }
      ],
      "name": "registerDoctor",
      "outputs": [],
      "stateMutability": "nonpayable",
      "type": "function"
    },
    {
      "inputs": [
        {
          "internalType": "string",
          "name": "_dateOfBirth",
          "type": "string"
        },
        {
          "internalType": "string",
          "name": "_gender",
          "type": "string"
        },
        {
          "internalType": "string",
          "name": "_email",
          "type": "string"
        },
        {
          "internalType": "string",
          "name": "_passwordHash",
          "type": "string"
        }
      ],
      "name": "setDoctorProfile",
      "outputs": [],
      "stateMutability": "nonpayable",
      "type": "function"
    },
    {
      "inputs": [
        {
          "internalType": "address",
          "name": "_patient",
          "type": "address"
        }
      ],
      "name": "addPatientAccess",
      "outputs": [],
      "stateMutability": "nonpayable",
      "type": "function"
    },
    {
      "inputs": [
        {
          "internalType": "address",
          "name": "_patient",
          "type": "address"
        }
      ],
      "name": "revokePatientAccess",
      "outputs": [],
      "stateMutability": "nonpayable",
      "type": "function"
    },
    {
      "inputs": [
        {
          "internalType": "address",
          "name": "_patient",
          "type": "address"
        },
        {
          "internalType": "string",
          "name": "_diagnosis",
          "type": "string"
        },
        {
          "internalType": "string",
          "name": "_prescription",
          "type": "string"
        }
      ],
      "name": "createConsultancyReport",
      "outputs": [],
      "stateMutability": "nonpayable",
      "type": "function"
    },
    {
      "inputs": [
        {
          "internalType": "string",
          "name": "_name",
          "type": "string"
        },
        {
          "internalType": "string",
          "name": "_hospital",
          "type": "string"
        },
        {
          "internalType": "string",
          "name": "_specialization",
          "type": "string"
        },
        {
          "internalType": "string",
          "name": "_department",
          "type": "string"
        },
        {
          "internalType": "string",
          "name": "_designation",
          "type": "string"
        },
        {
          "internalType": "uint256",
          "name": "_experience",
          "type": "uint256"
        },
        {
          "internalType": "string",
          "name": "_email",
          "type": "string"
        }
      ],
      "name": "updateProfile",
      "outputs": [],
      "stateMutability": "nonpayable",
      "type": "function"
    },
    {
      "inputs": [
        {
          "internalType": "address",
          "name": "_doctor",
          "type": "address"
        }
      ],
      "name": "getPatientAccessList",
      "outputs": [
        {
          "components": [
            {
              "internalType": "address",
              "name": "patient",
              "type": "address"
            },
            {
              "internalType": "uint256",
              "name": "grantedAt",
              "type": "uint256"
            },
            {
              "internalType": "bool",
              "name": "active",
              "type": "bool"
            }
          ],
          "internalType": "struct DoctorContract.PatientAccess[]",
          "name": "",
          "type": "tuple[]"
        }
      ],
      "stateMutability": "view",
      "type": "function",
      "constant": true
    },
    {
      "inputs": [
        {
          "internalType": "address",
          "name": "_doctor",
          "type": "address"
        }
      ],
      "name": "getConsultancyReports",
      "outputs": [
        {
          "components": [
            {
              "internalType": "address",
              "name": "patient",
              "type": "address"
            },
            {
              "internalType": "string",
              "name": "diagnosis",
              "type": "string"
            },
            {
              "internalType": "string",
              "name": "prescription",
              "type": "string"
            },
            {
              "internalType": "uint256",
              "name": "timestamp",
              "type": "uint256"
            }
          ],
          "internalType": "struct DoctorContract.ConsultancyReport[]",
          "name": "",
          "type": "tuple[]"
        }
      ],
      "stateMutability": "view",
      "type": "function",
      "constant": true
    },
    {
      "inputs": [
        {
          "internalType": "address",
          "name": "",
          "type": "address"
        }
      ],
      "name": "getConsultancyReportsForPatient",
      "outputs": [
        {
          "components": [
            {
              "internalType": "address",
              "name": "patient",
              "type": "address"
            },
            {
              "internalType": "string",
              "name": "diagnosis",
              "type": "string"
            },
            {
              "internalType": "string",
              "name": "prescription",
              "type": "string"
            },
            {
              "internalType": "uint256",
              "name": "timestamp",
              "type": "uint256"
            }
          ],
          "internalType": "struct DoctorContract.ConsultancyReport[]",
          "name": "",
          "type": "tuple[]"
        }
      ],
      "stateMutability": "pure",
      "type": "function",
      "constant": true
    },
    {
      "inputs": [
        {
          "internalType": "address",
          "name": "_doctor",
          "type": "address"
        },
        {
          "internalType": "address",
          "name": "_patient",
          "type": "address"
        }
      ],
      "name": "getConsultancyReportsForPatientByDoctor",
      "outputs": [
        {
          "components": [
            {
              "internalType": "address",
              "name": "patient",
              "type": "address"
            },
            {
              "internalType": "string",
              "name": "diagnosis",
              "type": "string"
            },
            {
              "internalType": "string",
              "name": "prescription",
              "type": "string"
            },
            {
              "internalType": "uint256",
              "name": "timestamp",
              "type": "uint256"
            }
          ],
          "internalType": "struct DoctorContract.ConsultancyReport[]",
          "name": "",
          "type": "tuple[]"
        }
      ],
      "stateMutability": "view",
      "type": "function",
      "constant": true
    },
    {
      "inputs": [
        {
          "internalType": "address",
          "name": "_doctor",
          "type": "address"
        },
        {
          "internalType": "address",
          "name": "_patient",
          "type": "address"
        }
      ],
      "name": "hasPatientAccess",
      "outputs": [
        {
          "internalType": "bool",
          "name": "",
          "type": "bool"
        }
      ],
      "stateMutability": "view",
      "type": "function",
      "constant": true
    },
    {
      "inputs": [
        {
          "internalType": "address",
          "name": "_patientContract",
          "type": "address"
        }
      ],
      "name": "setPatientContract",
      "outputs": [],
      "stateMutability": "nonpayable",
      "type": "function"
    },
    {
      "inputs": [
        {
          "internalType": "address",
          "name": "_doctor",
          "type": "address"
        },
        {
          "internalType": "address",
          "name": "_patient",
          "type": "address"
        }
      ],
      "name": "addPatientAccessFromPatient",
      "outputs": [],
      "stateMutability": "nonpayable",
      "type": "function"
    }
  ],
  "bytecode": "0x60806040523461002f57610019610014610116565b6101b3565b610021610034565b61320a6101c1823961320a90f35b61003a565b60405190565b600080fd5b601f801991011690565b7f4e487b7100000000000000000000000000000000000000000000000000000000600052604160045260246000fd5b906100829061003f565b810190811067ffffffffffffffff82111761009c57604052565b610049565b906100b46100ad610034565b9283610078565b565b600080fd5b600160a060020a031690565b6100d0906100bb565b90565b6100dc816100c7565b036100e357565b600080fd5b905051906100f5826100d3565b565b906020828203126101115761010e916000016100e8565b90565b6100b6565b6101346133cb80380380610129816100a1565b9283398101906100f7565b90565b60010290565b9061014f600160a060020a0391610137565b9181191691161790565b90565b61017061016b610175926100bb565b610159565b6100bb565b90565b6101819061015c565b90565b61018d90610178565b90565b90565b906101a86101a36101af92610184565b610190565b825461013d565b9055565b6101be906006610193565b56fe60806040526004361015610013575b6115c1565b61001e60003561015d565b806305e302fa146101585780631709ef07146101535780631cd739471461014e5780631f5f2f1a1461014957806327c192031461014457806367cf82441461013f57806368ff84c81461013a578063819b80c4146101355780638b87096d14610130578063a9583c221461012b578063bb5a52b414610126578063bd1067e614610121578063c645bf7b1461011c578063d33209c314610117578063da4f416114610112578063dc279f001461010d578063eff0126d14610108578063f20d07ac14610103578063f6e8e18f146100fe5763ff3c2b400361000e57611581565b6113ac565b611362565b611234565b611128565b6110f3565b610fe9565b610fb5565b610f16565b610e83565b610d96565b610a41565b61080b565b6107d2565b6105a5565b610572565b61053c565b610507565b61032b565b610212565b7c0100000000000000000000000000000000000000000000000000000000900490565b60405190565b600080fd5b600080fd5b600080fd5b73ffffffffffffffffffffffffffffffffffffffff1690565b6101b790610195565b90565b6101c3816101ae565b036101ca57565b600080fd5b905035906101dc826101ba565b565b919060408382031261020757806101fb61020492600086016101cf565b936020016101cf565b90565b61018b565b60000190565b346102415761022b6102253660046101de565b906119da565b610233610180565b8061023d8161020c565b0390f35b610186565b90565b61025d61025861026292610195565b610246565b610195565b90565b61026e90610249565b90565b61027a90610265565b90565b9061028790610271565b600052602052604060002090565b9061029f90610271565b600052602052604060002090565b60020a900490565b60ff1690565b6102cb9060086102d093026102ad565b6102b5565b90565b906102de91546102bb565b90565b6102fb610300926102f660049360009461027d565b610295565b6102d3565b90565b151590565b61031190610303565b9052565b919061032990600060208501940190610308565b565b3461035c576103586103476103413660046101de565b906102e1565b61034f610180565b91829182610315565b0390f35b610186565b9060208282031261037b57610378916000016101cf565b90565b61018b565b5190565b60209181520190565b60200190565b61039c906101ae565b9052565b5190565b60209181520190565b60005b8381106103c1575050906000910152565b8060209183015181850152016103b0565b601f801991011690565b6103fb610404602093610409936103f2816103a0565b938480936103a4565b958691016103ad565b6103d2565b0190565b90565b6104199061040d565b9052565b90610470906060806104656104536080850161044160008901516000880190610393565b602088015186820360208801526103dc565b604087015185820360408701526103dc565b940151910190610410565b90565b9061047d9161041d565b90565b60200190565b9061049a61049383610380565b8092610384565b90816104ab6020830284019461038d565b926000915b8383106104bf57505050505090565b909192939460206104e16104db83856001950387528951610473565b97610480565b93019301919392906104b0565b6105049160208201916000818403910152610486565b90565b346105375761053361052261051d366004610361565b611aee565b61052a610180565b918291826104ee565b0390f35b610186565b3461056d576105696105586105523660046101de565b90611c5e565b610560610180565b918291826104ee565b0390f35b610186565b346105a05761058a610585366004610361565b611ff8565b610592610180565b8061059c8161020c565b0390f35b610186565b346105d6576105d26105c16105bb3660046101de565b90612008565b6105c9610180565b91829182610315565b0390f35b610186565b6105e48161040d565b036105eb57565b600080fd5b905035906105fd826105db565b565b9190604083820312610628578061061c61062592600086016101cf565b936020016105f0565b90565b61018b565b9061063790610271565b600052602052604060002090565b7f4e487b7100000000000000000000000000000000000000000000000000000000600052603260045260246000fd5b5490565b600052602060002090565b61068c81610674565b8210156106a75761069e600391610678565b91020190600090565b610645565b6001900490565b73ffffffffffffffffffffffffffffffffffffffff1690565b6106d86106dd916106ac565b6106b3565b90565b6106ea90546106cc565b90565b90565b6106fc610701916106ac565b6106ed565b90565b61070e90546106f0565b90565b61071d610722916106ac565b6102b5565b90565b61072f9054610711565b90565b61073d90600361062d565b9061074782610674565b8110156107805761075791610683565b50610764600082016106e0565b9161077d600261077660018501610704565b9301610725565b90565b600080fd5b61078e906101ae565b9052565b61079b9061040d565b9052565b6040906107c96107d094969593966107bf60608401986000850190610785565b6020830190610792565b0190610308565b565b34610806576108026107ee6107e83660046105ff565b90610732565b6107f9939193610180565b9384938461079f565b0390f35b610186565b3461083b57610837610826610821366004610361565b6120ce565b61082e610180565b918291826104ee565b0390f35b610186565b600080fd5b600080fd5b7f4e487b7100000000000000000000000000000000000000000000000000000000600052604160045260246000fd5b90610883906103d2565b810190811067ffffffffffffffff82111761089d57604052565b61084a565b906108b56108ae610180565b9283610879565b565b67ffffffffffffffff81116108d5576108d16020916103d2565b0190565b61084a565b90826000939282370152565b909291926108fb6108f6826108b7565b6108a2565b9381855260208501908284011161091757610915926108da565b565b610845565b9080601f8301121561093a57816020610937933591016108e6565b90565b610840565b9060e082820312610a3c57600082013567ffffffffffffffff8111610a37578161096a91840161091c565b92602083013567ffffffffffffffff8111610a32578261098b91850161091c565b92604081013567ffffffffffffffff8111610a2d57836109ac91830161091c565b92606082013567ffffffffffffffff8111610a2857816109cd91840161091c565b92608083013567ffffffffffffffff8111610a2357826109ee91850161091c565b926109fc8360a083016105f0565b9260c082013567ffffffffffffffff8111610a1e57610a1b920161091c565b90565b610190565b610190565b610190565b610190565b610190565b610190565b61018b565b34610a7657610a60610a5436600461093f565b959490949391936123d6565b610a68610180565b80610a728161020c565b0390f35b610186565b90610a8590610271565b600052602052604060002090565b7f4e487b7100000000000000000000000000000000000000000000000000000000600052602260045260246000fd5b9060016002830492168015610ae2575b6020831014610add57565b610a93565b91607f1691610ad2565b600052602060002090565b9060009291805490610b12610b0b83610ac2565b80946103a4565b91600181169081600014610b6b5750600114610b2e575b505050565b610b3b9192939450610aec565b916000925b818410610b535750500190388080610b29565b60018160209295939554848601520191019290610b40565b92949550505060ff1916825215156020020190388080610b29565b90610b9091610af7565b90565b90610bb3610bac92610ba3610180565b93848092610b86565b0383610879565b565b610bc0906000610a7b565b610bcc600082016106e0565b91610bd960018301610b93565b91610be660028201610b93565b91610bf360038301610b93565b91610c0060048201610b93565b91610c0d60058301610b93565b91610c1a60068201610b93565b91610c2760078301610704565b91610c3460088201610b93565b91610c4160098301610b93565b91610c4e600a8201610b93565b91610c67600c610c60600b8501610b93565b9301610725565b90565b60209181520190565b610c92610c9b602093610ca093610c89816103a0565b93848093610c6a565b958691016103ad565b6103d2565b0190565b9d9c9a95610d949c988f93610d48610d7d9a610d3a6101809f9995610d8c9f97610d6e9c610d1e610d5099610d0f8d610d5f9f610d01610d2c9760e09d610cf46101a08601926000870190610785565b8482036020860152610c73565b916040818403910152610c73565b908d6060818403910152610c73565b908b820360808d0152610c73565b9089820360a08b0152610c73565b9087820360c0890152610c73565b940190610792565b8d610100818403910152610c73565b908b82036101208d0152610c73565b908982036101408b0152610c73565b90878203610160890152610c73565b940190610308565b565b34610dd657610dd2610db1610dac366004610361565b610bb5565b99610dc99d9b9d999199989298979397969496610180565b9d8e9d8e610ca4565b0390f35b610186565b90608082820312610e7e57600082013567ffffffffffffffff8111610e795781610e0691840161091c565b92602083013567ffffffffffffffff8111610e745782610e2791850161091c565b92604081013567ffffffffffffffff8111610e6f5783610e4891830161091c565b92606082013567ffffffffffffffff8111610e6a57610e67920161091c565b90565b610190565b610190565b610190565b610190565b61018b565b34610eb557610e9f610e96366004610ddb565b929190916124a0565b610ea7610180565b80610eb18161020c565b0390f35b610186565b6000910312610ec557565b61018b565b610eda906008610edf93026102ad565b6106b3565b90565b90610eed9154610eca565b90565b610efd6006600090610ee2565b90565b9190610f1490600060208501940190610785565b565b34610f4657610f26366004610eba565b610f42610f31610ef0565b610f39610180565b91829182610f00565b0390f35b610186565b91606083830312610fb057610f6382600085016101cf565b92602081013567ffffffffffffffff8111610fab5783610f8491830161091c565b92604082013567ffffffffffffffff8111610fa657610fa3920161091c565b90565b610190565b610190565b61018b565b34610fe457610fce610fc8366004610f4b565b91612763565b610fd6610180565b80610fe08161020c565b0390f35b610186565b3461101757611001610ffc366004610361565b6129a2565b611009610180565b806110138161020c565b0390f35b610186565b9060208282031261104d57600082013567ffffffffffffffff811161104857611045920161091c565b90565b610190565b61018b565b905090565b61107c6110739260209261106a816103a0565b94858093611052565b938491016103ad565b0190565b90565b61108f6110949161040d565b611080565b9052565b6110a86110af9160209493611057565b8092611083565b0190565b6110c76110be610180565b92839283611098565b03902090565b6110d6916110b3565b90565b6110f0906110eb6001916000926110cd565b610ee2565b90565b346111235761111f61110e61110936600461101c565b6110d9565b611116610180565b91829182610f00565b0390f35b610186565b346111565761114061113b366004610361565b6129ad565b611148610180565b806111528161020c565b0390f35b610186565b5190565b60209181520190565b60200190565b61117790610303565b9052565b906040806111b19361119560008201516000860190610393565b6111a760208201516020860190610410565b015191019061116e565b565b906111c08160609361117b565b0190565b60200190565b906111e76111e16111da8461115b565b809361115f565b92611168565b9060005b8181106111f85750505090565b90919261121161120b60019286516111b3565b946111c4565b91019190916111eb565b61123191602082019160008184039101526111ca565b90565b346112645761126061124f61124a366004610361565b612abb565b611257610180565b9182918261121b565b0390f35b610186565b9061127390610271565b600052602052604060002090565b5490565b600052602060002090565b61129981611281565b8210156112b4576112ab600491611285565b91020190600090565b610645565b6112c4906002611269565b906112ce82611281565b811015611315576112de91611290565b50906112ec600083016106e0565b916112f960018201610b93565b91611312600361130b60028501610b93565b9301610704565b90565b600080fd5b9493916113609361134a6060936113589361133d60808b019260008c0190610785565b89820360208b0152610c73565b908782036040890152610c73565b940190610792565b565b346113975761139361137e6113783660046105ff565b906112b9565b9061138a949294610180565b9485948561131a565b0390f35b610186565b6113a96005600090610ee2565b90565b346113dc576113bc366004610eba565b6113d86113c761139c565b6113cf610180565b91829182610f00565b0390f35b610186565b9190916101608184031261157c57600081013567ffffffffffffffff8111611577578361140f91830161091c565b92602082013567ffffffffffffffff8111611572578161143091840161091c565b92604083013567ffffffffffffffff811161156d578261145191850161091c565b92606081013567ffffffffffffffff8111611568578361147291830161091c565b92608082013567ffffffffffffffff8111611563578161149391840161091c565b9260a083013567ffffffffffffffff811161155e57826114b491850161091c565b926114c28360c083016105f0565b9260e082013567ffffffffffffffff811161155957816114e391840161091c565b9261010083013567ffffffffffffffff8111611554578261150591850161091c565b9261012081013567ffffffffffffffff811161154f578361152791830161091c565b9261014082013567ffffffffffffffff811161154a57611547920161091c565b90565b610190565b610190565b610190565b610190565b610190565b610190565b610190565b610190565b610190565b610190565b61018b565b346115bc576115a66115943660046113e1565b99989098979197969296959395612e9b565b6115ae610180565b806115b88161020c565b0390f35b610186565b600080fd5b60007f4f6e6c792050617469656e74436f6e7472616374000000000000000000000000910152565b6115fb6014602092610c6a565b611604816115c6565b0190565b61161e90602081019060008183039101526115ee565b90565b1561162857565b611630610180565b7f08c379a00000000000000000000000000000000000000000000000000000000081528061166060048201611608565b0390fd5b906116939161168e3361168861168261167d60056106e0565b6101ae565b916101ae565b14611621565b6118ea565b565b90565b6116a260606108a2565b90565b906116af906101ae565b9052565b906116bd9061040d565b9052565b906116cb90610303565b9052565b600052602060002090565b5490565b6116e7816116da565b821015611702576116f96003916116cf565b91020190600090565b610645565b7f4e487b7100000000000000000000000000000000000000000000000000000000600052600060045260246000fd5b61174090516101ae565b90565b60010290565b9061176873ffffffffffffffffffffffffffffffffffffffff91611743565b9181191691161790565b90565b9061178a61178561179192610271565b611772565b8254611749565b9055565b61179f905161040d565b90565b906117af60001991611743565b9181191691161790565b6117cd6117c86117d29261040d565b610246565b61040d565b90565b90565b906117ed6117e86117f4926117b9565b6117d5565b82546117a2565b9055565b6118029051610303565b90565b9061181160ff91611743565b9181191691161790565b61182490610303565b90565b90565b9061183f61183a6118469261181b565b611827565b8254611805565b9055565b90611890604060026118969461186f6000820161186960008801611736565b90611775565b6118886001820161188260208801611795565b906117d8565b0192016117f8565b9061182a565b565b91906118a9576118a79161184a565b565b611707565b60020a0290565b90815491680100000000000000008310156118e557826118dd9160016118e3950181556116de565b90611898565b565b61084a565b61191161190b6119066118ff6004859061027d565b8590610295565b610725565b15610303565b61191a575b5050565b61196961193161192c6003849061062d565b611695565b83906119644261195b600191611952611948611698565b96600088016116a5565b602086016116b3565b604084016116c1565b6118b5565b611989600161198461197d6004859061027d565b8590610295565b61182a565b906119bd6119b77fa8d30211503e661fc2de68b2101d6be49294343e7f07c162a69eff23898ef0c193610271565b91610271565b916119c6610180565b806119d08161020c565b0390a33880611916565b906119e491611664565b565b606090565b90565b611a026119fd611a07926119eb565b610246565b61040d565b90565b67ffffffffffffffff8111611a225760208091020190565b61084a565b90611a39611a3483611a0a565b6108a2565b918252565b611a4860806108a2565b90565b600090565b606090565b600090565b611a62611a3e565b90602080808085611a71611a4b565b815201611a7c611a50565b815201611a87611a50565b815201611a92611a55565b81525050565b611aa0611a5a565b90565b60005b828110611ab257505050565b602090611abd611a98565b8184015201611aa6565b90611aec611ad483611a27565b92602080611ae28693611a0a565b9201910390611aa3565b565b50611af76119e6565b50611b0a611b0560006119ee565b611ac7565b90565b52565b90611b79611b706003611b21611a3e565b94611b3a611b31600083016106e0565b600088016116a5565b611b52611b4960018301610b93565b60208801611b0d565b611b6a611b6160028301610b93565b60408801611b0d565b01610704565b606084016116b3565b565b611b8490611b10565b90565b90611b9182611281565b611b9a81611a27565b92611ba86020850191611285565b6000915b838310611bb95750505050565b60046020600192611bc985611b7b565b815201920192019190611bac565b611be090611b87565b90565b6001611bef910161040d565b90565b90611bfc82610380565b811015611c0d576020809102010190565b610645565b7f4e487b7100000000000000000000000000000000000000000000000000000000600052601160045260246000fd5b611c4a9061040d565b6000198114611c595760010190565b611c12565b611c78611c7d91939293611c706119e6565b506002611269565b611bd7565b611c8e611c8982610380565b611ac7565b90611c9960006119ee565b90611ca460006119ee565b5b80611cc0611cba611cb585610380565b61040d565b9161040d565b1015611d3c57611cdd6000611cd6848490611bf2565b5101611736565b611cef611ce9886101ae565b916101ae565b14611d03575b611cfe90611be3565b611ca5565b91611d34611cfe91611d2d611d19858790611bf2565b51878391611d278383611bf2565b52611bf2565b5150611c41565b929050611cf5565b50509250611d4983611ac7565b91611d5460006119ee565b5b80611d68611d628761040d565b9161040d565b1015611da057611d9b90611d94611d80858390611bf2565b51868391611d8e8383611bf2565b52611bf2565b5150611be3565b611d55565b5092505090565b60007f4e6f742061207265676973746572656420646f63746f72000000000000000000910152565b611ddc6017602092610c6a565b611de581611da7565b0190565b611dff9060208101906000818303910152611dcf565b90565b15611e0957565b611e11610180565b7f08c379a000000000000000000000000000000000000000000000000000000000815280611e4160048201611de9565b0390fd5b611e6d90611e68611e63600c611e5d60003390610a7b565b01610725565b611e02565b611f0d565b565b60007f416c726561647920686173206163636573730000000000000000000000000000910152565b611ea46012602092610c6a565b611ead81611e6f565b0190565b611ec79060208101906000818303910152611e97565b90565b15611ed157565b611ed9610180565b7f08c379a000000000000000000000000000000000000000000000000000000000815280611f0960048201611eb1565b0390fd5b611f3c611f37611f31611f2c611f256004339061027d565b8590610295565b610725565b15610303565b611eca565b611f8b611f53611f4e6003339061062d565b611695565b8290611f8642611f7d600191611f74611f6a611698565b96600088016116a5565b602086016116b3565b604084016116c1565b6118b5565b611fab6001611fa6611f9f6004339061027d565b8490610295565b61182a565b3390611fe0611fda7fa8d30211503e661fc2de68b2101d6be49294343e7f07c162a69eff23898ef0c193610271565b91610271565b91611fe9610180565b80611ff38161020c565b0390a3565b61200190611e45565b565b600090565b61202d916120236120289261201b612003565b50600461027d565b610295565b610725565b90565b60007f4e6f7420617574686f72697a6564000000000000000000000000000000000000910152565b612065600e602092610c6a565b61206e81612030565b0190565b6120889060208101906000818303910152612058565b90565b1561209257565b61209a610180565b7f08c379a0000000000000000000000000000000000000000000000000000000008152806120ca60048201612072565b0390fd5b612101612106916120dd6119e6565b506120fa336120f46120ee846101ae565b916101ae565b1461208b565b6002611269565b611bd7565b90565b9061213796959493929161213261212d600c61212760003390610a7b565b01610725565b611e02565b612323565b565b90565b601f602091010490565b9190600861216291029161215c600019846118ae565b926118ae565b9181191691161790565b919061218261217d61218a936117b9565b6117d5565b908354612146565b9055565b600090565b6121a59161219f61218e565b9161216c565b565b5b8181106121b3575050565b806121c16000600193612193565b016121a8565b9190601f81116121d7575b505050565b6121e361220893610aec565b9060206121ef8461213c565b83019310612210575b6122019061213c565b01906121a7565b3880806121d2565b9150612201819290506121f8565b9061222f90600019906008026102ad565b191690565b8161223e9161221e565b906002021790565b90612250816103a0565b9067ffffffffffffffff8211612312576122748261226e8554610ac2565b856121c7565b602090601f83116001146122a9579180916122989360009261229d575b5050612234565b90555b565b90915001513880612291565b601f198316916122b885610aec565b9260005b8181106122fa575091600293918560019694106122e0575b5050500201905561229b565b6122f0910151601f84169061221e565b90553880806122d4565b919360206001819287870151815501950192016122bc565b61084a565b9061232191612246565b565b600a9461237a612393989561237161238c9661236860029b9761235f6123839861235761235260003390610a7b565b612139565b9e8f01612317565b60038d01612317565b60048b01612317565b60058901612317565b60068701612317565b600785016117d8565b9101612317565b336123be7ff73da297867c7106fa124ea41a6048af13b01fd08d8ec66da7001ddedfab396191610271565b906123c7610180565b806123d18161020c565b0390a2565b906123e5969594939291612109565b565b9061241293929161240d612408600c61240260003390610a7b565b01610725565b611e02565b612414565b565b919261245661245d9461244d600b9461244461243a61243560003390610a7b565b612139565b9760088901612317565b60098701612317565b600a8501612317565b9101612317565b336124887f383f5bdc1e7957128976e6875617ab090b46911ad2a5ff20d6ebc2cd480605b191610271565b90612491610180565b8061249b8161020c565b0390a2565b906124ac9392916123e7565b565b906124d892916124d36124ce600c6124c860003390610a7b565b01610725565b611e02565b61268f565b565b60007f4e6f2061636365737320746f2070617469656e74000000000000000000000000910152565b61250f6014602092610c6a565b612518816124da565b0190565b6125329060208101906000818303910152612502565b90565b1561253c57565b612544610180565b7f08c379a0000000000000000000000000000000000000000000000000000000008152806125746004820161251c565b0390fd5b90565b61258560806108a2565b90565b600052602060002090565b5490565b6125a081612593565b8210156125bb576125b2600491612588565b91020190600090565b610645565b5190565b9061262360606003612629946125e9600082016125e360008801611736565b90611775565b612602600182016125fc602088016125c0565b90612317565b61261b60028201612615604088016125c0565b90612317565b019201611795565b906117d8565b565b919061263c5761263a916125c4565b565b611707565b9081549168010000000000000000831015612671578261266991600161266f95018155612597565b9061262b565b565b61084a565b61268c9160208201916000818403910152610c73565b90565b91612712906126ba6126b56126b06126a96004339061027d565b8790610295565b610725565b612535565b6126ce6126c960023390611269565b612578565b61270d859261270486916126fb42936126f26126e861257b565b9860008a016116a5565b60208801611b0d565b60408601611b0d565b606084016116b3565b612641565b3391909161275e61274c6127467f1a213f74e69c9de38d78c4843051e674057a5f86ebf2b19b04555909e4e86e7293610271565b93610271565b93612755610180565b91829182612676565b0390a3565b9061276e92916124ae565b565b6127989061279361278e600c61278860003390610a7b565b01610725565b611e02565b612838565b565b60007f4e6f2061636365737320746f207265766f6b6500000000000000000000000000910152565b6127cf6013602092610c6a565b6127d88161279a565b0190565b6127f290602081019060008183039101526127c2565b90565b156127fc57565b612804610180565b7f08c379a000000000000000000000000000000000000000000000000000000000815280612834600482016127dc565b0390fd5b61285e61285961285461284d6004339061027d565b8490610295565b610725565b6127f5565b61287e60006128796128726004339061027d565b8490610295565b61182a565b61288860006119ee565b5b806128af6128a96128a461289f6003339061062d565b610674565b61040d565b9161040d565b1015612954576128fe906128db60006128d46128cd6003339061062d565b8490610683565b50016106e0565b6128ed6128e7856101ae565b916101ae565b148061292c575b612903575b611be3565b612889565b612927600060026129206129196003339061062d565b8590610683565b500161182a565b6128f9565b5061294f60026129486129416003339061062d565b8490610683565b5001610725565b6128f4565b50339061298a6129847f6869da424d3514d77420cdfa92bf9041b88dc6c70941bd7446fb7f013f95ddf193610271565b91610271565b91612993610180565b8061299d8161020c565b0390a3565b6129ab90612770565b565b6129b8906005611775565b565b606090565b67ffffffffffffffff81116129d75760208091020190565b61084a565b906129ee6129e9836129bf565b6108a2565b918252565b6129fd60606108a2565b90565b90612a51612a486002612a116129f3565b94612a2a612a21600083016106e0565b600088016116a5565b612a42612a3960018301610704565b602088016116b3565b01610725565b604084016116c1565b565b612a5c90612a00565b90565b90612a6982610674565b612a72816129dc565b92612a806020850191610678565b6000915b838310612a915750505050565b60036020600192612aa185612a53565b815201920192019190612a84565b612ab890612a5f565b90565b612aee612af391612aca6129ba565b50612ae733612ae1612adb846101ae565b916101ae565b1461208b565b600361062d565b612aaf565b90565b60007f416c726561647920726567697374657265640000000000000000000000000000910152565b612b2b6012602092610c6a565b612b3481612af6565b0190565b612b4e9060208101906000818303910152612b1e565b90565b15612b5857565b612b60610180565b7f08c379a000000000000000000000000000000000000000000000000000000000815280612b9060048201612b38565b0390fd5b612b9d90610249565b90565b612ba990612b94565b90565b612bb590610265565b90565b600080fd5b7c01000000000000000000000000000000000000000000000000000000000290565b612be881610303565b03612bef57565b600080fd5b90505190612c0182612bdf565b565b90602082820312612c1d57612c1a91600001612bf4565b90565b61018b565b612c2a610180565b3d6000823e3d90fd5b60007f48204e756d62657220616c726561647920757365640000000000000000000000910152565b612c686015602092610c6a565b612c7181612c33565b0190565b612c8b9060208101906000818303910152612c5b565b90565b15612c9557565b612c9d610180565b7f08c379a000000000000000000000000000000000000000000000000000000000815280612ccd60048201612c75565b0390fd5b612cdc6101a06108a2565b90565b90612e24610180600c612e2a94612d0560008201612cff60008801611736565b90611775565b612d1e60018201612d18602088016125c0565b90612317565b612d3760028201612d31604088016125c0565b90612317565b612d5060038201612d4a606088016125c0565b90612317565b612d6960048201612d63608088016125c0565b90612317565b612d8260058201612d7c60a088016125c0565b90612317565b612d9b60068201612d9560c088016125c0565b90612317565b612db460078201612dae60e08801611795565b906117d8565b612dce60088201612dc861010088016125c0565b90612317565b612de860098201612de261012088016125c0565b90612317565b612e02600a8201612dfc61014088016125c0565b90612317565b612e1c600b8201612e1661016088016125c0565b90612317565b0192016117f8565b9061182a565b565b90612e3691612cdf565b565b6000910312612e4357565b61018b565b92916020612e65612e6d9360408701908782036000890152610c73565b940190610785565b565b9091612e8a612e989360408401908482036000860152610c73565b916020818403910152610c73565b90565b98939792969195909994612ecd612ec8612ec2600c612ebc60003390610a7b565b01610725565b15610303565b612b51565b612f1460208b612eed612ee8612ee360066106e0565b612ba0565b612bac565b612f096348a6fc00612efd610180565b95869485938493612bbd565b835260048301612676565b03915afa9081156131cf576000916131a1575b5015612f3290610303565b612f3b90612c8e565b33988a988c9890919293949596979860019a612f55612cd1565b9c60008e0190612f64916116a5565b60208d0190612f7291611b0d565b60408c0190612f8091611b0d565b60608b0190612f8e91611b0d565b60808a0190612f9c91611b0d565b60a0890190612faa91611b0d565b60c0880190612fb891611b0d565b60e0870190612fc6916116b3565b610100860190612fd591611b0d565b610120850190612fe491611b0d565b610140840190612ff391611b0d565b61016083019061300291611b0d565b610180820190613011916116c1565b60003361301d91610a7b565b9061302791612e2c565b61303160066106e0565b61303a90612ba0565b61304390612bac565b639eb89250823392803b1561319c576130706000809461307b613064610180565b97889687958694612bbd565b845260048401612e48565b03925af180156131975761316a575b506130a56130a061309b60066106e0565b612ba0565b612bac565b634780468f33823b15613165576130dc926130d1600080946130c5610180565b96879586948593612bbd565b835260048301610f00565b03925af1801561316057613133575b503390916131197fbc3a5b2aeb1bc52e3d56d3fd3423dd66cea5ecff8ae1f3bd0d75a0e608da7b8592610271565b9261312e613125610180565b92839283612e6f565b0390a2565b6131539060003d8111613159575b61314b8183610879565b810190612e38565b386130eb565b503d613141565b612c22565b612bb8565b61318a9060003d8111613190575b6131828183610879565b810190612e38565b3861308a565b503d613178565b612c22565b612bb8565b6131c2915060203d81116131c8575b6131ba8183610879565b810190612c03565b38612f27565b503d6131b0565b612c2256fea2646970667358221220d897c177decaaafc3e69ba472634fda0395bf855ff92fdc33677384869afc33e64736f6c634300081a0033",
  "immutableReferences": {},
  "source": "// SPDX-License-Identifier: MIT\npragma solidity ^0.8.26;\n\ninterface IEHRSystemForDoctor {\n    function addDoctor(address _doctor) external;\n    function isHNumberUsed(string memory _hNumber) external view returns (bool);\n    function registerHNumber(string memory _hNumber, address _doctor) external;\n}\n\ncontract DoctorContract {\n    struct Doctor {\n        address wallet;\n        string hNumber;\n        string name;\n        string hospital;\n        string specialization;\n        string department;\n        string designation;\n        uint256 experience;\n        string dateOfBirth;\n        string gender;\n        string email;\n        string passwordHash;\n        bool exists;\n    }\n\n    struct ProfessionalProfile {\n        string department;\n        string designation;\n        string credentials;\n        string workHistory;\n    }\n\n    struct ConsultancyReport {\n        address patient;\n        string diagnosis;\n        string prescription;\n        uint256 timestamp;\n    }\n\n    struct PatientAccess {\n        address patient;\n        uint256 grantedAt;\n        bool active;\n    }\n\n    mapping(address => Doctor) public doctors;\n    mapping(string => address) public hNumberToAddress;\n    mapping(address => ConsultancyReport[]) public consultancyReports;\n    mapping(address => PatientAccess[]) public patientAccessList; // doctor => list of patients\n    mapping(address => mapping(address => bool)) public hasAccess; // doctor => patient => access\n\n    event DoctorRegistered(address indexed wallet, string hNumber, string name);\n    event DoctorProfileSet(address indexed wallet);\n    event ConsultancyReportCreated(address indexed doctor, address indexed patient, string diagnosis);\n    event PatientAccessGranted(address indexed doctor, address indexed patient);\n    event PatientAccessRevoked(address indexed doctor, address indexed patient);\n    event DoctorProfileUpdated(address indexed wallet);\n\n    address public patientContract;\n    address public ehrSystem;\n\n    constructor(address _ehrSystem) {\n        ehrSystem = _ehrSystem;\n    }\n\n    modifier onlyDoctor() {\n        require(doctors[msg.sender].exists, \"Not a registered doctor\");\n        _;\n    }\n\n    modifier onlyPatientContract() {\n        require(msg.sender == patientContract, \"Only PatientContract\");\n        _;\n    }\n\n    function registerDoctor(\n        string memory _hNumber,\n        string memory _name,\n        string memory _hospital,\n        string memory _specialization,\n        string memory _department,\n        string memory _designation,\n        uint256 _experience,\n        string memory _dateOfBirth,\n        string memory _gender,\n        string memory _email,\n        string memory _passwordHash\n    ) public {\n        require(!doctors[msg.sender].exists, \"Already registered\");\n        require(!IEHRSystemForDoctor(ehrSystem).isHNumberUsed(_hNumber), \"H Number already used\");\n        doctors[msg.sender] = Doctor({\n            wallet: msg.sender,\n            hNumber: _hNumber,\n            name: _name,\n            hospital: _hospital,\n            specialization: _specialization,\n            department: _department,\n            designation: _designation,\n            experience: _experience,\n            dateOfBirth: _dateOfBirth,\n            gender: _gender,\n            email: _email,\n            passwordHash: _passwordHash,\n            exists: true\n        });\n        IEHRSystemForDoctor(ehrSystem).registerHNumber(_hNumber, msg.sender);\n        // Automatically register with EHRSystem\n        IEHRSystemForDoctor(ehrSystem).addDoctor(msg.sender);\n        emit DoctorRegistered(msg.sender, _hNumber, _name);\n    }\n\n    function setDoctorProfile(\n        string memory _dateOfBirth,\n        string memory _gender,\n        string memory _email,\n        string memory _passwordHash\n    ) public onlyDoctor {\n        Doctor storage d = doctors[msg.sender];\n        d.dateOfBirth = _dateOfBirth;\n        d.gender = _gender;\n        d.email = _email;\n        d.passwordHash = _passwordHash;\n        emit DoctorProfileSet(msg.sender);\n    }\n\n    function addPatientAccess(address _patient) public onlyDoctor {\n        require(!hasAccess[msg.sender][_patient], \"Already has access\");\n        patientAccessList[msg.sender].push(PatientAccess({\n            patient: _patient,\n            grantedAt: block.timestamp,\n            active: true\n        }));\n        hasAccess[msg.sender][_patient] = true;\n        emit PatientAccessGranted(msg.sender, _patient);\n    }\n\n    function revokePatientAccess(address _patient) public onlyDoctor {\n        require(hasAccess[msg.sender][_patient], \"No access to revoke\");\n        hasAccess[msg.sender][_patient] = false;\n        for (uint i = 0; i < patientAccessList[msg.sender].length; i++) {\n            if (patientAccessList[msg.sender][i].patient == _patient && patientAccessList[msg.sender][i].active) {\n                patientAccessList[msg.sender][i].active = false;\n            }\n        }\n        emit PatientAccessRevoked(msg.sender, _patient);\n    }\n\n    function createConsultancyReport(address _patient, string memory _diagnosis, string memory _prescription) public onlyDoctor {\n        require(hasAccess[msg.sender][_patient], \"No access to patient\");\n        consultancyReports[msg.sender].push(ConsultancyReport({\n            patient: _patient,\n            diagnosis: _diagnosis,\n            prescription: _prescription,\n            timestamp: block.timestamp\n        }));\n        emit ConsultancyReportCreated(msg.sender, _patient, _diagnosis);\n    }\n\n    function updateProfile(\n        string memory _name,\n        string memory _hospital,\n        string memory _specialization,\n        string memory _department,\n        string memory _designation,\n        uint256 _experience,\n        string memory _email\n    ) public onlyDoctor {\n        Doctor storage d = doctors[msg.sender];\n        d.name = _name;\n        d.hospital = _hospital;\n        d.specialization = _specialization;\n        d.department = _department;\n        d.designation = _designation;\n        d.experience = _experience;\n        d.email = _email;\n        emit DoctorProfileUpdated(msg.sender);\n    }\n\n    function getPatientAccessList(address _doctor) public view returns (PatientAccess[] memory) {\n        require(msg.sender == _doctor, \"Not authorized\");\n        return patientAccessList[_doctor];\n    }\n\n    function getConsultancyReports(address _doctor) public view returns (ConsultancyReport[] memory) {\n        require(msg.sender == _doctor, \"Not authorized\");\n        return consultancyReports[_doctor];\n    }\n\n    function getConsultancyReportsForPatient(address) public pure returns (ConsultancyReport[] memory) {\n        // This function is not currently used - returning empty array\n        // In a real implementation, you might want to use events or a different data structure\n        return new ConsultancyReport[](0);\n    }\n\n    function getConsultancyReportsForPatientByDoctor(address _doctor, address _patient) public view returns (ConsultancyReport[] memory) {\n        // Patients can always see reports created for them, regardless of current access status\n        // This ensures medical history is preserved even after revoking permissions\n        \n        ConsultancyReport[] memory allReports = consultancyReports[_doctor];\n        ConsultancyReport[] memory patientReports = new ConsultancyReport[](allReports.length);\n        uint256 patientReportCount = 0;\n        \n        for (uint256 i = 0; i < allReports.length; i++) {\n            if (allReports[i].patient == _patient) {\n                patientReports[patientReportCount] = allReports[i];\n                patientReportCount++;\n            }\n        }\n        \n        // Create a properly sized array\n        ConsultancyReport[] memory result = new ConsultancyReport[](patientReportCount);\n        for (uint256 i = 0; i < patientReportCount; i++) {\n            result[i] = patientReports[i];\n        }\n        \n        return result;\n    }\n\n    function hasPatientAccess(address _doctor, address _patient) public view returns (bool) {\n        return hasAccess[_doctor][_patient];\n    }\n\n    function setPatientContract(address _patientContract) external {\n        // Add onlyOwner if you want to restrict\n        patientContract = _patientContract;\n    }\n\n    function addPatientAccessFromPatient(address _doctor, address _patient) external onlyPatientContract {\n        if (!hasAccess[_doctor][_patient]) {\n            patientAccessList[_doctor].push(PatientAccess({\n                patient: _patient,\n                grantedAt: block.timestamp,\n                active: true\n            }));\n            hasAccess[_doctor][_patient] = true;\n            emit PatientAccessGranted(_doctor, _patient);\n        }\n    }\n} ",
  "sourcePath": "D:\\Charusat University\\Material\\SEM-7\\Minor Project\\health-ease\\contracts\\DoctorContract.sol",
  "compiler": {
    "name": "solc",
    "version": "0.8.26+commit.8a97fa7a.Emscripten.clang"
  },
  "schemaVersion": "3.4.16",
  "updatedAt": "2025-08-15T14:42:56.890Z",
  "networkType": "ethereum",
  "devdoc": {
    "kind": "dev",
    "methods": {},
    "version": 1
  },
  "userdoc": {
    "kind": "user",
    "methods": {},
    "version": 1
  }
}