{
  "contractName": "EHRSystem",
  "abi": [
    {
      "inputs": [
        {
          "internalType": "address",
          "name": "_patientContract",
          "type": "address"
        },
        {
          "internalType": "address",
          "name": "_doctorContract",
          "type": "address"
        },
        {
          "internalType": "address",
          "name": "_diagnosticContract",
          "type": "address"
        }
      ],
      "stateMutability": "nonpayable",
      "type": "constructor"
    },
    {
      "anonymous": false,
      "inputs": [
        {
          "indexed": true,
          "internalType": "address",
          "name": "user",
          "type": "address"
        },
        {
          "indexed": false,
          "internalType": "string",
          "name": "action",
          "type": "string"
        }
      ],
      "name": "AuditLogged",
      "type": "event"
    },
    {
      "anonymous": false,
      "inputs": [
        {
          "indexed": true,
          "internalType": "address",
          "name": "from",
          "type": "address"
        },
        {
          "indexed": true,
          "internalType": "address",
          "name": "to",
          "type": "address"
        },
        {
          "indexed": false,
          "internalType": "enum EHRSystem.Role",
          "name": "fromRole",
          "type": "uint8"
        },
        {
          "indexed": false,
          "internalType": "enum EHRSystem.Role",
          "name": "toRole",
          "type": "uint8"
        }
      ],
      "name": "PermissionGranted",
      "type": "event"
    },
    {
      "anonymous": false,
      "inputs": [
        {
          "indexed": true,
          "internalType": "address",
          "name": "from",
          "type": "address"
        },
        {
          "indexed": true,
          "internalType": "address",
          "name": "to",
          "type": "address"
        },
        {
          "indexed": false,
          "internalType": "enum EHRSystem.Role",
          "name": "fromRole",
          "type": "uint8"
        },
        {
          "indexed": false,
          "internalType": "enum EHRSystem.Role",
          "name": "toRole",
          "type": "uint8"
        }
      ],
      "name": "PermissionRevoked",
      "type": "event"
    },
    {
      "anonymous": false,
      "inputs": [
        {
          "indexed": true,
          "internalType": "address",
          "name": "wallet",
          "type": "address"
        },
        {
          "indexed": false,
          "internalType": "string",
          "name": "hNumber",
          "type": "string"
        },
        {
          "indexed": false,
          "internalType": "enum EHRSystem.Role",
          "name": "role",
          "type": "uint8"
        }
      ],
      "name": "UserRegistered",
      "type": "event"
    },
    {
      "inputs": [
        {
          "internalType": "uint256",
          "name": "",
          "type": "uint256"
        }
      ],
      "name": "allDoctors",
      "outputs": [
        {
          "internalType": "address",
          "name": "",
          "type": "address"
        }
      ],
      "stateMutability": "view",
      "type": "function",
      "constant": true
    },
    {
      "inputs": [
        {
          "internalType": "uint256",
          "name": "",
          "type": "uint256"
        }
      ],
      "name": "allPatients",
      "outputs": [
        {
          "internalType": "address",
          "name": "",
          "type": "address"
        }
      ],
      "stateMutability": "view",
      "type": "function",
      "constant": true
    },
    {
      "inputs": [
        {
          "internalType": "uint256",
          "name": "",
          "type": "uint256"
        }
      ],
      "name": "auditLogs",
      "outputs": [
        {
          "internalType": "address",
          "name": "user",
          "type": "address"
        },
        {
          "internalType": "string",
          "name": "action",
          "type": "string"
        },
        {
          "internalType": "uint256",
          "name": "timestamp",
          "type": "uint256"
        }
      ],
      "stateMutability": "view",
      "type": "function",
      "constant": true
    },
    {
      "inputs": [],
      "name": "diagnosticContract",
      "outputs": [
        {
          "internalType": "address",
          "name": "",
          "type": "address"
        }
      ],
      "stateMutability": "view",
      "type": "function",
      "constant": true
    },
    {
      "inputs": [],
      "name": "doctorContract",
      "outputs": [
        {
          "internalType": "address",
          "name": "",
          "type": "address"
        }
      ],
      "stateMutability": "view",
      "type": "function",
      "constant": true
    },
    {
      "inputs": [
        {
          "internalType": "address",
          "name": "",
          "type": "address"
        },
        {
          "internalType": "uint256",
          "name": "",
          "type": "uint256"
        }
      ],
      "name": "doctorToPermittedPatients",
      "outputs": [
        {
          "internalType": "address",
          "name": "",
          "type": "address"
        }
      ],
      "stateMutability": "view",
      "type": "function",
      "constant": true
    },
    {
      "inputs": [
        {
          "internalType": "string",
          "name": "",
          "type": "string"
        }
      ],
      "name": "hNumberToAddress",
      "outputs": [
        {
          "internalType": "address",
          "name": "",
          "type": "address"
        }
      ],
      "stateMutability": "view",
      "type": "function",
      "constant": true
    },
    {
      "inputs": [],
      "name": "owner",
      "outputs": [
        {
          "internalType": "address",
          "name": "",
          "type": "address"
        }
      ],
      "stateMutability": "view",
      "type": "function",
      "constant": true
    },
    {
      "inputs": [],
      "name": "patientContract",
      "outputs": [
        {
          "internalType": "address",
          "name": "",
          "type": "address"
        }
      ],
      "stateMutability": "view",
      "type": "function",
      "constant": true
    },
    {
      "inputs": [
        {
          "internalType": "address",
          "name": "",
          "type": "address"
        },
        {
          "internalType": "address",
          "name": "",
          "type": "address"
        }
      ],
      "name": "patientDoctorPermission",
      "outputs": [
        {
          "internalType": "bool",
          "name": "",
          "type": "bool"
        }
      ],
      "stateMutability": "view",
      "type": "function",
      "constant": true
    },
    {
      "inputs": [
        {
          "internalType": "uint256",
          "name": "",
          "type": "uint256"
        }
      ],
      "name": "permissions",
      "outputs": [
        {
          "internalType": "address",
          "name": "from",
          "type": "address"
        },
        {
          "internalType": "address",
          "name": "to",
          "type": "address"
        },
        {
          "internalType": "enum EHRSystem.Role",
          "name": "fromRole",
          "type": "uint8"
        },
        {
          "internalType": "enum EHRSystem.Role",
          "name": "toRole",
          "type": "uint8"
        },
        {
          "internalType": "bool",
          "name": "granted",
          "type": "bool"
        },
        {
          "internalType": "uint256",
          "name": "timestamp",
          "type": "uint256"
        }
      ],
      "stateMutability": "view",
      "type": "function",
      "constant": true
    },
    {
      "inputs": [
        {
          "internalType": "address",
          "name": "",
          "type": "address"
        }
      ],
      "name": "users",
      "outputs": [
        {
          "internalType": "address",
          "name": "wallet",
          "type": "address"
        },
        {
          "internalType": "string",
          "name": "hNumber",
          "type": "string"
        },
        {
          "internalType": "enum EHRSystem.Role",
          "name": "role",
          "type": "uint8"
        },
        {
          "internalType": "bool",
          "name": "exists",
          "type": "bool"
        }
      ],
      "stateMutability": "view",
      "type": "function",
      "constant": true
    },
    {
      "inputs": [
        {
          "internalType": "string",
          "name": "_hNumber",
          "type": "string"
        },
        {
          "internalType": "enum EHRSystem.Role",
          "name": "_role",
          "type": "uint8"
        }
      ],
      "name": "registerUser",
      "outputs": [],
      "stateMutability": "nonpayable",
      "type": "function"
    },
    {
      "inputs": [
        {
          "internalType": "address",
          "name": "_to",
          "type": "address"
        },
        {
          "internalType": "enum EHRSystem.Role",
          "name": "_toRole",
          "type": "uint8"
        }
      ],
      "name": "grantPermission",
      "outputs": [],
      "stateMutability": "nonpayable",
      "type": "function"
    },
    {
      "inputs": [
        {
          "internalType": "address",
          "name": "_to",
          "type": "address"
        },
        {
          "internalType": "enum EHRSystem.Role",
          "name": "_toRole",
          "type": "uint8"
        }
      ],
      "name": "revokePermission",
      "outputs": [],
      "stateMutability": "nonpayable",
      "type": "function"
    },
    {
      "inputs": [
        {
          "internalType": "address",
          "name": "_user",
          "type": "address"
        }
      ],
      "name": "getUserRole",
      "outputs": [
        {
          "internalType": "enum EHRSystem.Role",
          "name": "",
          "type": "uint8"
        }
      ],
      "stateMutability": "view",
      "type": "function",
      "constant": true
    },
    {
      "inputs": [],
      "name": "getAuditLogs",
      "outputs": [
        {
          "components": [
            {
              "internalType": "address",
              "name": "user",
              "type": "address"
            },
            {
              "internalType": "string",
              "name": "action",
              "type": "string"
            },
            {
              "internalType": "uint256",
              "name": "timestamp",
              "type": "uint256"
            }
          ],
          "internalType": "struct EHRSystem.AuditLog[]",
          "name": "",
          "type": "tuple[]"
        }
      ],
      "stateMutability": "view",
      "type": "function",
      "constant": true
    },
    {
      "inputs": [
        {
          "internalType": "address",
          "name": "_doctor",
          "type": "address"
        },
        {
          "internalType": "address",
          "name": "_patient",
          "type": "address"
        }
      ],
      "name": "canDoctorAccessPatient",
      "outputs": [
        {
          "internalType": "bool",
          "name": "",
          "type": "bool"
        }
      ],
      "stateMutability": "view",
      "type": "function",
      "constant": true
    },
    {
      "inputs": [
        {
          "internalType": "string",
          "name": "patientH",
          "type": "string"
        },
        {
          "internalType": "string",
          "name": "doctorH",
          "type": "string"
        }
      ],
      "name": "canDoctorAccessPatientByHNumber",
      "outputs": [
        {
          "internalType": "bool",
          "name": "",
          "type": "bool"
        }
      ],
      "stateMutability": "view",
      "type": "function",
      "constant": true
    },
    {
      "inputs": [
        {
          "internalType": "uint256",
          "name": "reportId",
          "type": "uint256"
        },
        {
          "internalType": "address",
          "name": "user",
          "type": "address"
        }
      ],
      "name": "canAccessDiagnosticReport",
      "outputs": [
        {
          "internalType": "bool",
          "name": "",
          "type": "bool"
        }
      ],
      "stateMutability": "view",
      "type": "function",
      "constant": true
    },
    {
      "inputs": [
        {
          "internalType": "address",
          "name": "_patient",
          "type": "address"
        }
      ],
      "name": "addPatient",
      "outputs": [],
      "stateMutability": "nonpayable",
      "type": "function"
    },
    {
      "inputs": [
        {
          "internalType": "address",
          "name": "_doctor",
          "type": "address"
        }
      ],
      "name": "addDoctor",
      "outputs": [],
      "stateMutability": "nonpayable",
      "type": "function"
    },
    {
      "inputs": [
        {
          "internalType": "address",
          "name": "",
          "type": "address"
        }
      ],
      "name": "addDiagnostic",
      "outputs": [],
      "stateMutability": "nonpayable",
      "type": "function"
    },
    {
      "inputs": [
        {
          "internalType": "address",
          "name": "_patient",
          "type": "address"
        },
        {
          "internalType": "address",
          "name": "_doctor",
          "type": "address"
        },
        {
          "internalType": "bool",
          "name": "granted",
          "type": "bool"
        }
      ],
      "name": "updateDoctorPermission",
      "outputs": [],
      "stateMutability": "nonpayable",
      "type": "function"
    },
    {
      "inputs": [
        {
          "internalType": "address",
          "name": "_doctor",
          "type": "address"
        }
      ],
      "name": "getPermittedPatientsForDoctor",
      "outputs": [
        {
          "internalType": "address[]",
          "name": "",
          "type": "address[]"
        }
      ],
      "stateMutability": "view",
      "type": "function",
      "constant": true
    },
    {
      "inputs": [],
      "name": "getAllPatients",
      "outputs": [
        {
          "internalType": "address[]",
          "name": "",
          "type": "address[]"
        }
      ],
      "stateMutability": "view",
      "type": "function",
      "constant": true
    },
    {
      "inputs": [],
      "name": "getAllDoctors",
      "outputs": [
        {
          "internalType": "address[]",
          "name": "",
          "type": "address[]"
        }
      ],
      "stateMutability": "view",
      "type": "function",
      "constant": true
    },
    {
      "inputs": [
        {
          "internalType": "address",
          "name": "_patientContract",
          "type": "address"
        }
      ],
      "name": "setPatientContract",
      "outputs": [],
      "stateMutability": "nonpayable",
      "type": "function"
    },
    {
      "inputs": [
        {
          "internalType": "address",
          "name": "_doctorContract",
          "type": "address"
        }
      ],
      "name": "setDoctorContract",
      "outputs": [],
      "stateMutability": "nonpayable",
      "type": "function"
    },
    {
      "inputs": [
        {
          "internalType": "address",
          "name": "_diagnosticContract",
          "type": "address"
        }
      ],
      "name": "setDiagnosticContract",
      "outputs": [],
      "stateMutability": "nonpayable",
      "type": "function"
    },
    {
      "inputs": [
        {
          "internalType": "string",
          "name": "_hNumber",
          "type": "string"
        }
      ],
      "name": "isHNumberUsed",
      "outputs": [
        {
          "internalType": "bool",
          "name": "",
          "type": "bool"
        }
      ],
      "stateMutability": "view",
      "type": "function",
      "constant": true
    },
    {
      "inputs": [
        {
          "internalType": "string",
          "name": "_hNumber",
          "type": "string"
        },
        {
          "internalType": "address",
          "name": "user",
          "type": "address"
        }
      ],
      "name": "registerHNumber",
      "outputs": [],
      "stateMutability": "nonpayable",
      "type": "function"
    }
  ],
  "bytecode": "0x6080604052346100305761001a610014610133565b916101d2565b610022610035565b61385b610201823961385b90f35b61003b565b60405190565b600080fd5b601f801991011690565b7f4e487b7100000000000000000000000000000000000000000000000000000000600052604160045260246000fd5b9061008390610040565b810190811067ffffffffffffffff82111761009d57604052565b61004a565b906100b56100ae610035565b9283610079565b565b600080fd5b600160a060020a031690565b6100d1906100bc565b90565b6100dd816100c8565b036100e457565b600080fd5b905051906100f6826100d4565b565b909160608284031261012e5761012b61011484600085016100e9565b9361012281602086016100e9565b936040016100e9565b90565b6100b7565b610151613a5c80380380610146816100a2565b9283398101906100f8565b909192565b60010290565b9061016e600160a060020a0391610156565b9181191691161790565b90565b61018f61018a610194926100bc565b610178565b6100bc565b90565b6101a09061017b565b90565b6101ac90610197565b90565b90565b906101c76101c26101ce926101a3565b6101af565b825461015c565b9055565b6101fe92916101f06101f7926101e93360006101b2565b60016101b2565b60026101b2565b60036101b2565b56fe60806040526004361015610013575b6117d5565b61001e60003561021d565b806318a231a9146102185780631c7368e714610213578063278208511461020e57806329239651146102095780632931a62b14610204578063301da870146101ff578063338e12eb146101fa5780634780468f146101f557806348a6fc00146101f057806349703d24146101eb578063582dfe95146101e657806358886dba146101e15780635a520da1146101dc57806360760415146101d757806367128300146101d25780636ad3aa62146101cd5780636d263ceb146101c85780638da5cb5b146101c357806398186a9f146101be5780639eb89250146101b9578063a87430ba146101b4578063a8dfd7ff146101af578063ab0bd5b5146101aa578063c465f2f0146101a5578063d8f608df146101a0578063da4f41611461019b578063dc279f0014610196578063dd8a8a0514610191578063e22305961461018c578063f0d9509014610187578063f23876e9146101825763f6e8e18f0361000e576117a0565b61175b565b611716565b6116e3565b6116af565b61167c565b611647565b611571565b61150f565b6113b3565b61137d565b611316565b6111fd565b611181565b6110a6565b611065565b611031565b610f9f565b610f67565b610cec565b610c83565b610a0c565b610896565b6107e7565b61077e565b61074a565b6106d0565b61064e565b61048c565b610451565b6103a3565b610326565b7c0100000000000000000000000000000000000000000000000000000000900490565b60405190565b600080fd5b600080fd5b600091031261025b57565b61024b565b5190565b60209181520190565b60200190565b73ffffffffffffffffffffffffffffffffffffffff1690565b61029590610273565b90565b6102a19061028c565b9052565b906102b281602093610298565b0190565b60200190565b906102d96102d36102cc84610260565b8093610264565b9261026d565b9060005b8181106102ea5750505090565b9091926103036102fd60019286516102a5565b946102b6565b91019190916102dd565b61032391602082019160008184039101526102bc565b90565b3461035657610336366004610250565b61035261034161188e565b610349610240565b9182918261030d565b0390f35b610246565b600080fd5b6103698161028c565b0361037057565b600080fd5b9050359061038282610360565b565b9060208282031261039e5761039b91600001610375565b90565b61024b565b346103d3576103cf6103be6103b9366004610384565b6118a4565b6103c6610240565b9182918261030d565b0390f35b610246565b7f4e487b7100000000000000000000000000000000000000000000000000000000600052602160045260246000fd5b6004111561041157565b6103d8565b9061042082610407565b565b61042b90610416565b90565b61043790610422565b9052565b919061044f9060006020850194019061042e565b565b346104815761047d61046c610467366004610384565b6118c8565b610474610240565b9182918261043b565b0390f35b610246565b60000190565b346104ba576104a461049f366004610384565b6119e3565b6104ac610240565b806104b681610486565b0390f35b610246565b600080fd5b600080fd5b601f801991011690565b7f4e487b7100000000000000000000000000000000000000000000000000000000600052604160045260246000fd5b9061050c906104c9565b810190811067ffffffffffffffff82111761052657604052565b6104d3565b9061053e610537610240565b9283610502565b565b67ffffffffffffffff811161055e5761055a6020916104c9565b0190565b6104d3565b90826000939282370152565b9092919261058461057f82610540565b61052b565b938185526020850190828401116105a05761059e92610563565b565b6104c4565b9080601f830112156105c3578160206105c09335910161056f565b90565b6104bf565b91909160408184031261062157600081013567ffffffffffffffff811161061c57836105f59183016105a5565b92602082013567ffffffffffffffff81116106175761061492016105a5565b90565b61035b565b61035b565b61024b565b151590565b61063490610626565b9052565b919061064c9060006020850194019061062b565b565b3461067f5761067b61066a6106643660046105c8565b90611b65565b610672610240565b91829182610638565b0390f35b610246565b6004111561068e57565b600080fd5b905035906106a082610684565b565b91906040838203126106cb57806106bf6106c89260008601610375565b93602001610693565b90565b61024b565b346106ff576106e96106e33660046106a2565b906124d7565b6106f1610240565b806106fb81610486565b0390f35b610246565b91906040838203126107455760008301359067ffffffffffffffff8211610740576107348161073d9386016105a5565b93602001610693565b90565b61035b565b61024b565b346107795761076361075d366004610704565b906128f7565b61076b610240565b8061077581610486565b0390f35b610246565b346107ac57610796610791366004610384565b612b1c565b61079e610240565b806107a881610486565b0390f35b610246565b906020828203126107e257600082013567ffffffffffffffff81116107dd576107da92016105a5565b90565b61035b565b61024b565b34610817576108136108026107fd3660046107b1565b612b81565b61080a610240565b91829182610638565b0390f35b610246565b60020a900490565b73ffffffffffffffffffffffffffffffffffffffff1690565b61084d906008610852930261081c565b610824565b90565b90610860915461083d565b90565b6108706003600090610855565b90565b61087c9061028c565b9052565b919061089490600060208501940190610873565b565b346108c6576108a6366004610250565b6108c26108b1610863565b6108b9610240565b91829182610880565b0390f35b610246565b90565b6108d7816108cb565b036108de57565b600080fd5b905035906108f0826108ce565b565b919060408382031261091b578061090f6109189260008601610375565b936020016108e3565b90565b61024b565b90565b61093761093261093c92610273565b610920565b610273565b90565b61094890610923565b90565b6109549061093f565b90565b906109619061094b565b600052602052604060002090565b7f4e487b7100000000000000000000000000000000000000000000000000000000600052603260045260246000fd5b5490565b600052602060002090565b6109b68161099e565b8210156109d1576109c86001916109a2565b91020190600090565b61096f565b6109e190600a610957565b6109ea8161099e565b821015610a0757610a04916109fe916109ad565b90610855565b90565b600080fd5b34610a3d57610a39610a28610a223660046108f2565b906109d6565b610a30610240565b91829182610880565b0390f35b610246565b90602082820312610a5c57610a59916000016108e3565b90565b61024b565b5490565b600052602060002090565b610a7981610a61565b821015610a9457610a8b600391610a65565b91020190600090565b61096f565b6001900490565b610aac610ab191610a99565b610824565b90565b610abe9054610aa0565b90565b74010000000000000000000000000000000000000000900490565b60ff1690565b610aee610af391610ac1565b610adc565b90565b610b009054610ae2565b90565b7501000000000000000000000000000000000000000000900490565b610b2b610b3091610b03565b610adc565b90565b610b3d9054610b1f565b90565b760100000000000000000000000000000000000000000000900490565b60ff1690565b610b6f610b7491610b40565b610b5d565b90565b610b819054610b63565b90565b90565b610b93610b9891610a99565b610b84565b90565b610ba59054610b87565b90565b600690610bb482610a61565b811015610c1557610bc491610a70565b5090610bd260008301610ab4565b91610bdf60018201610ab4565b91610bec60018301610af6565b91610bf960018201610b33565b91610c126002610c0b60018501610b77565b9301610b9b565b90565b600080fd5b610c23906108cb565b9052565b9194610c70610c7a92989795610c6660a096610c5c610c819a610c5260c08a019e60008b0190610873565b6020890190610873565b604087019061042e565b606085019061042e565b608083019061062b565b0190610c1a565b565b34610cba57610cb6610c9e610c99366004610a42565b610ba8565b92610cad969496929192610240565b96879687610c27565b0390f35b610246565b6009610cca8161099e565b821015610ce757610ce491610cde916109ad565b90610855565b90565b600080fd5b34610d1c57610d18610d07610d02366004610a42565b610cbf565b610d0f610240565b91829182610880565b0390f35b610246565b5490565b600052602060002090565b610d3981610d21565b821015610d5457610d4b600391610d25565b91020190600090565b61096f565b7f4e487b7100000000000000000000000000000000000000000000000000000000600052602260045260246000fd5b9060016002830492168015610da8575b6020831014610da357565b610d59565b91607f1691610d98565b60209181520190565b600052602060002090565b9060009291805490610de1610dda83610d88565b8094610db2565b91600181169081600014610e3a5750600114610dfd575b505050565b610e0a9192939450610dbb565b916000925b818410610e225750500190388080610df8565b60018160209295939554848601520191019290610e0f565b92949550505060ff1916825215156020020190388080610df8565b90610e5f91610dc6565b90565b90610e82610e7b92610e72610240565b93848092610e55565b0383610502565b565b600790610e9082610d21565b811015610ec957610ea091610d30565b50610ead60008201610ab4565b91610ec66002610ebf60018501610e62565b9301610b9b565b90565b600080fd5b5190565b60209181520190565b60005b838110610eef575050906000910152565b806020918301518185015201610ede565b610f1f610f28602093610f2d93610f1681610ece565b93848093610ed2565b95869101610edb565b6104c9565b0190565b939290610f5d604091610f6594610f50606089019260008a0190610873565b8782036020890152610f00565b940190610c1a565b565b34610f9a57610f96610f82610f7d366004610a42565b610e84565b610f8d939193610240565b93849384610f31565b0390f35b610246565b34610fcd57610fb7610fb2366004610384565b612c98565b610fbf610240565b80610fc981610486565b0390f35b610246565b610fdb81610626565b03610fe257565b600080fd5b90503590610ff482610fd2565b565b909160608284031261102c576110296110128460008501610375565b936110208160208601610375565b93604001610fe7565b90565b61024b565b346110605761104a611044366004610ff6565b91612e97565b611052610240565b8061105c81610486565b0390f35b610246565b346110935761107d611078366004610384565b61305e565b611085610240565b8061108f81610486565b0390f35b610246565b6110a3600080610855565b90565b346110d6576110b6366004610250565b6110d26110c1611098565b6110c9610240565b91829182610880565b0390f35b610246565b919060408382031261110457806110f86111019260008601610375565b93602001610375565b90565b61024b565b906111139061094b565b600052602052604060002090565b9061112b9061094b565b600052602052604060002090565b61114990600861114e930261081c565b610b5d565b90565b9061115c9154611139565b90565b61117961117e92611174600b93600094611109565b611121565b611151565b90565b346111b2576111ae61119d6111973660046110db565b9061115f565b6111a5610240565b91829182610638565b0390f35b610246565b91906040838203126111f85760008301359067ffffffffffffffff82116111f3576111e7816111f09386016105a5565b93602001610375565b90565b61035b565b61024b565b3461122c576112166112103660046111b7565b906131fa565b61121e610240565b8061122881610486565b0390f35b610246565b9061123b9061094b565b600052602052604060002090565b61125561125a91610a99565b610adc565b90565b6112679054611249565b90565b610100900490565b61127e6112839161126a565b610b5d565b90565b6112909054611272565b90565b61129e906004611231565b906112ab60008301610ab4565b916112b860018201610e62565b916112d060026112c981850161125d565b9301611286565b90565b61130d611302606093611314969897956112f560808601926000870190610873565b8482036020860152610f00565b96604083019061042e565b019061062b565b565b3461134a5761134661133161132c366004610384565b611293565b9061133d949294610240565b948594856112d3565b0390f35b610246565b9190604083820312611378578061136c61137592600086016108e3565b93602001610375565b90565b61024b565b346113ae576113aa61139961139336600461134f565b9061330f565b6113a1610240565b91829182610638565b0390f35b610246565b346113e4576113e06113cf6113c93660046110db565b906133ad565b6113d7610240565b91829182610638565b0390f35b610246565b5190565b60209181520190565b60200190565b61141b6114246020936114299361141281610ece565b93848093610db2565b95869101610edb565b6104c9565b0190565b611436906108cb565b9052565b906114789060408061146d6060840161145b60008801516000870190610298565b602087015185820360208701526113fc565b94015191019061142d565b90565b906114859161143a565b90565b60200190565b906114a261149b836113e9565b80926113ed565b90816114b3602083028401946113f6565b926000915b8383106114c757505050505090565b909192939460206114e96114e38385600195038752895161147b565b97611488565b93019301919392906114b8565b61150c916020820191600081840391015261148e565b90565b3461153f5761151f366004610250565b61153b61152a61354b565b611532610240565b918291826114f6565b0390f35b610246565b600861154f8161099e565b82101561156c5761156991611563916109ad565b90610855565b90565b600080fd5b346115a15761159d61158c611587366004610a42565b611544565b611594610240565b91829182610880565b0390f35b610246565b905090565b6115d06115c7926020926115be81610ece565b948580936115a6565b93849101610edb565b0190565b90565b6115e36115e8916108cb565b6115d4565b9052565b6115fc61160391602094936115ab565b80926115d7565b0190565b61161b611612610240565b928392836115ec565b03902090565b61162a91611607565b90565b6116449061163f600591600092611621565b610855565b90565b346116775761167361166261165d3660046107b1565b61162d565b61166a610240565b91829182610880565b0390f35b610246565b346116aa5761169461168f366004610384565b61359e565b61169c610240565b806116a681610486565b0390f35b610246565b346116de576116c86116c23660046106a2565b906135f5565b6116d0610240565b806116da81610486565b0390f35b610246565b34611711576116fb6116f6366004610384565b613804565b611703610240565b8061170d81610486565b0390f35b610246565b3461174657611726366004610250565b61174261173161380f565b611739610240565b9182918261030d565b0390f35b610246565b6117586002600090610855565b90565b3461178b5761176b366004610250565b61178761177661174b565b61177e610240565b91829182610880565b0390f35b610246565b61179d6001600090610855565b90565b346117d0576117b0366004610250565b6117cc6117bb611790565b6117c3610240565b91829182610880565b0390f35b610246565b600080fd5b606090565b60209181520190565b6117f29054610aa0565b90565b60010190565b9061181861181261180b8461099e565b80936117df565b926109a2565b9060005b8181106118295750505090565b90919261184961184360019261183e876117e8565b6102a5565b946117f5565b910191909161181c565b9061185d916117fb565b90565b9061188061187992611870610240565b93848092611853565b0383610502565b565b61188b90611860565b90565b6118966117da565b506118a16008611882565b90565b6118bb6118c0916118b36117da565b50600a610957565b611882565b90565b600090565b60026118e16118e7926118d96118c3565b506004611231565b0161125d565b90565b60007f4f6e6c7920446961676e6f73746963436f6e7472616374000000000000000000910152565b61191f6017602092610ed2565b611928816118ea565b0190565b6119429060208101906000818303910152611912565b90565b1561194c57565b611954610240565b7f08c379a0000000000000000000000000000000000000000000000000000000008152806119846004820161192c565b0390fd5b60007f446961676e6f7374696352656769737465726564000000000000000000000000910152565b6119bd6014602092610ed2565b6119c681611988565b0190565b6119e090602081019060008183039101526119b0565b90565b50611a0933611a036119fd6119f86003610ab4565b61028c565b9161028c565b14611945565b33611a347f2f7e13719b6156d8027c466a1c0039d9c52ff0586faf3bd63174ba52f400d4289161094b565b90611a3d610240565b80611a47816119ca565b0390a2565b600090565b611a5a90610923565b90565b611a6690611a51565b90565b611a729061093f565b90565b7c01000000000000000000000000000000000000000000000000000000000290565b90505190611aa482610360565b565b90602082820312611ac057611abd91600001611a97565b90565b61024b565b611adb9160208201916000818403910152610f00565b90565b611ae6610240565b3d6000823e3d90fd5b611af890610923565b90565b611b0490611aef565b90565b611b109061093f565b90565b90505190611b2082610fd2565b565b90602082820312611b3c57611b3991600001611b13565b90565b61024b565b916020611b63929493611b5c60408201966000830190610873565b0190610873565b565b6020611bb591611b73611a4c565b50611b8e611b89611b846001610ab4565b611a5d565b611a69565b611baa63da4f4161611b9e610240565b95869485938493611a75565b835260048301611ac5565b03915afa908115611d1857611c1291602091600091611ceb575b5092611beb611be6611be16002610ab4565b611afb565b611b07565b611c0763da4f4161611bfb610240565b95869485938493611a75565b835260048301611ac5565b03915afa8015611ce657602091600091611cb9575b50611c42611c3d611c386001610ab4565b611a5d565b611a69565b611c646351ce176c949294611c6f611c58610240565b96879586948594611a75565b845260048401611b41565b03915afa908115611cb457600091611c86575b5090565b611ca7915060203d8111611cad575b611c9f8183610502565b810190611b22565b38611c82565b503d611c95565b611ade565b611cd99150823d8111611cdf575b611cd18183610502565b810190611aa6565b38611c27565b503d611cc7565b611ade565b611d0b9150823d8111611d11575b611d038183610502565b810190611aa6565b38611bcf565b503d611cf9565b611ade565b60007f4e6f742072656769737465726564000000000000000000000000000000000000910152565b611d52600e602092610ed2565b611d5b81611d1d565b0190565b611d759060208101906000818303910152611d45565b90565b15611d7f57565b611d87610240565b7f08c379a000000000000000000000000000000000000000000000000000000000815280611db760048201611d5f565b0390fd5b90565b611dc860c061052b565b90565b90611dd59061028c565b9052565b90611de390610416565b9052565b90611df190610626565b9052565b90611dff906108cb565b9052565b600052602060002090565b5490565b611e1b81611e0e565b821015611e3657611e2d600391611e03565b91020190600090565b61096f565b7f4e487b7100000000000000000000000000000000000000000000000000000000600052600060045260246000fd5b611e74905161028c565b90565b60010290565b90611e9c73ffffffffffffffffffffffffffffffffffffffff91611e77565b9181191691161790565b90565b90611ebe611eb9611ec59261094b565b611ea6565b8254611e7d565b9055565b611ed39051610416565b90565b740100000000000000000000000000000000000000000290565b90611f1074ff000000000000000000000000000000000000000091611ed6565b9181191691161790565b611f2390610416565b90565b90565b90611f3e611f39611f4592611f1a565b611f26565b8254611ef0565b9055565b75010000000000000000000000000000000000000000000290565b90611f8575ff00000000000000000000000000000000000000000091611f49565b9181191691161790565b90611fa4611f9f611fab92611f1a565b611f26565b8254611f64565b9055565b611fb99051610626565b90565b7601000000000000000000000000000000000000000000000290565b90611ffa76ff0000000000000000000000000000000000000000000091611fbc565b9181191691161790565b61200d90610626565b90565b90565b9061202861202361202f92612004565b612010565b8254611fd8565b9055565b61203d90516108cb565b90565b9061204d60001991611e77565b9181191691161790565b61206b612066612070926108cb565b610920565b6108cb565b90565b90565b9061208b61208661209292612057565b612073565b8254612040565b9055565b9061212760a0600261212d946120bb600082016120b560008801611e6a565b90611ea9565b6120d4600182016120ce60208801611e6a565b90611ea9565b6120ed600182016120e760408801611ec9565b90611f29565b6121066001820161210060608801611ec9565b90611f8f565b61211f6001820161211960808801611faf565b90612013565b019201612033565b90612076565b565b91906121405761213e91612096565b565b611e3b565b60020a0290565b908154916801000000000000000083101561217c578261217491600161217a95018155611e12565b9061212f565b565b6104d3565b9160206121a392949361219c6040820196600083019061042e565b019061042e565b565b90565b6121b2606061052b565b90565b906121c76121c283610540565b61052b565b918252565b60007f5065726d697373696f6e4772616e746564000000000000000000000000000000910152565b6121fe60116121b5565b9061220b602083016121cc565b565b6122156121f4565b90565b52565b600052602060002090565b5490565b61223381612226565b82101561224e5761224560039161221b565b91020190600090565b61096f565b5190565b601f602091010490565b9190600861227d91029161227760001984612145565b92612145565b9181191691161790565b919061229d6122986122a593612057565b612073565b908354612261565b9055565b600090565b6122c0916122ba6122a9565b91612287565b565b5b8181106122ce575050565b806122dc60006001936122ae565b016122c3565b9190601f81116122f2575b505050565b6122fe61232393610dbb565b90602061230a84612257565b8301931061232b575b61231c90612257565b01906122c2565b3880806122ed565b915061231c81929050612313565b9061234a906000199060080261081c565b191690565b8161235991612339565b906002021790565b9061236b81610ece565b9067ffffffffffffffff821161242d5761238f826123898554610d88565b856122e2565b602090601f83116001146123c4579180916123b3936000926123b8575b505061234f565b90555b565b909150015138806123ac565b601f198316916123d385610dbb565b9260005b818110612415575091600293918560019694106123fb575b505050020190556123b6565b61240b910151601f841690612339565b90553880806123ef565b919360206001819287870151815501950192016123d7565b6104d3565b9061243c91612361565b565b906124846040600261248a946124636000820161245d60008801611e6a565b90611ea9565b61247c6001820161247660208801612253565b90612432565b019201612033565b90612076565b565b919061249d5761249b9161243e565b565b611e3b565b90815491680100000000000000008310156124d257826124ca9160016124d09501815561222a565b9061248c565b565b6104d3565b6124f66124f160026124eb60043390611231565b01611286565b611d78565b61257960006125056006611dbb565b6125743361256b86612562612527600261252160043390611231565b0161125d565b6125598b91612550600195612547429961253f611dbe565b9d8e01611dcb565b60208c01611dcb565b60408a01611dd9565b60608801611dd9565b60808601611de7565b60a08401611df5565b61214c565b33612591600261258b60043390611231565b0161125d565b926125c56125bf7feb8cb873ec554da6167923213292b6f3e08369ed2d0029807868ac35aae309b79361094b565b9361094b565b936125da6125d1610240565b92839283612181565b0390a36126276125ea60076121a5565b3390612622426126056125fb6121a8565b9460008601611dcb565b61261961261061220d565b60208601612218565b60408401611df5565b6124a2565b565b60007f416c726561647920726567697374657265640000000000000000000000000000910152565b61265e6012602092610ed2565b61266781612629565b0190565b6126819060208101906000818303910152612651565b90565b1561268b57565b612693610240565b7f08c379a0000000000000000000000000000000000000000000000000000000008152806126c36004820161266b565b0390fd5b6126d1608061052b565b90565b906126e060ff91611e77565b9181191691161790565b906126ff6126fa61270692611f1a565b611f26565b82546126d4565b9055565b6101000290565b9061271e61ff009161270a565b9181191691161790565b9061273d61273861274492612004565b612010565b8254612711565b9055565b906127a6606060026127ac9461276d6000820161276760008801611e6a565b90611ea9565b6127866001820161278060208801612253565b90612432565b61279e82820161279860408801611ec9565b906126ea565b019201611faf565b90612728565b565b906127b891612748565b565b90565b600052602060002090565b5490565b6127d5816127c8565b8210156127f0576127e76001916127bd565b91020190600090565b61096f565b9190600861282391029161281d73ffffffffffffffffffffffffffffffffffffffff84612145565b92612145565b9181191691161790565b919061284361283e61284b9361094b565b611ea6565b9083546127f5565b9055565b908154916801000000000000000083101561287f578261287791600161287d950181556127cc565b9061282d565b565b6104d3565b929160206128a16128a99360408701908782036000890152610f00565b94019061042e565b565b60007f5573657252656769737465726564000000000000000000000000000000000000910152565b6128dd600e6121b5565b906128ea602083016128ab565b565b6128f46128d3565b90565b61291f61291a612914600261290e60043390611231565b01611286565b15610626565b612684565b61297233612961836129588661294f60019361294661293c6126c7565b9760008901611dcb565b60208701612218565b60408501611dd9565b60608301611de7565b61296d60043390611231565b6127ae565b6129873361298260058490611621565b611ea9565b8161299b6129956001610416565b91610416565b14612a65575b816129b56129af6002610416565b91610416565b14612a4c575b3390916129e87fc2e5d5da58bd71d1a2d14cdef02a4256d971b728088f8190d067ccfbae3bd73e9261094b565b926129fd6129f4610240565b92839283612884565b0390a2612a4a612a0d60076121a5565b3390612a4542612a28612a1e6121a8565b9460008601611dcb565b612a3c612a336128ec565b60208601612218565b60408401611df5565b6124a2565b565b612a60612a5960096127ba565b339061284f565b6129bb565b612a79612a7260086127ba565b339061284f565b6129a1565b60007f4f6e6c7920446f63746f72436f6e747261637400000000000000000000000000910152565b612ab36013602092610ed2565b612abc81612a7e565b0190565b612ad69060208101906000818303910152612aa6565b90565b15612ae057565b612ae8610240565b7f08c379a000000000000000000000000000000000000000000000000000000000815280612b1860048201612ac0565b0390fd5b612b5490612b4533612b3f612b39612b346002610ab4565b61028c565b9161028c565b14612ad9565b612b4f60096127ba565b61284f565b565b90565b612b6d612b68612b7292612b56565b610920565b610273565b90565b612b7e90612b59565b90565b612b98612b9d91612b90611a4c565b506005611621565b610ab4565b612bb8612bb2612bad6000612b75565b61028c565b9161028c565b141590565b60007f4e6f7420636f6e7472616374206f776e65720000000000000000000000000000910152565b612bf26012602092610ed2565b612bfb81612bbd565b0190565b612c159060208101906000818303910152612be5565b90565b15612c1f57565b612c27610240565b7f08c379a000000000000000000000000000000000000000000000000000000000815280612c5760048201612bff565b0390fd5b612c8990612c8433612c7e612c78612c736000610ab4565b61028c565b9161028c565b14612c18565b612c8b565b565b612c96906003611ea9565b565b612ca190612c5b565b565b60007f4f6e6c792050617469656e74436f6e7472616374000000000000000000000000910152565b612cd86014602092610ed2565b612ce181612ca3565b0190565b612cfb9060208101906000818303910152612ccb565b90565b15612d0557565b612d0d610240565b7f08c379a000000000000000000000000000000000000000000000000000000000815280612d3d60048201612ce5565b0390fd5b612d4d612d5291610a99565b610b5d565b90565b612d5f9054612d41565b90565b612d76612d71612d7b92612b56565b610920565b6108cb565b90565b6001612d8a91016108cb565b90565b90565b612da4612d9f612da992612d8d565b610920565b6108cb565b90565b7f4e487b7100000000000000000000000000000000000000000000000000000000600052601160045260246000fd5b612dea612df0919392936108cb565b926108cb565b8203918211612dfb57565b612dac565b7f4e487b7100000000000000000000000000000000000000000000000000000000600052603160045260246000fd5b600090565b612e4691612e40612e2f565b9161282d565b565b612e51816127c8565b8015612e72576001900390612e6f612e6983836127cc565b90612e34565b55565b612e00565b90612e8c612e87612e9392612004565b612010565b82546126d4565b9055565b9091612ebe33612eb8612eb2612ead6001610ab4565b61028c565b9161028c565b14612cfe565b600014612f3957612eec612ee6612ee1612eda600b8590611109565b8590611121565b612d55565b15610626565b612ef6575b50505b565b612f2d612f3292612f1b612f14612f0f600a8490610957565b6127ba565b849061284f565b612f28600193600b611109565b611121565b612e77565b3880612ef1565b612f57612f52612f4b600b8490611109565b8490611121565b612d55565b612f63575b5050612ef4565b612f77612f72600a8490610957565b6127ba565b91612f826000612d62565b5b80612f9e612f98612f93876127c8565b6108cb565b916108cb565b101561304f57612fb8612fb28583906127cc565b90610855565b612fca612fc48561028c565b9161028c565b14612fdd57612fd890612d7e565b612f83565b906130308461302b6130439461302561301e6130186130489a613012613002886127c8565b61300c6001612d90565b90612ddb565b906127cc565b90610855565b91846127cc565b9061282d565b612e48565b5b61303e600093600b611109565b611121565b612e77565b3880612f5c565b50613048925061304390613031565b613096906130873361308161307b6130766001610ab4565b61028c565b9161028c565b14612cfe565b61309160086127ba565b61284f565b565b60207f2048204e756d6265720000000000000000000000000000000000000000000000917f4f6e6c79207573657220636f6e7472616374732063616e20726567697374657260008201520152565b6130f36029604092610ed2565b6130fc81613098565b0190565b61311690602081019060008183039101526130e6565b90565b1561312057565b613128610240565b7f08c379a00000000000000000000000000000000000000000000000000000000081528061315860048201613100565b0390fd5b60007f48204e756d62657220616c726561647920757365640000000000000000000000910152565b6131916015602092610ed2565b61319a8161315c565b0190565b6131b49060208101906000818303910152613184565b90565b156131be57565b6131c6610240565b7f08c379a0000000000000000000000000000000000000000000000000000000008152806131f66004820161319e565b0390fd5b61327561327a923361321d6132176132126001610ab4565b61028c565b9161028c565b1480156132a4575b801561327c575b61323590613119565b61326d61324c61324760058690611621565b610ab4565b61326761326161325c6000612b75565b61028c565b9161028c565b146131b7565b916005611621565b611ea9565b565b506132353361329c6132966132916003610ab4565b61028c565b9161028c565b14905061322c565b50336132c16132bb6132b66002610ab4565b61028c565b9161028c565b14613225565b6132d090610923565b90565b6132dc906132c7565b90565b6132e89061093f565b90565b91602061330d92949361330660408201966000830190610c1a565b0190610873565b565b9060209061331b611a4c565b5061333661333161332c6003610ab4565b6132d3565b6132df565b6133586318bf802994929461336361334c610240565b96879586948594611a75565b8452600484016132eb565b03915afa9081156133a85760009161337a575b5090565b61339b915060203d81116133a1575b6133938183610502565b810190611b22565b38613376565b503d613389565b611ade565b6020906133b8611a4c565b506133d36133ce6133c96001610ab4565b611a5d565b611a69565b6133f56351ce176c9492946134006133e9610240565b96879586948594611a75565b845260048401611b41565b03915afa90811561344557600091613417575b5090565b613438915060203d811161343e575b6134308183610502565b810190611b22565b38613413565b503d613426565b611ade565b606090565b67ffffffffffffffff81116134675760208091020190565b6104d3565b9061347e6134798361344f565b61052b565b918252565b61348d606061052b565b90565b906134e16134d860026134a1613483565b946134ba6134b160008301610ab4565b60008801611dcb565b6134d26134c960018301610e62565b60208801612218565b01610b9b565b60408401611df5565b565b6134ec90613490565b90565b906134f982610d21565b6135028161346c565b926135106020850191610d25565b6000915b8383106135215750505050565b60036020600192613531856134e3565b815201920192019190613514565b613548906134ef565b90565b61355361344a565b5061355e600761353f565b90565b61358f9061358a3361358461357e6135796000610ab4565b61028c565b9161028c565b14612c18565b613591565b565b61359c906001611ea9565b565b6135a790613561565b565b60007f5065726d697373696f6e5265766f6b6564000000000000000000000000000000910152565b6135db60116121b5565b906135e8602083016135a9565b565b6135f26135d1565b90565b906136006000612d62565b5b8061361d6136176136126006610a61565b6108cb565b916108cb565b10156137c25761366e9061363f600061363860068490610a70565b5001610ab4565b61365161364b3361028c565b9161028c565b1480613791575b80613760575b80613742575b613673575b612d7e565b613601565b61368d6000600161368660068590610a70565b5001612013565b33846136a660026136a060043390611231565b0161125d565b91856136db6136d57f8ff4cc46d0100d4f685e58efb3aac42db62bc9ed6219dee78622372aeeb2724d9361094b565b9361094b565b936136f06136e7610240565b92839283612181565b0390a361373d61370060076121a5565b33906137384261371b6137116121a8565b9460008601611dcb565b61372f6137266135ea565b60208601612218565b60408401611df5565b6124a2565b613669565b5061375b600161375460068490610a70565b5001610b77565b613664565b50613779600161377260068490610a70565b5001610b33565b61378b61378585610416565b91610416565b1461365e565b506137aa60016137a360068490610a70565b5001610ab4565b6137bc6137b68661028c565b9161028c565b14613658565b505050565b6137f5906137f0336137ea6137e46137df6000610ab4565b61028c565b9161028c565b14612c18565b6137f7565b565b613802906002611ea9565b565b61380d906137c7565b565b6138176117da565b506138226009611882565b9056fea26469706673582212202327fcded183b25c31b54a13be519a7c658ed12aead45b08b7a288464e237bdf64736f6c634300081a0033",
  "immutableReferences": {},
  "source": "// SPDX-License-Identifier: MIT\npragma solidity ^0.8.26;\n\ninterface IPatientContract {\n    function hNumberToAddress(string memory) external view returns (address);\n    function isDoctorPermitted(address, address) external view returns (bool);\n}\n\ninterface IDoctorContractForEHR {\n    function hNumberToAddress(string memory) external view returns (address);\n    function hasPatientAccess(address, address) external view returns (bool);\n}\n\ninterface IDiagnosticContract {\n    function hNumberToAddress(string memory) external view returns (address);\n    function canAccessReport(uint256, address) external view returns (bool);\n}\n\ncontract EHRSystem {\n    enum Role { None, Patient, Doctor, Diagnostic }\n\n    struct User {\n        address wallet;\n        string hNumber;\n        Role role;\n        bool exists;\n    }\n\n    struct PermissionMap {\n        address from;\n        address to;\n        Role fromRole;\n        Role toRole;\n        bool granted;\n        uint256 timestamp;\n    }\n\n    struct AuditLog {\n        address user;\n        string action;\n        uint256 timestamp;\n    }\n\n    address public owner;\n    address public patientContract;\n    address public doctorContract;\n    address public diagnosticContract;\n\n    mapping(address => User) public users;\n    mapping(string => address) public hNumberToAddress;\n    PermissionMap[] public permissions;\n    AuditLog[] public auditLogs;\n\n    // New: Global patient list\n    address[] public allPatients;\n    // New: Global doctor list\n    address[] public allDoctors;\n    // New: doctor => array of patient addresses who have granted permission\n    mapping(address => address[]) public doctorToPermittedPatients;\n    // New: patient => doctor => bool (for quick lookup)\n    mapping(address => mapping(address => bool)) public patientDoctorPermission;\n\n    event UserRegistered(address indexed wallet, string hNumber, Role role);\n    event PermissionGranted(address indexed from, address indexed to, Role fromRole, Role toRole);\n    event PermissionRevoked(address indexed from, address indexed to, Role fromRole, Role toRole);\n    event AuditLogged(address indexed user, string action);\n\n    modifier onlyOwner() {\n        require(msg.sender == owner, \"Not contract owner\");\n        _;\n    }\n\n    constructor(address _patientContract, address _doctorContract, address _diagnosticContract) {\n        owner = msg.sender;\n        patientContract = _patientContract;\n        doctorContract = _doctorContract;\n        diagnosticContract = _diagnosticContract;\n    }\n\n    function registerUser(string memory _hNumber, Role _role) public {\n        require(!users[msg.sender].exists, \"Already registered\");\n        users[msg.sender] = User({\n            wallet: msg.sender,\n            hNumber: _hNumber,\n            role: _role,\n            exists: true\n        });\n        hNumberToAddress[_hNumber] = msg.sender;\n        if (_role == Role.Patient) {\n            allPatients.push(msg.sender);\n        }\n        if (_role == Role.Doctor) {\n            allDoctors.push(msg.sender);\n        }\n        emit UserRegistered(msg.sender, _hNumber, _role);\n        auditLogs.push(AuditLog({user: msg.sender, action: \"UserRegistered\", timestamp: block.timestamp}));\n    }\n\n    function grantPermission(address _to, Role _toRole) public {\n        require(users[msg.sender].exists, \"Not registered\");\n        permissions.push(PermissionMap({\n            from: msg.sender,\n            to: _to,\n            fromRole: users[msg.sender].role,\n            toRole: _toRole,\n            granted: true,\n            timestamp: block.timestamp\n        }));\n        emit PermissionGranted(msg.sender, _to, users[msg.sender].role, _toRole);\n        auditLogs.push(AuditLog({user: msg.sender, action: \"PermissionGranted\", timestamp: block.timestamp}));\n    }\n\n    function revokePermission(address _to, Role _toRole) public {\n        for (uint i = 0; i < permissions.length; i++) {\n            if (permissions[i].from == msg.sender && permissions[i].to == _to && permissions[i].toRole == _toRole && permissions[i].granted) {\n                permissions[i].granted = false;\n                emit PermissionRevoked(msg.sender, _to, users[msg.sender].role, _toRole);\n                auditLogs.push(AuditLog({user: msg.sender, action: \"PermissionRevoked\", timestamp: block.timestamp}));\n            }\n        }\n    }\n\n    function getUserRole(address _user) public view returns (Role) {\n        return users[_user].role;\n    }\n\n    function getAuditLogs() public view returns (AuditLog[] memory) {\n        return auditLogs;\n    }\n\n    // Cross-contract permission check example\n    function canDoctorAccessPatient(address _doctor, address _patient) public view returns (bool) {\n        return IPatientContract(patientContract).isDoctorPermitted(_patient, _doctor);\n    }\n\n    function canDoctorAccessPatientByHNumber(string memory patientH, string memory doctorH) public view returns (bool) {\n        address patientAddr = IPatientContract(patientContract).hNumberToAddress(patientH);\n        address doctorAddr = IDoctorContractForEHR(doctorContract).hNumberToAddress(doctorH);\n        return IPatientContract(patientContract).isDoctorPermitted(patientAddr, doctorAddr);\n    }\n\n    function canAccessDiagnosticReport(uint256 reportId, address user) public view returns (bool) {\n        return IDiagnosticContract(diagnosticContract).canAccessReport(reportId, user);\n    }\n\n    function addPatient(address _patient) external {\n        // Only callable by PatientContract\n        require(msg.sender == patientContract, \"Only PatientContract\");\n        allPatients.push(_patient);\n    }\n\n    function addDoctor(address _doctor) external {\n        // Only callable by DoctorContract\n        require(msg.sender == doctorContract, \"Only DoctorContract\");\n        allDoctors.push(_doctor);\n    }\n\n    function addDiagnostic(address) external {\n        // Only callable by DiagnosticContract\n        require(msg.sender == diagnosticContract, \"Only DiagnosticContract\");\n        // Emit an event to indicate diagnostic registration (state change)\n        emit AuditLogged(msg.sender, \"DiagnosticRegistered\");\n    }\n\n    function updateDoctorPermission(address _patient, address _doctor, bool granted) external {\n        // Only callable by PatientContract\n        require(msg.sender == patientContract, \"Only PatientContract\");\n        if (granted) {\n            if (!patientDoctorPermission[_patient][_doctor]) {\n                doctorToPermittedPatients[_doctor].push(_patient);\n                patientDoctorPermission[_patient][_doctor] = true;\n            }\n        } else {\n            if (patientDoctorPermission[_patient][_doctor]) {\n                // Remove patient from doctor's permitted list\n                address[] storage arr = doctorToPermittedPatients[_doctor];\n                for (uint i = 0; i < arr.length; i++) {\n                    if (arr[i] == _patient) {\n                        arr[i] = arr[arr.length - 1];\n                        arr.pop();\n                        break;\n                    }\n                }\n                patientDoctorPermission[_patient][_doctor] = false;\n            }\n        }\n    }\n\n    function getPermittedPatientsForDoctor(address _doctor) public view returns (address[] memory) {\n        return doctorToPermittedPatients[_doctor];\n    }\n    \n    function getAllPatients() public view returns (address[] memory) {\n        return allPatients;\n    }\n\n    function getAllDoctors() public view returns (address[] memory) {\n        return allDoctors;\n    }\n\n    function setPatientContract(address _patientContract) external onlyOwner {\n        patientContract = _patientContract;\n    }\n\n    function setDoctorContract(address _doctorContract) external onlyOwner {\n        doctorContract = _doctorContract;\n    }\n\n    function setDiagnosticContract(address _diagnosticContract) external onlyOwner {\n        diagnosticContract = _diagnosticContract;\n    }\n\n    // --- GLOBAL H NUMBER UNIQUENESS ---\n    // Returns true if the H number is already used by any user type\n    function isHNumberUsed(string memory _hNumber) public view returns (bool) {\n        return hNumberToAddress[_hNumber] != address(0);\n    }\n\n    // Registers an H number globally; only callable by user contracts\n    function registerHNumber(string memory _hNumber, address user) public {\n        // Only allow Patient, Doctor, or Diagnostic contracts to call\n        require(\n            msg.sender == patientContract ||\n            msg.sender == doctorContract ||\n            msg.sender == diagnosticContract,\n            \"Only user contracts can register H Number\"\n        );\n        require(hNumberToAddress[_hNumber] == address(0), \"H Number already used\");\n        hNumberToAddress[_hNumber] = user;\n    }\n} ",
  "sourcePath": "D:\\Charusat University\\Material\\SEM-7\\Minor Project\\health-ease\\contracts\\EHRSystem.sol",
  "compiler": {
    "name": "solc",
    "version": "0.8.26+commit.8a97fa7a.Emscripten.clang"
  },
  "schemaVersion": "3.4.16",
  "updatedAt": "2025-08-15T14:42:56.906Z",
  "networkType": "ethereum",
  "devdoc": {
    "kind": "dev",
    "methods": {},
    "version": 1
  },
  "userdoc": {
    "kind": "user",
    "methods": {},
    "version": 1
  }
}