{
  "contractName": "PatientContract",
  "abi": [
    {
      "inputs": [
        {
          "internalType": "address",
          "name": "_ehrSystem",
          "type": "address"
        }
      ],
      "stateMutability": "nonpayable",
      "type": "constructor"
    },
    {
      "anonymous": false,
      "inputs": [
        {
          "indexed": true,
          "internalType": "address",
          "name": "patient",
          "type": "address"
        },
        {
          "indexed": false,
          "internalType": "uint256",
          "name": "recordId",
          "type": "uint256"
        },
        {
          "indexed": false,
          "internalType": "string",
          "name": "ipfsHash",
          "type": "string"
        },
        {
          "indexed": false,
          "internalType": "string",
          "name": "recordType",
          "type": "string"
        }
      ],
      "name": "MedicalRecordUploaded",
      "type": "event"
    },
    {
      "anonymous": false,
      "inputs": [
        {
          "indexed": true,
          "internalType": "address",
          "name": "wallet",
          "type": "address"
        }
      ],
      "name": "PatientProfileUpdated",
      "type": "event"
    },
    {
      "anonymous": false,
      "inputs": [
        {
          "indexed": true,
          "internalType": "address",
          "name": "wallet",
          "type": "address"
        },
        {
          "indexed": false,
          "internalType": "string",
          "name": "hNumber",
          "type": "string"
        },
        {
          "indexed": false,
          "internalType": "string",
          "name": "name",
          "type": "string"
        }
      ],
      "name": "PatientRegistered",
      "type": "event"
    },
    {
      "anonymous": false,
      "inputs": [
        {
          "indexed": true,
          "internalType": "address",
          "name": "patient",
          "type": "address"
        },
        {
          "indexed": true,
          "internalType": "address",
          "name": "doctor",
          "type": "address"
        }
      ],
      "name": "PermissionGranted",
      "type": "event"
    },
    {
      "anonymous": false,
      "inputs": [
        {
          "indexed": true,
          "internalType": "address",
          "name": "patient",
          "type": "address"
        },
        {
          "indexed": true,
          "internalType": "address",
          "name": "doctor",
          "type": "address"
        }
      ],
      "name": "PermissionRevoked",
      "type": "event"
    },
    {
      "inputs": [
        {
          "internalType": "address",
          "name": "",
          "type": "address"
        },
        {
          "internalType": "address",
          "name": "",
          "type": "address"
        }
      ],
      "name": "doctorAccess",
      "outputs": [
        {
          "internalType": "bool",
          "name": "",
          "type": "bool"
        }
      ],
      "stateMutability": "view",
      "type": "function",
      "constant": true
    },
    {
      "inputs": [],
      "name": "doctorContract",
      "outputs": [
        {
          "internalType": "address",
          "name": "",
          "type": "address"
        }
      ],
      "stateMutability": "view",
      "type": "function",
      "constant": true
    },
    {
      "inputs": [],
      "name": "ehrSystem",
      "outputs": [
        {
          "internalType": "address",
          "name": "",
          "type": "address"
        }
      ],
      "stateMutability": "view",
      "type": "function",
      "constant": true
    },
    {
      "inputs": [
        {
          "internalType": "string",
          "name": "",
          "type": "string"
        }
      ],
      "name": "hNumberToAddress",
      "outputs": [
        {
          "internalType": "address",
          "name": "",
          "type": "address"
        }
      ],
      "stateMutability": "view",
      "type": "function",
      "constant": true
    },
    {
      "inputs": [
        {
          "internalType": "address",
          "name": "",
          "type": "address"
        },
        {
          "internalType": "uint256",
          "name": "",
          "type": "uint256"
        }
      ],
      "name": "medicalRecords",
      "outputs": [
        {
          "internalType": "uint256",
          "name": "recordId",
          "type": "uint256"
        },
        {
          "internalType": "string",
          "name": "ipfsHash",
          "type": "string"
        },
        {
          "internalType": "uint256",
          "name": "timestamp",
          "type": "uint256"
        },
        {
          "internalType": "string",
          "name": "recordType",
          "type": "string"
        }
      ],
      "stateMutability": "view",
      "type": "function",
      "constant": true
    },
    {
      "inputs": [
        {
          "internalType": "address",
          "name": "",
          "type": "address"
        }
      ],
      "name": "patients",
      "outputs": [
        {
          "internalType": "address",
          "name": "wallet",
          "type": "address"
        },
        {
          "internalType": "string",
          "name": "hNumber",
          "type": "string"
        },
        {
          "internalType": "string",
          "name": "name",
          "type": "string"
        },
        {
          "internalType": "string",
          "name": "bloodGroup",
          "type": "string"
        },
        {
          "internalType": "string",
          "name": "homeAddress",
          "type": "string"
        },
        {
          "internalType": "string",
          "name": "dateOfBirth",
          "type": "string"
        },
        {
          "internalType": "string",
          "name": "gender",
          "type": "string"
        },
        {
          "internalType": "string",
          "name": "email",
          "type": "string"
        },
        {
          "internalType": "string",
          "name": "passwordHash",
          "type": "string"
        },
        {
          "internalType": "bool",
          "name": "exists",
          "type": "bool"
        }
      ],
      "stateMutability": "view",
      "type": "function",
      "constant": true
    },
    {
      "inputs": [
        {
          "internalType": "address",
          "name": "",
          "type": "address"
        },
        {
          "internalType": "uint256",
          "name": "",
          "type": "uint256"
        }
      ],
      "name": "permissions",
      "outputs": [
        {
          "internalType": "address",
          "name": "doctor",
          "type": "address"
        },
        {
          "internalType": "uint256",
          "name": "grantedAt",
          "type": "uint256"
        },
        {
          "internalType": "bool",
          "name": "active",
          "type": "bool"
        }
      ],
      "stateMutability": "view",
      "type": "function",
      "constant": true
    },
    {
      "inputs": [
        {
          "internalType": "address",
          "name": "_doctorContract",
          "type": "address"
        }
      ],
      "name": "setDoctorContract",
      "outputs": [],
      "stateMutability": "nonpayable",
      "type": "function"
    },
    {
      "inputs": [
        {
          "internalType": "string",
          "name": "_hNumber",
          "type": "string"
        },
        {
          "internalType": "string",
          "name": "_name",
          "type": "string"
        },
        {
          "internalType": "string",
          "name": "_bloodGroup",
          "type": "string"
        },
        {
          "internalType": "string",
          "name": "_homeAddress",
          "type": "string"
        },
        {
          "internalType": "string",
          "name": "_dateOfBirth",
          "type": "string"
        },
        {
          "internalType": "string",
          "name": "_gender",
          "type": "string"
        },
        {
          "internalType": "string",
          "name": "_email",
          "type": "string"
        },
        {
          "internalType": "string",
          "name": "_passwordHash",
          "type": "string"
        }
      ],
      "name": "registerPatient",
      "outputs": [],
      "stateMutability": "nonpayable",
      "type": "function"
    },
    {
      "inputs": [
        {
          "internalType": "string",
          "name": "_ipfsHash",
          "type": "string"
        },
        {
          "internalType": "string",
          "name": "_recordType",
          "type": "string"
        }
      ],
      "name": "uploadMedicalRecord",
      "outputs": [],
      "stateMutability": "nonpayable",
      "type": "function"
    },
    {
      "inputs": [
        {
          "internalType": "address",
          "name": "_doctor",
          "type": "address"
        }
      ],
      "name": "grantPermission",
      "outputs": [],
      "stateMutability": "nonpayable",
      "type": "function"
    },
    {
      "inputs": [
        {
          "internalType": "address",
          "name": "_doctor",
          "type": "address"
        }
      ],
      "name": "revokePermission",
      "outputs": [],
      "stateMutability": "nonpayable",
      "type": "function"
    },
    {
      "inputs": [
        {
          "internalType": "string",
          "name": "_name",
          "type": "string"
        },
        {
          "internalType": "string",
          "name": "_bloodGroup",
          "type": "string"
        },
        {
          "internalType": "string",
          "name": "_homeAddress",
          "type": "string"
        },
        {
          "internalType": "string",
          "name": "_dateOfBirth",
          "type": "string"
        },
        {
          "internalType": "string",
          "name": "_gender",
          "type": "string"
        },
        {
          "internalType": "string",
          "name": "_email",
          "type": "string"
        }
      ],
      "name": "updateProfile",
      "outputs": [],
      "stateMutability": "nonpayable",
      "type": "function"
    },
    {
      "inputs": [
        {
          "internalType": "address",
          "name": "_patient",
          "type": "address"
        }
      ],
      "name": "getMedicalRecords",
      "outputs": [
        {
          "components": [
            {
              "internalType": "uint256",
              "name": "recordId",
              "type": "uint256"
            },
            {
              "internalType": "string",
              "name": "ipfsHash",
              "type": "string"
            },
            {
              "internalType": "uint256",
              "name": "timestamp",
              "type": "uint256"
            },
            {
              "internalType": "string",
              "name": "recordType",
              "type": "string"
            }
          ],
          "internalType": "struct PatientContract.MedicalRecord[]",
          "name": "",
          "type": "tuple[]"
        }
      ],
      "stateMutability": "view",
      "type": "function",
      "constant": true
    },
    {
      "inputs": [
        {
          "internalType": "address",
          "name": "_patient",
          "type": "address"
        }
      ],
      "name": "getPermissions",
      "outputs": [
        {
          "components": [
            {
              "internalType": "address",
              "name": "doctor",
              "type": "address"
            },
            {
              "internalType": "uint256",
              "name": "grantedAt",
              "type": "uint256"
            },
            {
              "internalType": "bool",
              "name": "active",
              "type": "bool"
            }
          ],
          "internalType": "struct PatientContract.Permission[]",
          "name": "",
          "type": "tuple[]"
        }
      ],
      "stateMutability": "view",
      "type": "function",
      "constant": true
    },
    {
      "inputs": [
        {
          "internalType": "address",
          "name": "_patient",
          "type": "address"
        },
        {
          "internalType": "address",
          "name": "_doctor",
          "type": "address"
        }
      ],
      "name": "isDoctorPermitted",
      "outputs": [
        {
          "internalType": "bool",
          "name": "",
          "type": "bool"
        }
      ],
      "stateMutability": "view",
      "type": "function",
      "constant": true
    }
  ],
  "bytecode": "0x60806040523461002f57610019610014610116565b6101b3565b610021610034565b612cb66101c18239612cb690f35b61003a565b60405190565b600080fd5b601f801991011690565b7f4e487b7100000000000000000000000000000000000000000000000000000000600052604160045260246000fd5b906100829061003f565b810190811067ffffffffffffffff82111761009c57604052565b610049565b906100b46100ad610034565b9283610078565b565b600080fd5b600160a060020a031690565b6100d0906100bb565b90565b6100dc816100c7565b036100e357565b600080fd5b905051906100f5826100d3565b565b906020828203126101115761010e916000016100e8565b90565b6100b6565b610134612e7780380380610129816100a1565b9283398101906100f7565b90565b60010290565b9061014f600160a060020a0391610137565b9181191691161790565b90565b61017061016b610175926100bb565b610159565b6100bb565b90565b6101819061015c565b90565b61018d90610178565b90565b90565b906101a86101a36101af92610184565b610190565b825461013d565b9055565b6101be906005610193565b56fe60806040526004361015610013575b611328565b61001e60003561011d565b80630869cfbc14610118578063160a79251461011357806329cf54a31461010e5780632d8e32781461010957806351ce176c1461010457806361babc6e146100ff5780636e168ed8146100fa57806397678a03146100f5578063a3bf5b9a146100f0578063afd8297c146100eb578063bd1067e6146100e6578063da4f4161146100e1578063e2230596146100dc578063e9d79b0e146100d7578063f23876e9146100d25763fe127fcb0361000e576112f2565b611245565b6111fc565b6110f3565b6110be565b610fb2565b610f19565b610db7565b610d7d565b610b9f565b610b07565b6109dd565b610966565b610929565b610704565b6105cc565b7c0100000000000000000000000000000000000000000000000000000000900490565b60405190565b600080fd5b600080fd5b600080fd5b73ffffffffffffffffffffffffffffffffffffffff1690565b61017790610155565b90565b6101838161016e565b0361018a57565b600080fd5b9050359061019c8261017a565b565b906020828203126101b8576101b59160000161018f565b90565b61014b565b90565b6101d46101cf6101d992610155565b6101bd565b610155565b90565b6101e5906101c0565b90565b6101f1906101dc565b90565b906101fe906101e8565b600052602052604060002090565b6001900490565b73ffffffffffffffffffffffffffffffffffffffff1690565b61023861023d9161020c565b610213565b90565b61024a905461022c565b90565b7f4e487b7100000000000000000000000000000000000000000000000000000000600052602260045260246000fd5b906001600283049216801561029c575b602083101461029757565b61024d565b91607f169161028c565b60209181520190565b600052602060002090565b90600092918054906102d56102ce8361027c565b80946102a6565b9160018116908160001461032e57506001146102f1575b505050565b6102fe91929394506102af565b916000925b81841061031657505001903880806102ec565b60018160209295939554848601520191019290610303565b92949550505060ff19168252151560200201903880806102ec565b90610353916102ba565b90565b601f801991011690565b7f4e487b7100000000000000000000000000000000000000000000000000000000600052604160045260246000fd5b9061039990610356565b810190811067ffffffffffffffff8211176103b357604052565b610360565b906103d86103d1926103c8610140565b93848092610349565b038361038f565b565b60ff1690565b6103ec6103f19161020c565b6103da565b90565b6103fe90546103e0565b90565b61040c9060006101f4565b9061041960008301610240565b91610426600182016103b8565b91610433600283016103b8565b91610440600382016103b8565b9161044d600483016103b8565b9161045a600582016103b8565b91610467600683016103b8565b91610474600782016103b8565b9161048d6009610486600885016103b8565b93016103f4565b90565b6104999061016e565b9052565b5190565b60209181520190565b60005b8381106104be575050906000910152565b8060209183015181850152016104ad565b6104ee6104f76020936104fc936104e58161049d565b938480936104a1565b958691016104aa565b610356565b0190565b151590565b61050e90610500565b9052565b9a9997926105c2966105888d6105ca9c9861057a6105b39961056c610597976101209f9961055e906105a59c6105516101408a019260008b0190610490565b88820360208a01526104cf565b9086820360408801526104cf565b9084820360608601526104cf565b9160808184039101526104cf565b908d60a08184039101526104cf565b908b820360c08d01526104cf565b9089820360e08b01526104cf565b908782036101008901526104cf565b940190610505565b565b34610609576106056105e76105e236600461019e565b610401565b966105fc9a989a969196959295949394610140565b9a8b9a8b610512565b0390f35b610146565b5190565b60209181520190565b60200190565b61062a9061016e565b9052565b90565b61063a9061062e565b9052565b61064790610500565b9052565b906040806106819361066560008201516000860190610621565b61067760208201516020860190610631565b015191019061063e565b565b906106908160609361064b565b0190565b60200190565b906106b76106b16106aa8461060e565b8093610612565b9261061b565b9060005b8181106106c85750505090565b9091926106e16106db6001928651610683565b94610694565b91019190916106bb565b610701916020820191600081840391015261069a565b90565b346107345761073061071f61071a36600461019e565b6114f6565b610727610140565b918291826106eb565b0390f35b610146565b600080fd5b600080fd5b9061075661074f610140565b928361038f565b565b67ffffffffffffffff811161077657610772602091610356565b0190565b610360565b90826000939282370152565b9092919261079c61079782610758565b610743565b938185526020850190828401116107b8576107b69261077b565b565b61073e565b9080601f830112156107db578160206107d893359101610787565b90565b610739565b9190916101008184031261091e57600081013567ffffffffffffffff8111610919578361080e9183016107bd565b92602082013567ffffffffffffffff8111610914578161082f9184016107bd565b92604083013567ffffffffffffffff811161090f57826108509185016107bd565b92606081013567ffffffffffffffff811161090a57836108719183016107bd565b92608082013567ffffffffffffffff811161090557816108929184016107bd565b9260a083013567ffffffffffffffff811161090057826108b39185016107bd565b9260c081013567ffffffffffffffff81116108fb57836108d49183016107bd565b9260e082013567ffffffffffffffff81116108f6576108f392016107bd565b90565b610150565b610150565b610150565b610150565b610150565b610150565b610150565b610150565b61014b565b60000190565b346109615761094b61093c3660046107e0565b96959095949194939293611b95565b610953610140565b8061095d81610923565b0390f35b610146565b346109945761097e61097936600461019e565b61241f565b610986610140565b8061099081610923565b0390f35b610146565b91906040838203126109c257806109b66109bf926000860161018f565b9360200161018f565b90565b61014b565b91906109db90600060208501940190610505565b565b34610a0e57610a0a6109f96109f3366004610999565b9061242f565b610a01610140565b918291826109c7565b0390f35b610146565b9160c083830312610b0257600083013567ffffffffffffffff8111610afd5782610a3e9185016107bd565b92602081013567ffffffffffffffff8111610af85783610a5f9183016107bd565b92604082013567ffffffffffffffff8111610af35781610a809184016107bd565b92606083013567ffffffffffffffff8111610aee5782610aa19185016107bd565b92608081013567ffffffffffffffff8111610ae95783610ac29183016107bd565b9260a082013567ffffffffffffffff8111610ae457610ae192016107bd565b90565b610150565b610150565b610150565b610150565b610150565b610150565b61014b565b34610b3c57610b26610b1a366004610a13565b9493909392919261252e565b610b2e610140565b80610b3881610923565b0390f35b610146565b919091604081840312610b9a57600081013567ffffffffffffffff8111610b955783610b6e9183016107bd565b92602082013567ffffffffffffffff8111610b9057610b8d92016107bd565b90565b610150565b610150565b61014b565b34610bce57610bb8610bb2366004610b41565b906127dd565b610bc0610140565b80610bca81610923565b0390f35b610146565b610bdc8161062e565b03610be357565b600080fd5b90503590610bf582610bd3565b565b9190604083820312610c205780610c14610c1d926000860161018f565b93602001610be8565b90565b61014b565b90610c2f906101e8565b600052602052604060002090565b7f4e487b7100000000000000000000000000000000000000000000000000000000600052603260045260246000fd5b5490565b600052602060002090565b610c8481610c6c565b821015610c9f57610c96600491610c70565b91020190600090565b610c3d565b90565b610cb3610cb89161020c565b610ca4565b90565b610cc59054610ca7565b90565b610cd3906002610c25565b90610cdd82610c6c565b811015610d2457610ced91610c7b565b5090610cfb60008301610cbb565b91610d08600182016103b8565b91610d216003610d1a60028501610cbb565b93016103b8565b90565b600080fd5b610d329061062e565b9052565b90610d62610d6d91610d7a9694610d5560808601926000870190610d29565b84820360208601526104cf565b936040830190610d29565b60608184039101526104cf565b90565b34610db257610dae610d99610d93366004610bf7565b90610cc8565b90610da5949294610140565b94859485610d36565b0390f35b610146565b34610de557610dcf610dca36600461019e565b612ae3565b610dd7610140565b80610de181610923565b0390f35b610146565b5190565b60209181520190565b60200190565b610e1c610e25602093610e2a93610e138161049d565b938480936102a6565b958691016104aa565b610356565b0190565b610e82916060610e5f60808301610e4d60008601516000860190610631565b60208501518482036020860152610dfd565b92610e7260408201516040850190610631565b0151906060818403910152610dfd565b90565b90610e8f91610e2e565b90565b60200190565b90610eac610ea583610dea565b8092610dee565b9081610ebd60208302840194610df7565b926000915b838310610ed157505050505090565b90919293946020610ef3610eed83856001950387528951610e85565b97610e92565b9301930191939290610ec2565b610f169160208201916000818403910152610e98565b90565b34610f4957610f45610f34610f2f36600461019e565b612c07565b610f3c610140565b91829182610f00565b0390f35b610146565b6000910312610f5957565b61014b565b60020a900490565b610f76906008610f7b9302610f5e565b610213565b90565b90610f899154610f66565b90565b610f996005600090610f7e565b90565b9190610fb090600060208501940190610490565b565b34610fe257610fc2366004610f4e565b610fde610fcd610f8c565b610fd5610140565b91829182610f9c565b0390f35b610146565b9060208282031261101857600082013567ffffffffffffffff81116110135761101092016107bd565b90565b610150565b61014b565b905090565b61104761103e926020926110358161049d565b9485809361101d565b938491016104aa565b0190565b90565b61105a61105f9161062e565b61104b565b9052565b61107361107a9160209493611022565b809261104e565b0190565b611092611089610140565b92839283611063565b03902090565b6110a19161107e565b90565b6110bb906110b6600191600092611098565b610f7e565b90565b346110ee576110ea6110d96110d4366004610fe7565b6110a4565b6110e1610140565b91829182610f9c565b0390f35b610146565b346111215761110b61110636600461019e565b612c73565b611113610140565b8061111d81610923565b0390f35b610146565b90611130906101e8565b600052602052604060002090565b5490565b600052602060002090565b6111568161113e565b82101561117157611168600391611142565b91020190600090565b610c3d565b611181906003611126565b9061118b8261113e565b8110156111c45761119b9161114d565b506111a860008201610240565b916111c160026111ba60018501610cbb565b93016103f4565b90565b600080fd5b6040906111f36111fa94969593966111e960608401986000850190610490565b6020830190610d29565b0190610505565b565b346112305761122c611218611212366004610bf7565b90611176565b611223939193610140565b938493846111c9565b0390f35b610146565b6112426006600090610f7e565b90565b3461127557611255366004610f4e565b611271611260611235565b611268610140565b91829182610f9c565b0390f35b610146565b90611284906101e8565b600052602052604060002090565b9061129c906101e8565b600052602052604060002090565b6112ba9060086112bf9302610f5e565b6103da565b90565b906112cd91546112aa565b90565b6112ea6112ef926112e560049360009461127a565b611292565b6112c2565b90565b346113235761131f61130e611308366004610999565b906112d0565b611316610140565b918291826109c7565b0390f35b610146565b600080fd5b606090565b60007f4e6f7420617574686f72697a6564000000000000000000000000000000000000910152565b611367600e6020926104a1565b61137081611332565b0190565b61138a906020810190600081830391015261135a565b90565b1561139457565b61139c610140565b7f08c379a0000000000000000000000000000000000000000000000000000000008152806113cc60048201611374565b0390fd5b67ffffffffffffffff81116113e85760208091020190565b610360565b906113ff6113fa836113d0565b610743565b918252565b9061140e9061016e565b9052565b9061141c9061062e565b9052565b9061142a90610500565b9052565b6114386060610743565b90565b9061148c611483600261144c61142e565b9461146561145c60008301610240565b60008801611404565b61147d61147460018301610cbb565b60208801611412565b016103f4565b60408401611420565b565b6114979061143b565b90565b906114a48261113e565b6114ad816113ed565b926114bb6020850191611142565b6000915b8383106114cc5750505050565b600360206001926114dc8561148e565b8152019201920191906114bf565b6114f39061149a565b90565b61152961152e9161150561132d565b506115223361151c6115168461016e565b9161016e565b1461138d565b6003611126565b6114ea565b90565b60007f416c726561647920726567697374657265640000000000000000000000000000910152565b61156660126020926104a1565b61156f81611531565b0190565b6115899060208101906000818303910152611559565b90565b1561159357565b61159b610140565b7f08c379a0000000000000000000000000000000000000000000000000000000008152806115cb60048201611573565b0390fd5b6115d8906101c0565b90565b6115e4906115cf565b90565b6115f0906101dc565b90565b600080fd5b7c01000000000000000000000000000000000000000000000000000000000290565b61162381610500565b0361162a57565b600080fd5b9050519061163c8261161a565b565b90602082820312611658576116559160000161162f565b90565b61014b565b61167391602082019160008184039101526104cf565b90565b61167e610140565b3d6000823e3d90fd5b60007f48204e756d62657220616c726561647920757365640000000000000000000000910152565b6116bc60156020926104a1565b6116c581611687565b0190565b6116df90602081019060008183039101526116af565b90565b156116e957565b6116f1610140565b7f08c379a000000000000000000000000000000000000000000000000000000000815280611721600482016116c9565b0390fd5b611730610140610743565b90565b52565b7f4e487b7100000000000000000000000000000000000000000000000000000000600052600060045260246000fd5b61176f905161016e565b90565b60010290565b9061179773ffffffffffffffffffffffffffffffffffffffff91611772565b9181191691161790565b90565b906117b96117b46117c0926101e8565b6117a1565b8254611778565b9055565b5190565b601f602091010490565b60020a0290565b919060086117f59102916117ef600019846117d2565b926117d2565b9181191691161790565b61181361180e6118189261062e565b6101bd565b61062e565b90565b90565b919061183461182f61183c936117ff565b61181b565b9083546117d9565b9055565b600090565b61185791611851611840565b9161181e565b565b5b818110611865575050565b806118736000600193611845565b0161185a565b9190601f8111611889575b505050565b6118956118ba936102af565b9060206118a1846117c8565b830193106118c2575b6118b3906117c8565b0190611859565b388080611884565b91506118b3819290506118aa565b906118e19060001990600802610f5e565b191690565b816118f0916118d0565b906002021790565b906119028161049d565b9067ffffffffffffffff82116119c45761192682611920855461027c565b85611879565b602090601f831160011461195b5791809161194a9360009261194f575b50506118e6565b90555b565b90915001513880611943565b601f1983169161196a856102af565b9260005b8181106119ac57509160029391856001969410611992575b5050500201905561194d565b6119a2910151601f8416906118d0565b9055388080611986565b9193602060018192878701518155019501920161196e565b610360565b906119d3916118f8565b565b6119df9051610500565b90565b906119ee60ff91611772565b9181191691161790565b611a0190610500565b90565b90565b90611a1c611a17611a23926119f8565b611a04565b82546119e2565b9055565b90611b1e6101206009611b2494611a4d60008201611a4760008801611765565b906117a4565b611a6660018201611a60602088016117c4565b906119c9565b611a7f60028201611a79604088016117c4565b906119c9565b611a9860038201611a92606088016117c4565b906119c9565b611ab160048201611aab608088016117c4565b906119c9565b611aca60058201611ac460a088016117c4565b906119c9565b611ae360068201611add60c088016117c4565b906119c9565b611afc60078201611af660e088016117c4565b906119c9565b611b1660088201611b1061010088016117c4565b906119c9565b0192016119d5565b90611a07565b565b90611b3091611a27565b565b6000910312611b3d57565b61014b565b92916020611b5f611b6793604087019087820360008901526104cf565b940190610490565b565b9091611b84611b9293604084019084820360008601526104cf565b9160208184039101526104cf565b90565b95909691929394611bc4611bbf611bb96009611bb3600033906101f4565b016103f4565b15610500565b61158c565b611c0d6020611be3611bde611bd96005610240565b6115db565b6115e7565b6348a6fc0090611c028b92611bf6610140565b958694859384936115f8565b83526004830161165d565b03915afa908115611e9857600091611e6a575b5015611c2b90610500565b611c34906116e2565b339587958995909192939495600197611c4b611725565b9960008b0190611c5a91611404565b60208a0190611c6891611733565b6040890190611c7691611733565b6060880190611c8491611733565b6080870190611c9291611733565b60a0860190611ca091611733565b60c0850190611cae91611733565b60e0840190611cbc91611733565b610100830190611ccb91611733565b610120820190611cda91611420565b600033611ce6916101f4565b90611cf091611b26565b611cfa6005610240565b611d03906115db565b611d0c906115e7565b639eb89250823392803b15611e6557611d3960008094611d44611d2d610140565b978896879586946115f8565b845260048401611b42565b03925af18015611e6057611e33575b50611d6e611d69611d646005610240565b6115db565b6115e7565b636d263ceb33823b15611e2e57611da592611d9a60008094611d8e610140565b968795869485936115f8565b835260048301610f9c565b03925af18015611e2957611dfc575b50339091611de27f5aad8bc7ad9861b16c6d01a65f54118dfe585a51e408ac2e7b9499148d515c41926101e8565b92611df7611dee610140565b92839283611b69565b0390a2565b611e1c9060003d8111611e22575b611e14818361038f565b810190611b32565b38611db4565b503d611e0a565b611676565b6115f3565b611e539060003d8111611e59575b611e4b818361038f565b810190611b32565b38611d53565b503d611e41565b611676565b6115f3565b611e8b915060203d8111611e91575b611e83818361038f565b81019061163e565b38611c20565b503d611e79565b611676565b60007f4e6f74206120726567697374657265642070617469656e740000000000000000910152565b611ed260186020926104a1565b611edb81611e9d565b0190565b611ef59060208101906000818303910152611ec5565b90565b15611eff57565b611f07610140565b7f08c379a000000000000000000000000000000000000000000000000000000000815280611f3760048201611edf565b0390fd5b611f6390611f5e611f596009611f53600033906101f4565b016103f4565b611ef8565b6121ce565b565b60007f416c7265616479206772616e7465640000000000000000000000000000000000910152565b611f9a600f6020926104a1565b611fa381611f65565b0190565b611fbd9060208101906000818303910152611f8d565b90565b15611fc757565b611fcf610140565b7f08c379a000000000000000000000000000000000000000000000000000000000815280611fff60048201611fa7565b0390fd5b90565b6120106060610743565b90565b600052602060002090565b5490565b61202b8161201e565b8210156120465761203d600391612013565b91020190600090565b610c3d565b612055905161062e565b90565b9061206560001991611772565b9181191691161790565b9061208461207f61208b926117ff565b61181b565b8254612058565b9055565b906120d5604060026120db946120b4600082016120ae60008801611765565b906117a4565b6120cd600182016120c76020880161204b565b9061206f565b0192016119d5565b90611a07565b565b91906120ee576120ec9161208f565b565b611736565b9081549168010000000000000000831015612123578261211b91600161212195018155612022565b906120dd565b565b610360565b604090612152612159949695939661214860608401986000850190610490565b6020830190610490565b0190610505565b565b90565b61217261216d6121779261215b565b6101bd565b610155565b90565b6121839061215e565b90565b61218f906101c0565b90565b61219b90612186565b90565b6121a7906101dc565b90565b9160206121cc9294936121c560408201966000830190610490565b0190610490565b565b6121fd6121f86121f26121ed6121e66004339061127a565b8590611292565b6103f4565b15610500565b611fc0565b61224c61221461220f60033390611126565b612003565b82906122474261223e60019161223561222b612006565b9660008801611404565b60208601611412565b60408401611420565b6120f3565b61226c60016122676122606004339061127a565b8490611292565b611a07565b61228661228161227c6005610240565b6115db565b6115e7565b636ad3aa62338392600192813b1561241a5760006122b7916122c282966122ab610140565b988997889687956115f8565b855260048501612128565b03925af18015612415576123e8575b506122dc6006610240565b6122f76122f16122ec600061217a565b61016e565b9161016e565b0361234a575b339061233261232c7f0ceda602a8e00ef76afe24614343eb6c034877c816b6184d641d2d8b713a0fc6936101e8565b916101e8565b9161233b610140565b8061234581610923565b0390a3565b61236461235f61235a6006610240565b612192565b61219e565b6305e302fa823392803b156123e3576123916000809461239c612385610140565b978896879586946115f8565b8452600484016121aa565b03925af180156123de576123b1575b506122fd565b6123d19060003d81116123d7575b6123c9818361038f565b810190611b32565b386123ab565b503d6123bf565b611676565b6115f3565b6124089060003d811161240e575b612400818361038f565b810190611b32565b386122d1565b503d6123f6565b611676565b6115f3565b61242890611f3b565b565b600090565b6124549161244a61244f9261244261242a565b50600461127a565b611292565b6103f4565b90565b90612484959493929161247f61247a6009612474600033906101f4565b016103f4565b611ef8565b612489565b565b90565b936124db6007946124d26124eb98956124c96124e4966124c06124b66124b1600033906101f4565b612486565b9b60028d016119c9565b60038b016119c9565b600489016119c9565b600587016119c9565b600685016119c9565b91016119c9565b336125167f46d8dd7f5c48965b7a2dcc72833fb6c12440fe9a716bbf253e058253f6bc384c916101e8565b9061251f610140565b8061252981610923565b0390a2565b9061253c9594939291612457565b565b906125679161256261255d6009612557600033906101f4565b016103f4565b611ef8565b612710565b565b90565b61258061257b61258592612569565b6101bd565b61062e565b90565b7f4e487b7100000000000000000000000000000000000000000000000000000000600052601160045260246000fd5b6125c66125cc9193929361062e565b9261062e565b82018092116125d757565b612588565b90565b6125e96080610743565b90565b600052602060002090565b5490565b612604816125f7565b82101561261f576126166004916125ec565b91020190600090565b610c3d565b906126836060600361268994612649600082016126436000880161204b565b9061206f565b6126626001820161265c602088016117c4565b906119c9565b61267b600282016126756040880161204b565b9061206f565b0192016117c4565b906119c9565b565b919061269c5761269a91612624565b565b611736565b90815491680100000000000000008310156126d157826126c99160016126cf950181556125fb565b9061268b565b565b610360565b9161270d93916126ff916126f260608601926000870190610d29565b84820360208601526104cf565b9160408184039101526104cf565b90565b9061273861272861272360023390610c25565b610c6c565b612732600161256c565b906125b7565b9061279461275061274b60023390610c25565b6125dc565b839061278f866127864261277d889361277461276a6125df565b9860008a01611412565b60208801611733565b60408601611412565b60608401611733565b6126a1565b33919290926127d86127c67fca2b7f2e1ae44739ff913f7147bb1fc5726dcdd3a78891d88cd6e9f02432b7d5946101e8565b946127cf610140565b938493846126d6565b0390a2565b906127e79161253e565b565b6128119061280c6128076009612801600033906101f4565b016103f4565b611ef8565b6128dc565b565b60007f4e6f74206772616e746564000000000000000000000000000000000000000000910152565b612848600b6020926104a1565b61285181612813565b0190565b61286b906020810190600081830391015261283b565b90565b1561287557565b61287d610140565b7f08c379a0000000000000000000000000000000000000000000000000000000008152806128ad60048201612855565b0390fd5b6128c56128c06128ca9261215b565b6101bd565b61062e565b90565b60016128d9910161062e565b90565b6129026128fd6128f86128f16004339061127a565b8490611292565b6103f4565b61286e565b612922600061291d6129166004339061127a565b8490611292565b611a07565b61292c60006128b1565b5b8061295361294d61294861294360033390611126565b61113e565b61062e565b9161062e565b10156129f8576129a29061297f600061297861297160033390611126565b849061114d565b5001610240565b61299161298b8561016e565b9161016e565b14806129d0575b6129a7575b6128cd565b61292d565b6129cb600060026129c46129bd60033390611126565b859061114d565b5001611a07565b61299d565b506129f360026129ec6129e560033390611126565b849061114d565b50016103f4565b612998565b50612a13612a0e612a096005610240565b6115db565b6115e7565b636ad3aa62338392600092813b15612ade576000612a4491612a4f8296612a38610140565b988997889687956115f8565b855260048501612128565b03925af18015612ad957612aac575b503390612a94612a8e7f5f708ef9fc37d19d88246c264788c8cdf640c9ff500bd168e941ea1421c4f6c4936101e8565b916101e8565b91612a9d610140565b80612aa781610923565b0390a3565b612acc9060003d8111612ad2575b612ac4818361038f565b810190611b32565b38612a5e565b503d612aba565b611676565b6115f3565b612aec906127e9565b565b606090565b67ffffffffffffffff8111612b0b5760208091020190565b610360565b90612b22612b1d83612af3565b610743565b918252565b612b316080610743565b90565b90612b9d612b946003612b45612b27565b94612b5e612b5560008301610cbb565b60008801611412565b612b76612b6d600183016103b8565b60208801611733565b612b8e612b8560028301610cbb565b60408801611412565b016103b8565b60608401611733565b565b612ba890612b34565b90565b90612bb582610c6c565b612bbe81612b10565b92612bcc6020850191610c70565b6000915b838310612bdd5750505050565b60046020600192612bed85612b9f565b815201920192019190612bd0565b612c0490612bab565b90565b612c42612c4791612c16612aee565b5033612c2a612c248361016e565b9161016e565b148015612c4a575b612c3b9061138d565b6002610c25565b612bfb565b90565b50612c3b612c6c612c67612c606004859061127a565b3390611292565b6103f4565b9050612c32565b612c7e9060066117a4565b56fea2646970667358221220449b416be7d4bdc1e2bed47ef85a26191e3ae19d3ba6e4a5bdebb55d66d2a6ce64736f6c634300081a0033",
  "immutableReferences": {},
  "source": "// SPDX-License-Identifier: MIT\npragma solidity ^0.8.26;\n\ninterface IEHRSystem {\n    function addPatient(address _patient) external;\n    function updateDoctorPermission(address _patient, address _doctor, bool granted) external;\n    function isHNumberUsed(string memory _hNumber) external view returns (bool);\n    function registerHNumber(string memory _hNumber, address _patient) external;\n}\n\ninterface IDoctorContract {\n    function addPatientAccessFromPatient(address _doctor, address _patient) external;\n}\n\ncontract PatientContract {\n    struct Patient {\n        address wallet;\n        string hNumber;\n        string name;\n        string bloodGroup;\n        string homeAddress;\n        string dateOfBirth;\n        string gender;\n        string email;\n        string passwordHash;\n        bool exists;\n    }\n\n    struct MedicalRecord {\n        uint256 recordId;\n        string ipfsHash;\n        uint256 timestamp;\n        string recordType;\n    }\n\n    struct Permission {\n        address doctor;\n        uint256 grantedAt;\n        bool active;\n    }\n\n    mapping(address => Patient) public patients;\n    mapping(string => address) public hNumberToAddress;\n    mapping(address => MedicalRecord[]) public medicalRecords;\n    mapping(address => Permission[]) public permissions;\n    mapping(address => mapping(address => bool)) public doctorAccess; // patient => doctor => access\n\n    event PatientRegistered(address indexed wallet, string hNumber, string name);\n    event MedicalRecordUploaded(address indexed patient, uint256 recordId, string ipfsHash, string recordType);\n    event PermissionGranted(address indexed patient, address indexed doctor);\n    event PermissionRevoked(address indexed patient, address indexed doctor);\n    event PatientProfileUpdated(address indexed wallet);\n\n    address public ehrSystem;\n    address public doctorContract;\n\n    constructor(address _ehrSystem) {\n        ehrSystem = _ehrSystem;\n    }\n\n    modifier onlyPatient() {\n        require(patients[msg.sender].exists, \"Not a registered patient\");\n        _;\n    }\n\n    function setDoctorContract(address _doctorContract) external {\n        // Add onlyOwner if you want to restrict\n        doctorContract = _doctorContract;\n    }\n\n    function registerPatient(\n        string memory _hNumber,\n        string memory _name,\n        string memory _bloodGroup,\n        string memory _homeAddress,\n        string memory _dateOfBirth,\n        string memory _gender,\n        string memory _email,\n        string memory _passwordHash\n    ) public {\n        require(!patients[msg.sender].exists, \"Already registered\");\n        require(!IEHRSystem(ehrSystem).isHNumberUsed(_hNumber), \"H Number already used\");\n        patients[msg.sender] = Patient({\n            wallet: msg.sender,\n            hNumber: _hNumber,\n            name: _name,\n            bloodGroup: _bloodGroup,\n            homeAddress: _homeAddress,\n            dateOfBirth: _dateOfBirth,\n            gender: _gender,\n            email: _email,\n            passwordHash: _passwordHash,\n            exists: true\n        });\n        IEHRSystem(ehrSystem).registerHNumber(_hNumber, msg.sender);\n        IEHRSystem(ehrSystem).addPatient(msg.sender);\n        emit PatientRegistered(msg.sender, _hNumber, _name);\n    }\n\n    function uploadMedicalRecord(string memory _ipfsHash, string memory _recordType) public onlyPatient {\n        uint256 recordId = medicalRecords[msg.sender].length + 1;\n        medicalRecords[msg.sender].push(MedicalRecord({\n            recordId: recordId,\n            ipfsHash: _ipfsHash,\n            timestamp: block.timestamp,\n            recordType: _recordType\n        }));\n        emit MedicalRecordUploaded(msg.sender, recordId, _ipfsHash, _recordType);\n    }\n\n    function grantPermission(address _doctor) public onlyPatient {\n        require(!doctorAccess[msg.sender][_doctor], \"Already granted\");\n        permissions[msg.sender].push(Permission({\n            doctor: _doctor,\n            grantedAt: block.timestamp,\n            active: true\n        }));\n        doctorAccess[msg.sender][_doctor] = true;\n        IEHRSystem(ehrSystem).updateDoctorPermission(msg.sender, _doctor, true);\n        // Cross-contract sync: update DoctorContract\n        if (doctorContract != address(0)) {\n            IDoctorContract(doctorContract).addPatientAccessFromPatient(_doctor, msg.sender);\n        }\n        emit PermissionGranted(msg.sender, _doctor);\n    }\n\n    function revokePermission(address _doctor) public onlyPatient {\n        require(doctorAccess[msg.sender][_doctor], \"Not granted\");\n        doctorAccess[msg.sender][_doctor] = false;\n        // Mark as inactive in permissions array\n        for (uint i = 0; i < permissions[msg.sender].length; i++) {\n            if (permissions[msg.sender][i].doctor == _doctor && permissions[msg.sender][i].active) {\n                permissions[msg.sender][i].active = false;\n            }\n        }\n        IEHRSystem(ehrSystem).updateDoctorPermission(msg.sender, _doctor, false);\n        emit PermissionRevoked(msg.sender, _doctor);\n    }\n\n    function updateProfile(\n        string memory _name,\n        string memory _bloodGroup,\n        string memory _homeAddress,\n        string memory _dateOfBirth,\n        string memory _gender,\n        string memory _email\n    ) public onlyPatient {\n        Patient storage p = patients[msg.sender];\n        p.name = _name;\n        p.bloodGroup = _bloodGroup;\n        p.homeAddress = _homeAddress;\n        p.dateOfBirth = _dateOfBirth;\n        p.gender = _gender;\n        p.email = _email;\n        emit PatientProfileUpdated(msg.sender);\n    }\n\n    function getMedicalRecords(address _patient) public view returns (MedicalRecord[] memory) {\n        // Only the patient or a doctor with permission can view\n        require(\n            msg.sender == _patient || doctorAccess[_patient][msg.sender],\n            \"Not authorized\"\n        );\n        return medicalRecords[_patient];\n    }\n\n    function getPermissions(address _patient) public view returns (Permission[] memory) {\n        require(msg.sender == _patient, \"Not authorized\");\n        return permissions[_patient];\n    }\n\n    function isDoctorPermitted(address _patient, address _doctor) public view returns (bool) {\n        return doctorAccess[_patient][_doctor];\n    }\n} ",
  "sourcePath": "D:\\Charusat University\\Material\\SEM-7\\Minor Project\\HealthEase\\contracts\\PatientContract.sol",
  "compiler": {
    "name": "solc",
    "version": "0.8.26+commit.8a97fa7a.Emscripten.clang"
  },
  "schemaVersion": "3.4.16",
  "updatedAt": "2025-07-11T08:58:10.525Z",
  "networkType": "ethereum",
  "devdoc": {
    "kind": "dev",
    "methods": {},
    "version": 1
  },
  "userdoc": {
    "kind": "user",
    "methods": {},
    "version": 1
  }
}